Component: ARM Compiler 5.06 update 6 (build 750) Tool: armlink [4d35ed]

==============================================================================

Section Cross References

    main.o(i.BSP_Init) refers to led.o(i.LED_Init) for LED_Init
    main.o(i.BSP_Init) refers to laser.o(i.Laser_Init) for Laser_Init
    main.o(i.BSP_Init) refers to dr16.o(i.DR16_Init) for DR16_Init
    main.o(i.BSP_Init) refers to can.o(i.CAN12_Init) for CAN12_Init
    main.o(i.BSP_Init) refers to bmi088driver.o(i.BMI088_init) for BMI088_init
    main.o(i.BSP_Init) refers to tim6.o(i.TIM6_Init) for TIM6_Init
    main.o(i.BSP_Init) refers to beep.o(i.Beep_Init) for Beep_Init
    main.o(i.BSP_Init) refers to nuc.o(i.NUC_Init) for NUC_Init
    main.o(i.BSP_Init) refers to referee.o(i.Referee_Init) for Referee_Init
    main.o(i.BSP_Init) refers to gimbal.o(i.Gimbal_Init) for Gimbal_Init
    main.o(i.BSP_Init) refers to chassis.o(i.Chassis_Init) for Chassis_Init
    main.o(i.BSP_Init) refers to shoot.o(i.Shoot_Init) for Shoot_Init
    main.o(i.BSP_Init) refers to limit.o(i.limit_Init) for limit_Init
    main.o(i.main) refers to misc.o(i.NVIC_PriorityGroupConfig) for NVIC_PriorityGroupConfig
    main.o(i.main) refers to delay.o(i.delay_init) for delay_init
    main.o(i.main) refers to main.o(i.BSP_Init) for BSP_Init
    main.o(i.main) refers to task_init.o(i.Task_Init) for Task_Init
    system_stm32f4xx.o(i.SystemCoreClockUpdate) refers to system_stm32f4xx.o(.data) for SystemCoreClock
==============================================================================

Removing Unused input sections from the image.

    Removing main.o(.rev16_text), (4 bytes).
    Removing main.o(.revsh_text), (4 bytes).
    Removing stm32f4xx_it.o(.rev16_text), (4 bytes).
    Removing stm32f4xx_it.o(.revsh_text), (4 bytes).
    Removing system_stm32f4xx.o(.rev16_text), (4 bytes).
    Removing system_stm32f4xx.o(.revsh_text), (4 bytes).
    Removing system_stm32f4xx.o(i.SystemCoreClockUpdate), (192 bytes).
    Removing beep.o(.rev16_text), (4 bytes).
    Removing beep.o(.revsh_text), (4 bytes).
    Removing bmi088.o(.rev16_text), (4 bytes).
    Removing bmi088.o(.revsh_text), (4 bytes).
    Removing bmi088driver.o(.rev16_text), (4 bytes).
    Removing bmi088driver.o(.revsh_text), (4 bytes).
    Removing bmi088driver.o(i.BMI088_read), (380 bytes).
    Removing bmi088driver.o(i.BMI088_write_muli_reg), (34 bytes).
    Removing bmi088driver.o(i.get_BMI088_gyro), (86 bytes).
    Removing can.o(.rev16_text), (4 bytes).
    Removing can.o(.revsh_text), (4 bytes).
==============================================================================

Image Symbol Table

    Local Symbols

    Symbol Name                              Value     Ov Type        Size  Object(Section)

    ../clib/angel/boardlib.s                 0x00000000   Number         0  boardshut.o ABSOLUTE
    ../clib/angel/boardlib.s                 0x00000000   Number         0  boardinit3.o ABSOLUTE
    ../clib/angel/boardlib.s                 0x00000000   Number         0  boardinit2.o ABSOLUTE
    ../clib/angel/boardlib.s                 0x00000000   Number         0  boardinit1.o ABSOLUTE
    ../clib/angel/dczerorl2.s                0x00000000   Number         0  __dczerorl2.o ABSOLUTE
    ../clib/angel/handlers.s                 0x00000000   Number         0  __scatter_zi.o ABSOLUTE
    ../clib/angel/kernel.s                   0x00000000   Number         0  __rtentry.o ABSOLUTE
    ../clib/angel/kernel.s                   0x00000000   Number         0  __rtentry4.o ABSOLUTE
    ../clib/angel/kernel.s                   0x00000000   Number         0  __rtentry2.o ABSOLUTE
    ../clib/angel/kernel.s                   0x00000000   Number         0  rtexit.o ABSOLUTE
    ../clib/angel/kernel.s                   0x00000000   Number         0  rtexit2.o ABSOLUTE
    ../clib/angel/rt.s                       0x00000000   Number         0  rt_locale.o ABSOLUTE
    ../clib/angel/rt.s                       0x00000000   Number         0  rt_errno_addr_intlibspace.o ABSOLUTE
    ../clib/angel/rt.s                       0x00000000   Number         0  rt_locale_intlibspace.o ABSOLUTE
    ../clib/angel/rt.s                       0x00000000   Number         0  rt_raise.o ABSOLUTE
    ../clib/angel/rt.s                       0x00000000   Number         0  rt_errno_addr.o ABSOLUTE
    ../clib/angel/scatter.s                  0x00000000   Number         0  __scatter.o ABSOLUTE
    ../clib/angel/startup.s                  0x00000000   Number         0  __main.o ABSOLUTE
    ../clib/angel/sys.s                      0x00000000   Number         0  indicate_semi.o ABSOLUTE
    ../clib/angel/sys.s                      0x00000000   Number         0  sys_stackheap_outer.o ABSOLUTE
    ../clib/angel/sys.s                      0x00000000   Number         0  use_no_semi.o ABSOLUTE
    ../clib/angel/sys.s                      0x00000000   Number         0  libspace.o ABSOLUTE
    ../clib/angel/sys.s                      0x00000000   Number         0  use_no_semi_2.o ABSOLUTE
    ../clib/angel/sysapp.c                   0x00000000   Number         0  sys_command.o ABSOLUTE
    ../clib/angel/sysapp.c                   0x00000000   Number         0  sys_wrch.o ABSOLUTE
    ../clib/armsys.c                         0x00000000   Number         0  no_argv.o ABSOLUTE
    ../clib/armsys.c                         0x00000000   Number         0  argv_veneer.o ABSOLUTE
    ../clib/armsys.c                         0x00000000   Number         0  _get_argv_nomalloc.o ABSOLUTE
    ../clib/armsys.c                         0x00000000   Number         0  argv_veneer.o ABSOLUTE
    ../clib/bigflt.c                         0x00000000   Number         0  bigflt0.o ABSOLUTE
    ../clib/btod.s                           0x00000000   Number         0  btod.o ABSOLUTE
    ../clib/fenv.c                           0x00000000   Number         0  _rserrno.o ABSOLUTE
    ../clib/heapalloc.c                      0x00000000   Number         0  hrguard.o ABSOLUTE
    ../clib/heapaux.c                        0x00000000   Number         0  heapauxi.o ABSOLUTE
    ../clib/libinit.s                        0x00000000   Number         0  libshutdown.o ABSOLUTE
    ../clib/libinit.s                        0x00000000   Number         0  libshutdown2.o ABSOLUTE
    ../clib/libinit.s                        0x00000000   Number         0  libinit.o ABSOLUTE
    ../clib/libinit.s                        0x00000000   Number         0  libinit2.o ABSOLUTE
    ../clib/locale.s                         0x00000000   Number         0  lc_numeric_c.o ABSOLUTE
    ../clib/longlong.s                       0x00000000   Number         0  lludiv10.o ABSOLUTE
    ../clib/memcpset.s                       0x00000000   Number         0  rt_memclr.o ABSOLUTE
    ../clib/memcpset.s                       0x00000000   Number         0  rt_memcpy_v6.o ABSOLUTE
    ../clib/memcpset.s                       0x00000000   Number         0  aeabi_memset.o ABSOLUTE
    ../clib/memcpset.s                       0x00000000   Number         0  strcmpv7m.o ABSOLUTE
    ../clib/memcpset.s                       0x00000000   Number         0  rt_memclr_w.o ABSOLUTE
    ../clib/memcpset.s                       0x00000000   Number         0  rt_memcpy_w.o ABSOLUTE
    ../clib/misc.s                           0x00000000   Number         0  printf_stubs.o ABSOLUTE
    ../clib/printf.c                         0x00000000   Number         0  _sputc.o ABSOLUTE
    ../clib/printf.c                         0x00000000   Number         0  _printf_fp_dec.o ABSOLUTE
    ../clib/printf.c                         0x00000000   Number         0  _printf_char_common.o ABSOLUTE
    ../clib/printf.c                         0x00000000   Number         0  _printf_dec.o ABSOLUTE
    ../clib/printf.c                         0x00000000   Number         0  __printf_ss_wp.o ABSOLUTE
    ../clib/printf.c                         0x00000000   Number         0  __printf_flags_ss.o ABSOLUTE
    ../clib/printf.c                         0x00000000   Number         0  __printf_flags_wp.o ABSOLUTE
    ../clib/printf.c                         0x00000000   Number         0  __printf.o ABSOLUTE
    ../clib/printf.c                         0x00000000   Number         0  __printf_wp.o ABSOLUTE
    ../clib/printf.c                         0x00000000   Number         0  noretval__2sprintf.o ABSOLUTE
    ../clib/printf.c                         0x00000000   Number         0  __2sprintf.o ABSOLUTE
    ../clib/printf.c                         0x00000000   Number         0  __printf_flags_ss_wp.o ABSOLUTE
    ../clib/printf.c                         0x00000000   Number         0  __printf_nopercent.o ABSOLUTE
    ../clib/printf.c                         0x00000000   Number         0  _printf_fp_infnan.o ABSOLUTE
    ../clib/printf.c                         0x00000000   Number         0  __printf_flags.o ABSOLUTE
    ../clib/printf.c                         0x00000000   Number         0  __printf_ss.o ABSOLUTE
    ../clib/printf.c                         0x00000000   Number         0  _printf_intcommon.o ABSOLUTE
    ../clib/printf_percent.s                 0x00000000   Number         0  _printf_d.o ABSOLUTE
    ../clib/printf_percent.s                 0x00000000   Number         0  _printf_f.o ABSOLUTE
    ../clib/printf_percent.s                 0x00000000   Number         0  _printf_percent.o ABSOLUTE
    ../clib/printf_percent.s                 0x00000000   Number         0  _printf_percent_end.o ABSOLUTE
    ../clib/signal.c                         0x00000000   Number         0  defsig_stak_inner.o ABSOLUTE
    ../clib/signal.c                         0x00000000   Number         0  defsig_pvfn_inner.o ABSOLUTE
    ../clib/signal.c                         0x00000000   Number         0  defsig_rtmem_outer.o ABSOLUTE
    ../clib/signal.c                         0x00000000   Number         0  defsig_general.o ABSOLUTE
    ../clib/signal.c                         0x00000000   Number         0  defsig_exit.o ABSOLUTE
    ../clib/signal.c                         0x00000000   Number         0  defsig_abrt_inner.o ABSOLUTE
    ../clib/signal.c                         0x00000000   Number         0  defsig_rtmem_formal.o ABSOLUTE
    ../clib/signal.c                         0x00000000   Number         0  defsig_rtmem_inner.o ABSOLUTE
    ../clib/signal.c                         0x00000000   Number         0  defsig_other.o ABSOLUTE
    ../clib/signal.c                         0x00000000   Number         0  defsig_segv_inner.o ABSOLUTE
    ../clib/signal.c                         0x00000000   Number         0  defsig_cppl_inner.o ABSOLUTE
    ../clib/signal.c                         0x00000000   Number         0  defsig_rtred_inner.o ABSOLUTE
    ../clib/signal.c                         0x00000000   Number         0  defsig_fpe_inner.o ABSOLUTE
    ../clib/signal.c                         0x00000000   Number         0  __raise.o ABSOLUTE
    ../clib/signal.s                         0x00000000   Number         0  defsig.o ABSOLUTE
    ../clib/stdlib.c                         0x00000000   Number         0  exit.o ABSOLUTE
    ../fplib/basic.s                         0x00000000   Number         0  basic.o ABSOLUTE
    ../fplib/d2f.s                           0x00000000   Number         0  d2f.o ABSOLUTE
    ../fplib/daddsub.s                       0x00000000   Number         0  daddsub_clz.o ABSOLUTE
    ../fplib/dcmpi.s                         0x00000000   Number         0  dcmpi.o ABSOLUTE
    ../fplib/ddiv.s                          0x00000000   Number         0  ddiv.o ABSOLUTE
    ../fplib/dfix.s                          0x00000000   Number         0  dfix.o ABSOLUTE
    ../fplib/dflt.s                          0x00000000   Number         0  dflt_clz.o ABSOLUTE
    ../fplib/dleqf.s                         0x00000000   Number         0  dleqf.o ABSOLUTE
    ../fplib/dmul.s                          0x00000000   Number         0  dmul.o ABSOLUTE
    ../fplib/dnaninf.s                       0x00000000   Number         0  dnaninf.o ABSOLUTE
    ../fplib/dretinf.s                       0x00000000   Number         0  dretinf.o ABSOLUTE
    ../fplib/drleqf.s                        0x00000000   Number         0  drleqf.o ABSOLUTE
    ../fplib/dsqrt.s                         0x00000000   Number         0  dsqrt_umaal.o ABSOLUTE
    ../fplib/f2d.s                           0x00000000   Number         0  f2d.o ABSOLUTE
    ../fplib/fnaninf.s                       0x00000000   Number         0  fnaninf.o ABSOLUTE
    ../fplib/fpinit.s                        0x00000000   Number         0  fpinit.o ABSOLUTE
    ../fplib/fretinf.s                       0x00000000   Number         0  fretinf.o ABSOLUTE
    ../fplib/istatus.s                       0x00000000   Number         0  istatus.o ABSOLUTE
    ../fplib/printf1.s                       0x00000000   Number         0  printf1.o ABSOLUTE
    ../fplib/usenofp.s                       0x00000000   Number         0  usenofp.o ABSOLUTE
    ../mathlib/asin.c                        0x00000000   Number         0  asin.o ABSOLUTE
    ../mathlib/asin.c                        0x00000000   Number         0  asin_x.o ABSOLUTE
    ../mathlib/atan.c                        0x00000000   Number         0  atan.o ABSOLUTE
    ../mathlib/atan.c                        0x00000000   Number         0  atan_x.o ABSOLUTE
    ../mathlib/atan2.c                       0x00000000   Number         0  atan2.o ABSOLUTE
    ../mathlib/atan2.c                       0x00000000   Number         0  atan2_x.o ABSOLUTE
    ../mathlib/cos.c                         0x00000000   Number         0  cos.o ABSOLUTE
    ../mathlib/cos.c                         0x00000000   Number         0  cos_x.o ABSOLUTE
    ../mathlib/cos_i.c                       0x00000000   Number         0  cos_i.o ABSOLUTE
    ../mathlib/dunder.c                      0x00000000   Number         0  dunder.o ABSOLUTE
    ../mathlib/fabs.c                        0x00000000   Number         0  fabs.o ABSOLUTE
    ../mathlib/fpclassify.c                  0x00000000   Number         0  fpclassify.o ABSOLUTE
    ../mathlib/poly.c                        0x00000000   Number         0  poly.o ABSOLUTE
    ../mathlib/qnan.c                        0x00000000   Number         0  qnan.o ABSOLUTE
    ../mathlib/rred.c                        0x00000000   Number         0  rred.o ABSOLUTE
    ../mathlib/sin.c                         0x00000000   Number         0  sin.o ABSOLUTE
    ../mathlib/sin.c                         0x00000000   Number         0  sin_x.o ABSOLUTE
    ../mathlib/sin_i.c                       0x00000000   Number         0  sin_i_x.o ABSOLUTE
    ../mathlib/sin_i.c                       0x00000000   Number         0  sin_i.o ABSOLUTE
    ../mathlib/sqrt.c                        0x00000000   Number         0  sqrt.o ABSOLUTE
    ../mathlib/sqrt.c                        0x00000000   Number         0  sqrt_x.o ABSOLUTE
    ..\CORE\startup_stm32f40_41xxx.s         0x00000000   Number         0  startup_stm32f40_41xxx.o ABSOLUTE
    ..\FWLIB\src\misc.c                      0x00000000   Number         0  misc.o ABSOLUTE
    ..\FWLIB\src\stm32f4xx_can.c             0x00000000   Number         0  stm32f4xx_can.o ABSOLUTE
    ..\FWLIB\src\stm32f4xx_dma.c             0x00000000   Number         0  stm32f4xx_dma.o ABSOLUTE
    ..\FWLIB\src\stm32f4xx_exti.c            0x00000000   Number         0  stm32f4xx_exti.o ABSOLUTE
    ..\FWLIB\src\stm32f4xx_flash.c           0x00000000   Number         0  stm32f4xx_flash.o ABSOLUTE
    ..\FWLIB\src\stm32f4xx_gpio.c            0x00000000   Number         0  stm32f4xx_gpio.o ABSOLUTE
    ..\FWLIB\src\stm32f4xx_rcc.c             0x00000000   Number         0  stm32f4xx_rcc.o ABSOLUTE
    ..\FWLIB\src\stm32f4xx_spi.c             0x00000000   Number         0  stm32f4xx_spi.o ABSOLUTE
    ..\FWLIB\src\stm32f4xx_syscfg.c          0x00000000   Number         0  stm32f4xx_syscfg.o ABSOLUTE
    ..\FWLIB\src\stm32f4xx_tim.c             0x00000000   Number         0  stm32f4xx_tim.o ABSOLUTE
    ..\FWLIB\src\stm32f4xx_usart.c           0x00000000   Number         0  stm32f4xx_usart.o ABSOLUTE
    ..\FreeRTOS\croutine.c                   0x00000000   Number         0  croutine.o ABSOLUTE
    ..\FreeRTOS\event_groups.c               0x00000000   Number         0  event_groups.o ABSOLUTE
    ..\FreeRTOS\list.c                       0x00000000   Number         0  list.o ABSOLUTE
    ..\FreeRTOS\portable\MemMang\heap_4.c    0x00000000   Number         0  heap_4.o ABSOLUTE
    ..\FreeRTOS\portable\RVDS\ARM_CM4F\port.c 0x00000000   Number         0  port.o ABSOLUTE
    ..\FreeRTOS\queue.c                      0x00000000   Number         0  queue.o ABSOLUTE
    ..\FreeRTOS\tasks.c                      0x00000000   Number         0  tasks.o ABSOLUTE
    ..\FreeRTOS\timers.c                     0x00000000   Number         0  timers.o ABSOLUTE
    ..\HARDWARE\beep.c                       0x00000000   Number         0  beep.o ABSOLUTE
    ..\HARDWARE\bmi088.c                     0x00000000   Number         0  bmi088.o ABSOLUTE
    ..\HARDWARE\bmi088driver.c               0x00000000   Number         0  bmi088driver.o ABSOLUTE
    ..\HARDWARE\can.c                        0x00000000   Number         0  can.o ABSOLUTE
    ..\HARDWARE\can_handle.c                 0x00000000   Number         0  can_handle.o ABSOLUTE
    ..\HARDWARE\chassis.c                    0x00000000   Number         0  chassis.o ABSOLUTE
    ..\HARDWARE\cover.c                      0x00000000   Number         0  cover.o ABSOLUTE
    ..\HARDWARE\crc.c                        0x00000000   Number         0  crc.o ABSOLUTE
    ..\HARDWARE\custom_ui.c                  0x00000000   Number         0  custom_ui.o ABSOLUTE
    ..\HARDWARE\dr16.c                       0x00000000   Number         0  dr16.o ABSOLUTE
    ..\HARDWARE\flash.c                      0x00000000   Number         0  flash.o ABSOLUTE
    ..\HARDWARE\gimbal.c                     0x00000000   Number         0  gimbal.o ABSOLUTE
    ..\HARDWARE\imu.c                        0x00000000   Number         0  imu.o ABSOLUTE
    ..\HARDWARE\laser.c                      0x00000000   Number         0  laser.o ABSOLUTE
    ..\HARDWARE\led.c                        0x00000000   Number         0  led.o ABSOLUTE
    ..\HARDWARE\nuc.c                        0x00000000   Number         0  nuc.o ABSOLUTE
    ..\HARDWARE\pid.c                        0x00000000   Number         0  pid.o ABSOLUTE
    ..\HARDWARE\referee.c                    0x00000000   Number         0  referee.o ABSOLUTE
    ..\HARDWARE\referee_info.c               0x00000000   Number         0  referee_info.o ABSOLUTE
    ..\HARDWARE\shoot.c                      0x00000000   Number         0  shoot.o ABSOLUTE
    ..\HARDWARE\spi.c                        0x00000000   Number         0  spi.o ABSOLUTE
    ..\HARDWARE\tim6.c                       0x00000000   Number         0  tim6.o ABSOLUTE
    ..\SYSTEM\delay\delay.c                  0x00000000   Number         0  delay.o ABSOLUTE
    ..\SYSTEM\sys\sys.c                      0x00000000   Number         0  sys.o ABSOLUTE
    ..\SYSTEM\usart\usart.c                  0x00000000   Number         0  usart.o ABSOLUTE
    ..\TASK\can_send_task.c                  0x00000000   Number         0  can_send_task.o ABSOLUTE
    ..\TASK\chassis_task.c                   0x00000000   Number         0  chassis_task.o ABSOLUTE
    ..\TASK\gimbal_task.c                    0x00000000   Number         0  gimbal_task.o ABSOLUTE
    ..\TASK\imu_task.c                       0x00000000   Number         0  imu_task.o ABSOLUTE
    ..\TASK\led_task.c                       0x00000000   Number         0  led_task.o ABSOLUTE
    ..\TASK\mode_task.c                      0x00000000   Number         0  mode_task.o ABSOLUTE
    ..\TASK\nuc_task.c                       0x00000000   Number         0  nuc_task.o ABSOLUTE
    ..\TASK\shoot_task.c                     0x00000000   Number         0  shoot_task.o ABSOLUTE
    ..\TASK\supercap_task.c                  0x00000000   Number         0  supercap_task.o ABSOLUTE
    ..\TASK\task_init.c                      0x00000000   Number         0  task_init.o ABSOLUTE
    ..\TASK\ui_task.c                        0x00000000   Number         0  ui_task.o ABSOLUTE
    ..\TOOL\kalman.c                         0x00000000   Number         0  kalman.o ABSOLUTE
    ..\TOOL\ramp.c                           0x00000000   Number         0  ramp.o ABSOLUTE
    ..\\FWLIB\\src\\misc.c                   0x00000000   Number         0  misc.o ABSOLUTE
    ..\\FWLIB\\src\\stm32f4xx_can.c          0x00000000   Number         0  stm32f4xx_can.o ABSOLUTE
    ..\\FWLIB\\src\\stm32f4xx_dma.c          0x00000000   Number         0  stm32f4xx_dma.o ABSOLUTE
    ..\\FWLIB\\src\\stm32f4xx_exti.c         0x00000000   Number         0  stm32f4xx_exti.o ABSOLUTE
    ..\\FWLIB\\src\\stm32f4xx_flash.c        0x00000000   Number         0  stm32f4xx_flash.o ABSOLUTE
    ..\\FWLIB\\src\\stm32f4xx_gpio.c         0x00000000   Number         0  stm32f4xx_gpio.o ABSOLUTE
    ..\\FWLIB\\src\\stm32f4xx_rcc.c          0x00000000   Number         0  stm32f4xx_rcc.o ABSOLUTE
    ..\\FWLIB\\src\\stm32f4xx_spi.c          0x00000000   Number         0  stm32f4xx_spi.o ABSOLUTE
    ..\\FWLIB\\src\\stm32f4xx_syscfg.c       0x00000000   Number         0  stm32f4xx_syscfg.o ABSOLUTE
    ..\\FWLIB\\src\\stm32f4xx_tim.c          0x00000000   Number         0  stm32f4xx_tim.o ABSOLUTE
    ..\\FWLIB\\src\\stm32f4xx_usart.c        0x00000000   Number         0  stm32f4xx_usart.o ABSOLUTE
    ..\\FreeRTOS\\portable\\RVDS\\ARM_CM4F\\port.c 0x00000000   Number         0  port.o ABSOLUTE
    ..\\HARDWARE\\beep.c                     0x00000000   Number         0  beep.o ABSOLUTE
    ..\\HARDWARE\\bmi088.c                   0x00000000   Number         0  bmi088.o ABSOLUTE
    ..\\HARDWARE\\bmi088driver.c             0x00000000   Number         0  bmi088driver.o ABSOLUTE
    ..\\HARDWARE\\can.c                      0x00000000   Number         0  can.o ABSOLUTE
    ..\\HARDWARE\\can_handle.c               0x00000000   Number         0  can_handle.o ABSOLUTE
    ..\\HARDWARE\\chassis.c                  0x00000000   Number         0  chassis.o ABSOLUTE
    ..\\HARDWARE\\cover.c                    0x00000000   Number         0  cover.o ABSOLUTE
    ..\\HARDWARE\\crc.c                      0x00000000   Number         0  crc.o ABSOLUTE
    ..\\HARDWARE\\custom_ui.c                0x00000000   Number         0  custom_ui.o ABSOLUTE
    ..\\HARDWARE\\dr16.c                     0x00000000   Number         0  dr16.o ABSOLUTE
    ..\\HARDWARE\\flash.c                    0x00000000   Number         0  flash.o ABSOLUTE
    ..\\HARDWARE\\gimbal.c                   0x00000000   Number         0  gimbal.o ABSOLUTE
    ..\\HARDWARE\\imu.c                      0x00000000   Number         0  imu.o ABSOLUTE
    ..\\HARDWARE\\laser.c                    0x00000000   Number         0  laser.o ABSOLUTE
    ..\\HARDWARE\\led.c                      0x00000000   Number         0  led.o ABSOLUTE
    ..\\HARDWARE\\nuc.c                      0x00000000   Number         0  nuc.o ABSOLUTE
    ..\\HARDWARE\\pid.c                      0x00000000   Number         0  pid.o ABSOLUTE
    ..\\HARDWARE\\referee.c                  0x00000000   Number         0  referee.o ABSOLUTE
    ..\\HARDWARE\\referee_info.c             0x00000000   Number         0  referee_info.o ABSOLUTE
    ..\\HARDWARE\\shoot.c                    0x00000000   Number         0  shoot.o ABSOLUTE
    ..\\HARDWARE\\spi.c                      0x00000000   Number         0  spi.o ABSOLUTE
    ..\\HARDWARE\\tim6.c                     0x00000000   Number         0  tim6.o ABSOLUTE
    ..\\SYSTEM\\delay\\delay.c               0x00000000   Number         0  delay.o ABSOLUTE
    ..\\SYSTEM\\sys\\sys.c                   0x00000000   Number         0  sys.o ABSOLUTE
    ..\\SYSTEM\\usart\\usart.c               0x00000000   Number         0  usart.o ABSOLUTE
    ..\\TASK\\can_send_task.c                0x00000000   Number         0  can_send_task.o ABSOLUTE
    ..\\TASK\\chassis_task.c                 0x00000000   Number         0  chassis_task.o ABSOLUTE
    ..\\TASK\\gimbal_task.c                  0x00000000   Number         0  gimbal_task.o ABSOLUTE
    ..\\TASK\\imu_task.c                     0x00000000   Number         0  imu_task.o ABSOLUTE
    ..\\TASK\\led_task.c                     0x00000000   Number         0  led_task.o ABSOLUTE
    ..\\TASK\\mode_task.c                    0x00000000   Number         0  mode_task.o ABSOLUTE
    ..\\TASK\\nuc_task.c                     0x00000000   Number         0  nuc_task.o ABSOLUTE
    ..\\TASK\\shoot_task.c                   0x00000000   Number         0  shoot_task.o ABSOLUTE
    ..\\TASK\\supercap_task.c                0x00000000   Number         0  supercap_task.o ABSOLUTE
    ..\\TASK\\task_init.c                    0x00000000   Number         0  task_init.o ABSOLUTE
    ..\\TASK\\ui_task.c                      0x00000000   Number         0  ui_task.o ABSOLUTE
    ..\\TOOL\\kalman.c                       0x00000000   Number         0  kalman.o ABSOLUTE
    ..\\TOOL\\ramp.c                         0x00000000   Number         0  ramp.o ABSOLUTE
    dc.s                                     0x00000000   Number         0  dc.o ABSOLUTE
    limit.c                                  0x00000000   Number         0  limit.o ABSOLUTE
    limit.c                                  0x00000000   Number         0  limit.o ABSOLUTE
    main.c                                   0x00000000   Number         0  main.o ABSOLUTE
    main.c                                   0x00000000   Number         0  main.o ABSOLUTE
    stm32f4xx_it.c                           0x00000000   Number         0  stm32f4xx_it.o ABSOLUTE
    stm32f4xx_it.c                           0x00000000   Number         0  stm32f4xx_it.o ABSOLUTE
    system_stm32f4xx.c                       0x00000000   Number         0  system_stm32f4xx.o ABSOLUTE
    system_stm32f4xx.c                       0x00000000   Number         0  system_stm32f4xx.o ABSOLUTE
    RESET                                    0x08000000   Section      392  startup_stm32f40_41xxx.o(RESET)
    !!!main                                  0x08000188   Section        8  __main.o(!!!main)
    !!!scatter                               0x08000190   Section       52  __scatter.o(!!!scatter)
    !!dczerorl2                              0x080001c4   Section       90  __dczerorl2.o(!!dczerorl2)
    !!handler_zi                             0x08000220   Section       28  __scatter_zi.o(!!handler_zi)
    .ARM.Collect$$_printf_percent$$00000000  0x0800023c   Section        0  _printf_percent.o(.ARM.Collect$$_printf_percent$$00000000)
    .ARM.Collect$$_printf_percent$$00000003  0x0800023c   Section        6  _printf_f.o(.ARM.Collect$$_printf_percent$$00000003)
    .ARM.Collect$$_printf_percent$$00000009  0x08000242   Section        6  _printf_d.o(.ARM.Collect$$_printf_percent$$00000009)
    .ARM.Collect$$_printf_percent$$00000017  0x08000248   Section        4  _printf_percent_end.o(.ARM.Collect$$_printf_percent$$00000017)
    .ARM.Collect$$libinit$$00000000          0x0800024c   Section        2  libinit.o(.ARM.Collect$$libinit$$00000000)
    .ARM.Collect$$libinit$$00000001          0x0800024e   Section        4  libinit2.o(.ARM.Collect$$libinit$$00000001)
    .ARM.Collect$$libinit$$00000004          0x08000252   Section        0  libinit2.o(.ARM.Collect$$libinit$$00000004)
    .ARM.Collect$$libinit$$0000000A          0x08000252   Section        0  libinit2.o(.ARM.Collect$$libinit$$0000000A)
    .ARM.Collect$$libinit$$0000000C          0x08000252   Section        0  libinit2.o(.ARM.Collect$$libinit$$0000000C)
    .ARM.Collect$$libinit$$0000000E          0x08000252   Section        0  libinit2.o(.ARM.Collect$$libinit$$0000000E)
    .ARM.Collect$$libinit$$0000000F          0x08000252   Section        6  libinit2.o(.ARM.Collect$$libinit$$0000000F)
    .ARM.Collect$$libinit$$00000011          0x08000258   Section        0  libinit2.o(.ARM.Collect$$libinit$$00000011)
    .ARM.Collect$$libinit$$00000013          0x08000258   Section        0  libinit2.o(.ARM.Collect$$libinit$$00000013)
    .ARM.Collect$$libinit$$00000015          0x08000258   Section        0  libinit2.o(.ARM.Collect$$libinit$$00000015)
    .ARM.Collect$$libinit$$00000016          0x08000258   Section       10  libinit2.o(.ARM.Collect$$libinit$$00000016)
    .ARM.Collect$$libinit$$00000017          0x08000262   Section        0  libinit2.o(.ARM.Collect$$libinit$$00000017)
    .ARM.Collect$$libinit$$00000019          0x08000262   Section        0  libinit2.o(.ARM.Collect$$libinit$$00000019)
    .ARM.Collect$$libinit$$0000001B          0x08000262   Section        0  libinit2.o(.ARM.Collect$$libinit$$0000001B)
    .ARM.Collect$$libinit$$0000001D          0x08000262   Section        0  libinit2.o(.ARM.Collect$$libinit$$0000001D)
    .ARM.Collect$$libinit$$0000001F          0x08000262   Section        0  libinit2.o(.ARM.Collect$$libinit$$0000001F)
    .ARM.Collect$$libinit$$00000021          0x08000262   Section        0  libinit2.o(.ARM.Collect$$libinit$$00000021)
    .ARM.Collect$$libinit$$00000023          0x08000262   Section        0  libinit2.o(.ARM.Collect$$libinit$$00000023)
    .ARM.Collect$$libinit$$00000025          0x08000262   Section        0  libinit2.o(.ARM.Collect$$libinit$$00000025)
    .ARM.Collect$$libinit$$0000002C          0x08000262   Section        0  libinit2.o(.ARM.Collect$$libinit$$0000002C)
    .ARM.Collect$$libinit$$0000002E          0x08000262   Section        0  libinit2.o(.ARM.Collect$$libinit$$0000002E)
    .ARM.Collect$$libinit$$00000030          0x08000262   Section        0  libinit2.o(.ARM.Collect$$libinit$$00000030)
    .ARM.Collect$$libinit$$00000032          0x08000262   Section        0  libinit2.o(.ARM.Collect$$libinit$$00000032)
    .ARM.Collect$$libinit$$00000033          0x08000262   Section        2  libinit2.o(.ARM.Collect$$libinit$$00000033)
    .ARM.Collect$$libshutdown$$00000000      0x08000264   Section        2  libshutdown.o(.ARM.Collect$$libshutdown$$00000000)
    .ARM.Collect$$libshutdown$$00000002      0x08000266   Section        0  libshutdown2.o(.ARM.Collect$$libshutdown$$00000002)
    .ARM.Collect$$libshutdown$$00000004      0x08000266   Section        0  libshutdown2.o(.ARM.Collect$$libshutdown$$00000004)
    .ARM.Collect$$libshutdown$$00000007      0x08000266   Section        0  libshutdown2.o(.ARM.Collect$$libshutdown$$00000007)
    .ARM.Collect$$libshutdown$$0000000A      0x08000266   Section        0  libshutdown2.o(.ARM.Collect$$libshutdown$$0000000A)
    .ARM.Collect$$libshutdown$$0000000C      0x08000266   Section        0  libshutdown2.o(.ARM.Collect$$libshutdown$$0000000C)
    .ARM.Collect$$libshutdown$$0000000F      0x08000266   Section        0  libshutdown2.o(.ARM.Collect$$libshutdown$$0000000F)
    .ARM.Collect$$libshutdown$$00000010      0x08000266   Section        2  libshutdown2.o(.ARM.Collect$$libshutdown$$00000010)
    .ARM.Collect$$rtentry$$00000000          0x08000268   Section        0  __rtentry.o(.ARM.Collect$$rtentry$$00000000)
    .ARM.Collect$$rtentry$$00000002          0x08000268   Section        0  __rtentry2.o(.ARM.Collect$$rtentry$$00000002)
    .ARM.Collect$$rtentry$$00000004          0x08000268   Section        6  __rtentry4.o(.ARM.Collect$$rtentry$$00000004)
    .ARM.Collect$$rtentry$$00000009          0x0800026e   Section        0  __rtentry2.o(.ARM.Collect$$rtentry$$00000009)
    .ARM.Collect$$rtentry$$0000000A          0x0800026e   Section        4  __rtentry2.o(.ARM.Collect$$rtentry$$0000000A)
    .ARM.Collect$$rtentry$$0000000C          0x08000272   Section        0  __rtentry2.o(.ARM.Collect$$rtentry$$0000000C)
    .ARM.Collect$$rtentry$$0000000D          0x08000272   Section        8  __rtentry2.o(.ARM.Collect$$rtentry$$0000000D)
    .ARM.Collect$$rtexit$$00000000           0x0800027a   Section        2  rtexit.o(.ARM.Collect$$rtexit$$00000000)
    .ARM.Collect$$rtexit$$00000002           0x0800027c   Section        0  rtexit2.o(.ARM.Collect$$rtexit$$00000002)
    .ARM.Collect$$rtexit$$00000003           0x0800027c   Section        4  rtexit2.o(.ARM.Collect$$rtexit$$00000003)
    .ARM.Collect$$rtexit$$00000004           0x08000280   Section        6  rtexit2.o(.ARM.Collect$$rtexit$$00000004)
    .emb_text                                0x08000288   Section      182  port.o(.emb_text)
    $v0                                      0x08000288   Number         0  port.o(.emb_text)
    .text                                    0x08000340   Section       64  startup_stm32f40_41xxx.o(.text)
    $v0                                      0x08000340   Number         0  startup_stm32f40_41xxx.o(.text)
    .text                                    0x08000380   Section        2  use_no_semi_2.o(.text)
    .text                                    0x08000384   Section        0  noretval__2sprintf.o(.text)
    .text                                    0x080003ac   Section        0  _printf_dec.o(.text)
    .text                                    0x08000424   Section        0  __printf_wp.o(.text)
    .text                                    0x08000532   Section      138  rt_memcpy_v6.o(.text)
    .text                                    0x080005bc   Section       16  aeabi_memset.o(.text)
    .text                                    0x080005cc   Section       68  rt_memclr.o(.text)
    .text                                    0x08000610   Section       78  rt_memclr_w.o(.text)
    .text                                    0x0800065e   Section        0  heapauxi.o(.text)
    .text                                    0x08000664   Section        2  use_no_semi.o(.text)
    .text                                    0x08000666   Section        0  _rserrno.o(.text)
    .text                                    0x0800067c   Section        0  _printf_intcommon.o(.text)
    .text                                    0x0800072e   Section        0  _printf_fp_dec.o(.text)
    _fp_digits                               0x08000731   Thumb Code   432  _printf_fp_dec.o(.text)
    .text                                    0x08000b4c   Section        0  _printf_char_common.o(.text)
    _printf_input_char                       0x08000b4d   Thumb Code    10  _printf_char_common.o(.text)
    .text                                    0x08000b7c   Section        0  _sputc.o(.text)
    .text                                    0x08000b86   Section      100  rt_memcpy_w.o(.text)
    .text                                    0x08000bec   Section        8  rt_locale_intlibspace.o(.text)
    .text                                    0x08000bf4   Section        8  rt_errno_addr_intlibspace.o(.text)
    .text                                    0x08000bfc   Section      138  lludiv10.o(.text)
    .text                                    0x08000c88   Section        0  _printf_fp_infnan.o(.text)
    .text                                    0x08000d08   Section        0  bigflt0.o(.text)
    .text                                    0x08000dec   Section        8  libspace.o(.text)
    .text                                    0x08000df4   Section       74  sys_stackheap_outer.o(.text)
    .text                                    0x08000e3e   Section        0  exit.o(.text)
    .text                                    0x08000e50   Section      128  strcmpv7m.o(.text)
    CL$$btod_d2e                             0x08000ed0   Section       62  btod.o(CL$$btod_d2e)
    CL$$btod_d2e_denorm_low                  0x08000f0e   Section       70  btod.o(CL$$btod_d2e_denorm_low)
    CL$$btod_d2e_norm_op1                    0x08000f54   Section       96  btod.o(CL$$btod_d2e_norm_op1)
    CL$$btod_div_common                      0x08000fb4   Section      824  btod.o(CL$$btod_div_common)
    CL$$btod_e2e                             0x080012ec   Section      220  btod.o(CL$$btod_e2e)
    CL$$btod_ediv                            0x080013c8   Section       42  btod.o(CL$$btod_ediv)
    CL$$btod_emul                            0x080013f2   Section       42  btod.o(CL$$btod_emul)
    CL$$btod_mult_common                     0x0800141c   Section      580  btod.o(CL$$btod_mult_common)
    i.Angle_Correct_Get                      0x08001660   Section        0  gimbal.o(i.Angle_Correct_Get)
    Angle_Correct_Get                        0x08001661   Thumb Code    16  gimbal.o(i.Angle_Correct_Get)
    i.Append_CRC16_Check_Sum                 0x08001670   Section        0  crc.o(i.Append_CRC16_Check_Sum)
    i.Append_CRC8_Check_Sum                  0x080016a0   Section        0  crc.o(i.Append_CRC8_Check_Sum)
    i.BMI088_ACCEL_NS_H                      0x080016c8   Section        0  bmi088driver.o(i.BMI088_ACCEL_NS_H)
    i.BMI088_ACCEL_NS_L                      0x080016d8   Section        0  bmi088driver.o(i.BMI088_ACCEL_NS_L)
    i.BMI088_GYRO_NS_H                       0x080016e8   Section        0  bmi088driver.o(i.BMI088_GYRO_NS_H)
    i.BMI088_GYRO_NS_L                       0x080016f8   Section        0  bmi088driver.o(i.BMI088_GYRO_NS_L)
    i.BMI088_Get_Data                        0x08001708   Section        0  bmi088driver.o(i.BMI088_Get_Data)
    i.BMI088_Offset_Cali                     0x080018bc   Section        0  bmi088driver.o(i.BMI088_Offset_Cali)
    i.BMI088_SPI_Init                        0x08001a10   Section        0  bmi088.o(i.BMI088_SPI_Init)
    i.BMI088_init                            0x08001b50   Section        0  bmi088driver.o(i.BMI088_init)
    i.BMI088_read_muli_reg                   0x08001b72   Section        0  bmi088driver.o(i.BMI088_read_muli_reg)
    BMI088_read_muli_reg                     0x08001b73   Thumb Code    38  bmi088driver.o(i.BMI088_read_muli_reg)
    i.BMI088_read_single_reg                 0x08001b98   Section        0  bmi088driver.o(i.BMI088_read_single_reg)
    BMI088_read_single_reg                   0x08001b99   Thumb Code    24  bmi088driver.o(i.BMI088_read_single_reg)
    i.BMI088_read_write_byte                 0x08001bb0   Section        0  bmi088driver.o(i.BMI088_read_write_byte)
    i.BMI088_write_single_reg                0x08001be8   Section        0  bmi088driver.o(i.BMI088_write_single_reg)
    BMI088_write_single_reg                  0x08001be9   Thumb Code    20  bmi088driver.o(i.BMI088_write_single_reg)
    i.BSP_Init                               0x08001bfc   Section        0  main.o(i.BSP_Init)
    i.Beep_Ctrl                              0x08001c38   Section        0  beep.o(i.Beep_Ctrl)
    i.Beep_Init                              0x08001c48   Section        0  beep.o(i.Beep_Init)
    i.Bullet_Block_Control                   0x08001ce8   Section        0  shoot_task.o(i.Bullet_Block_Control)
    i.BusFault_Handler                       0x08001d80   Section        0  stm32f4xx_it.o(i.BusFault_Handler)
    i.CAN12_Init                             0x08001d84   Section        0  can.o(i.CAN12_Init)
    i.CAN1_Init                              0x08001d90   Section        0  can.o(i.CAN1_Init)
    i.CAN1_RX0_IRQHandler                    0x08001eac   Section        0  can_handle.o(i.CAN1_RX0_IRQHandler)
    i.CAN1_TX_Chassis                        0x08002094   Section        0  can_handle.o(i.CAN1_TX_Chassis)
    i.CAN1_TX_Gimbal_Pitch                   0x08002134   Section        0  can_handle.o(i.CAN1_TX_Gimbal_Pitch)
    i.CAN1_TX_Gimbal_Yaw                     0x080021bc   Section        0  can_handle.o(i.CAN1_TX_Gimbal_Yaw)
    i.CAN1_TX_IRQHandler                     0x08002250   Section        0  can_handle.o(i.CAN1_TX_IRQHandler)
    i.CAN1_TX_SuperCap                       0x08002274   Section        0  can_handle.o(i.CAN1_TX_SuperCap)
    i.CAN2_Init                              0x080023dc   Section        0  can.o(i.CAN2_Init)
    i.CAN2_RX0_IRQHandler                    0x08002504   Section        0  can_handle.o(i.CAN2_RX0_IRQHandler)
    i.CAN2_TX_IRQHandler                     0x08002578   Section        0  can_handle.o(i.CAN2_TX_IRQHandler)
    i.CAN2_TX_Shoot                          0x0800259c   Section        0  can_handle.o(i.CAN2_TX_Shoot)
    i.CAN_ClearITPendingBit                  0x0800262c   Section        0  stm32f4xx_can.o(i.CAN_ClearITPendingBit)
    i.CAN_Data_Decode                        0x080026d4   Section        0  can_handle.o(i.CAN_Data_Decode)
    i.CAN_DeInit                             0x08002724   Section        0  stm32f4xx_can.o(i.CAN_DeInit)
    i.CAN_FilterInit                         0x0800275c   Section        0  stm32f4xx_can.o(i.CAN_FilterInit)
    i.CAN_GetITStatus                        0x08002864   Section        0  stm32f4xx_can.o(i.CAN_GetITStatus)
    i.CAN_ITConfig                           0x08002984   Section        0  stm32f4xx_can.o(i.CAN_ITConfig)
    i.CAN_Init                               0x08002996   Section        0  stm32f4xx_can.o(i.CAN_Init)
    i.CAN_Receive                            0x08002aaa   Section        0  stm32f4xx_can.o(i.CAN_Receive)
    i.CAN_StructInit                         0x08002b9a   Section        0  stm32f4xx_can.o(i.CAN_StructInit)
    i.CAN_Transmit                           0x08002bba   Section        0  stm32f4xx_can.o(i.CAN_Transmit)
    i.Chassis_Follow_Control                 0x08002ce0   Section        0  chassis_task.o(i.Chassis_Follow_Control)
    i.Chassis_Init                           0x08002ff0   Section        0  chassis.o(i.Chassis_Init)
    i.Chassis_Power_Limit                    0x080030a4   Section        0  chassis_task.o(i.Chassis_Power_Limit)
    i.Chassis_Rotate_Control                 0x08003138   Section        0  chassis_task.o(i.Chassis_Rotate_Control)
    i.Chassis_Speed_Calc                     0x08003380   Section        0  chassis_task.o(i.Chassis_Speed_Calc)
    i.Chassis_Stop_Control                   0x08003488   Section        0  chassis_task.o(i.Chassis_Stop_Control)
    i.Chassis_SuperCap_Control               0x080034ac   Section        0  chassis_task.o(i.Chassis_SuperCap_Control)
    i.Chassis_SuperCap_HomeMade_Control      0x08003514   Section        0  chassis_task.o(i.Chassis_SuperCap_HomeMade_Control)
    i.Chassis_SuperCap_Wulie_Control         0x080035c4   Section        0  chassis_task.o(i.Chassis_SuperCap_Wulie_Control)
    i.CheckITStatus                          0x08003778   Section        0  stm32f4xx_can.o(i.CheckITStatus)
    CheckITStatus                            0x08003779   Thumb Code    18  stm32f4xx_can.o(i.CheckITStatus)
    i.DMA2_Stream7_IRQHandler                0x0800378c   Section        0  nuc.o(i.DMA2_Stream7_IRQHandler)
    i.DMA_ClearITPendingBit                  0x080037bc   Section        0  stm32f4xx_dma.o(i.DMA_ClearITPendingBit)
    i.DMA_Cmd                                0x080037f0   Section        0  stm32f4xx_dma.o(i.DMA_Cmd)
    i.DMA_DeInit                             0x08003808   Section        0  stm32f4xx_dma.o(i.DMA_DeInit)
    i.DMA_DoubleBufferModeCmd                0x08003960   Section        0  stm32f4xx_dma.o(i.DMA_DoubleBufferModeCmd)
    i.DMA_DoubleBufferModeConfig             0x08003976   Section        0  stm32f4xx_dma.o(i.DMA_DoubleBufferModeConfig)
    i.DMA_GetCurrDataCounter                 0x0800398e   Section        0  stm32f4xx_dma.o(i.DMA_GetCurrDataCounter)
    i.DMA_GetCurrentMemoryTarget             0x08003996   Section        0  stm32f4xx_dma.o(i.DMA_GetCurrentMemoryTarget)
    i.DMA_GetITStatus                        0x080039ac   Section        0  stm32f4xx_dma.o(i.DMA_GetITStatus)
    i.DMA_ITConfig                           0x08003a10   Section        0  stm32f4xx_dma.o(i.DMA_ITConfig)
    i.DMA_Init                               0x08003a4c   Section        0  stm32f4xx_dma.o(i.DMA_Init)
    i.DMA_SetCurrDataCounter                 0x08003aa4   Section        0  stm32f4xx_dma.o(i.DMA_SetCurrDataCounter)
    i.DR16_DataDecode                        0x08003aa8   Section        0  dr16.o(i.DR16_DataDecode)
    i.DR16_Init                              0x08003b7c   Section        0  dr16.o(i.DR16_Init)
    i.DR16_USART_DMA_Init                    0x08003b8c   Section        0  dr16.o(i.DR16_USART_DMA_Init)
    i.DR16_USART_Init                        0x08003c1c   Section        0  dr16.o(i.DR16_USART_Init)
    i.DR16_USART_NVIC_Init                   0x08003cb8   Section        0  dr16.o(i.DR16_USART_NVIC_Init)
    i.DebugMon_Handler                       0x08003cda   Section        0  stm32f4xx_it.o(i.DebugMon_Handler)
    i.Draw_Char                              0x08003cdc   Section        0  custom_ui.o(i.Draw_Char)
    i.Draw_Circle                            0x08003dd4   Section        0  custom_ui.o(i.Draw_Circle)
    i.Draw_Float                             0x08003e98   Section        0  custom_ui.o(i.Draw_Float)
    i.Draw_Int                               0x08003f70   Section        0  custom_ui.o(i.Draw_Int)
    i.Draw_Line                              0x0800403c   Section        0  custom_ui.o(i.Draw_Line)
    i.EXTI9_5_IRQHandler                     0x08004108   Section        0  imu.o(i.EXTI9_5_IRQHandler)
    i.EXTI_ClearITPendingBit                 0x0800411c   Section        0  stm32f4xx_exti.o(i.EXTI_ClearITPendingBit)
    i.EXTI_GetITStatus                       0x08004128   Section        0  stm32f4xx_exti.o(i.EXTI_GetITStatus)
    i.Encoder_Data_Process                   0x08004140   Section        0  gimbal.o(i.Encoder_Data_Process)
    i.FLASH_DataCacheCmd                     0x08004160   Section        0  stm32f4xx_flash.o(i.FLASH_DataCacheCmd)
    i.FLASH_EraseSector                      0x08004184   Section        0  stm32f4xx_flash.o(i.FLASH_EraseSector)
    i.FLASH_GetStatus                        0x0800420c   Section        0  stm32f4xx_flash.o(i.FLASH_GetStatus)
    i.FLASH_Lock                             0x08004260   Section        0  stm32f4xx_flash.o(i.FLASH_Lock)
    i.FLASH_ProgramWord                      0x08004274   Section        0  stm32f4xx_flash.o(i.FLASH_ProgramWord)
    i.FLASH_Unlock                           0x080042c4   Section        0  stm32f4xx_flash.o(i.FLASH_Unlock)
    i.FLASH_WaitForLastOperation             0x080042e8   Section        0  stm32f4xx_flash.o(i.FLASH_WaitForLastOperation)
    i.GPIO_Init                              0x0800430a   Section        0  stm32f4xx_gpio.o(i.GPIO_Init)
    i.GPIO_PinAFConfig                       0x0800439a   Section        0  stm32f4xx_gpio.o(i.GPIO_PinAFConfig)
    i.GPIO_ReadInputDataBit                  0x080043e0   Section        0  stm32f4xx_gpio.o(i.GPIO_ReadInputDataBit)
    i.GPIO_ResetBits                         0x080043f2   Section        0  stm32f4xx_gpio.o(i.GPIO_ResetBits)
    i.GPIO_SetBits                           0x080043f6   Section        0  stm32f4xx_gpio.o(i.GPIO_SetBits)
    i.GPIO_ToggleBits                        0x080043fa   Section        0  stm32f4xx_gpio.o(i.GPIO_ToggleBits)
    i.Get_CRC16_Check_Sum                    0x08004404   Section        0  crc.o(i.Get_CRC16_Check_Sum)
    i.Get_CRC8_Check_Sum                     0x08004438   Section        0  crc.o(i.Get_CRC8_Check_Sum)
    i.Get_Chassis_Keyboard                   0x0800445c   Section        0  mode_task.o(i.Get_Chassis_Keyboard)
    i.Get_Chassis_Mode                       0x080045cc   Section        0  mode_task.o(i.Get_Chassis_Mode)
    i.Get_Chassis_RC                         0x0800465c   Section        0  mode_task.o(i.Get_Chassis_RC)
    i.Get_Gimbal_Mode                        0x080046e0   Section        0  mode_task.o(i.Get_Gimbal_Mode)
    i.Get_Keyboard_Mode                      0x08004734   Section        0  mode_task.o(i.Get_Keyboard_Mode)
    i.Get_Shoot_Mode                         0x08004800   Section        0  mode_task.o(i.Get_Shoot_Mode)
    i.Gimbal_Angle_Calibrate                 0x08004980   Section        0  gimbal.o(i.Gimbal_Angle_Calibrate)
    i.Gimbal_Angle_Read                      0x08004b08   Section        0  gimbal.o(i.Gimbal_Angle_Read)
    i.Gimbal_AutoAim_Control                 0x08004b84   Section        0  gimbal_task.o(i.Gimbal_AutoAim_Control)
    i.Gimbal_Follow_Control                  0x08004e5c   Section        0  gimbal_task.o(i.Gimbal_Follow_Control)
    i.Gimbal_Init                            0x08005140   Section        0  gimbal.o(i.Gimbal_Init)
    i.Gimbal_Stop_Control                    0x080055c0   Section        0  gimbal_task.o(i.Gimbal_Stop_Control)
    i.HardFault_Handler                      0x080055d4   Section        0  stm32f4xx_it.o(i.HardFault_Handler)
    i.IMU_Ahrs_Update                        0x080055d8   Section        0  imu.o(i.IMU_Ahrs_Update)
    i.IMU_Attitude_Update                    0x08005d48   Section        0  imu.o(i.IMU_Attitude_Update)
    i.LED_Init                               0x08005f50   Section        0  led.o(i.LED_Init)
    i.LED_Run                                0x08005f8c   Section        0  led.o(i.LED_Run)
    i.Laser_Init                             0x08005fa0   Section        0  laser.o(i.Laser_Init)
    i.MemManage_Handler                      0x08005fdc   Section        0  stm32f4xx_it.o(i.MemManage_Handler)
    i.NMI_Handler                            0x08005fe0   Section        0  stm32f4xx_it.o(i.NMI_Handler)
    i.NUC_Data_Decode                        0x08005fe4   Section        0  nuc.o(i.NUC_Data_Decode)
    i.NUC_Init                               0x0800605c   Section        0  nuc.o(i.NUC_Init)
    i.NUC_Send_Data                          0x0800606c   Section        0  nuc.o(i.NUC_Send_Data)
    i.NUC_USART_DMA_Init                     0x0800624c   Section        0  nuc.o(i.NUC_USART_DMA_Init)
    i.NUC_USART_Init                         0x0800633c   Section        0  nuc.o(i.NUC_USART_Init)
    i.NUC_USART_NVIC_Init                    0x080063f8   Section        0  nuc.o(i.NUC_USART_NVIC_Init)
    i.NVIC_Init                              0x08006438   Section        0  misc.o(i.NVIC_Init)
    i.NVIC_PriorityGroupConfig               0x080064b0   Section        0  misc.o(i.NVIC_PriorityGroupConfig)
    i.Pid_Calc                               0x080064c4   Section        0  pid.o(i.Pid_Calc)
    i.Pid_Reset                              0x080066e4   Section        0  pid.o(i.Pid_Reset)
    i.Pid_Set                                0x08006784   Section        0  pid.o(i.Pid_Set)
    i.RCC_AHB1PeriphClockCmd                 0x080067b4   Section        0  stm32f4xx_rcc.o(i.RCC_AHB1PeriphClockCmd)
    i.RCC_APB1PeriphClockCmd                 0x080067d4   Section        0  stm32f4xx_rcc.o(i.RCC_APB1PeriphClockCmd)
    i.RCC_APB1PeriphResetCmd                 0x080067f4   Section        0  stm32f4xx_rcc.o(i.RCC_APB1PeriphResetCmd)
    i.RCC_APB2PeriphClockCmd                 0x08006814   Section        0  stm32f4xx_rcc.o(i.RCC_APB2PeriphClockCmd)
    i.RCC_APB2PeriphResetCmd                 0x08006834   Section        0  stm32f4xx_rcc.o(i.RCC_APB2PeriphResetCmd)
    i.RCC_GetClocksFreq                      0x08006854   Section        0  stm32f4xx_rcc.o(i.RCC_GetClocksFreq)
    i.RefereeInfo_Decode                     0x0800693c   Section        0  referee_info.o(i.RefereeInfo_Decode)
    i.Referee_Init                           0x08006a98   Section        0  referee.o(i.Referee_Init)
    i.Referee_USART_DMA_Init                 0x08006aa8   Section        0  referee.o(i.Referee_USART_DMA_Init)
    i.Referee_USART_Init                     0x08006b38   Section        0  referee.o(i.Referee_USART_Init)
    i.Referee_USART_NVIC_Init                0x08006bd4   Section        0  referee.o(i.Referee_USART_NVIC_Init)
    i.SPI_Cmd                                0x08006bf4   Section        0  stm32f4xx_spi.o(i.SPI_Cmd)
    i.SPI_I2S_GetFlagStatus                  0x08006c0c   Section        0  stm32f4xx_spi.o(i.SPI_I2S_GetFlagStatus)
    i.SPI_I2S_ReceiveData                    0x08006c1e   Section        0  stm32f4xx_spi.o(i.SPI_I2S_ReceiveData)
    i.SPI_I2S_SendData                       0x08006c24   Section        0  stm32f4xx_spi.o(i.SPI_I2S_SendData)
    i.SPI_Init                               0x08006c28   Section        0  stm32f4xx_spi.o(i.SPI_Init)
    i.STMFLASH_GetFlashSector                0x08006c64   Section        0  flash.o(i.STMFLASH_GetFlashSector)
    i.STMFLASH_Read                          0x08006d04   Section        0  flash.o(i.STMFLASH_Read)
    i.STMFLASH_ReadWord                      0x08006d24   Section        0  flash.o(i.STMFLASH_ReadWord)
    i.STMFLASH_Write                         0x08006d2c   Section        0  flash.o(i.STMFLASH_Write)
    i.SetSysClock                            0x08006dc4   Section        0  system_stm32f4xx.o(i.SetSysClock)
    SetSysClock                              0x08006dc5   Thumb Code   220  system_stm32f4xx.o(i.SetSysClock)
    i.Shoot_Init                             0x08006eb0   Section        0  shoot.o(i.Shoot_Init)
    i.Shoot_Run_Control                      0x08006f88   Section        0  shoot_task.o(i.Shoot_Run_Control)
    i.Shoot_Stop_Control                     0x0800724c   Section        0  shoot_task.o(i.Shoot_Stop_Control)
    i.Show_UI                                0x080072f0   Section        0  custom_ui.o(i.Show_UI)
    i.SysTick_CLKSourceConfig                0x08008330   Section        0  misc.o(i.SysTick_CLKSourceConfig)
    i.SysTick_Handler                        0x08008358   Section        0  delay.o(i.SysTick_Handler)
    i.SystemInit                             0x08008368   Section        0  system_stm32f4xx.o(i.SystemInit)
    i.TIM6_DAC_IRQHandler                    0x080083d0   Section        0  tim6.o(i.TIM6_DAC_IRQHandler)
    i.TIM6_Init                              0x080084e0   Section        0  tim6.o(i.TIM6_Init)
    i.TIM_ARRPreloadConfig                   0x0800853c   Section        0  stm32f4xx_tim.o(i.TIM_ARRPreloadConfig)
    i.TIM_ClearITPendingBit                  0x08008554   Section        0  stm32f4xx_tim.o(i.TIM_ClearITPendingBit)
    i.TIM_Cmd                                0x0800855a   Section        0  stm32f4xx_tim.o(i.TIM_Cmd)
    i.TIM_GetITStatus                        0x08008572   Section        0  stm32f4xx_tim.o(i.TIM_GetITStatus)
    i.TIM_ITConfig                           0x08008594   Section        0  stm32f4xx_tim.o(i.TIM_ITConfig)
    i.TIM_OC3Init                            0x080085a8   Section        0  stm32f4xx_tim.o(i.TIM_OC3Init)
    i.TIM_OC3PreloadConfig                   0x08008648   Section        0  stm32f4xx_tim.o(i.TIM_OC3PreloadConfig)
    i.TIM_TimeBaseInit                       0x0800865c   Section        0  stm32f4xx_tim.o(i.TIM_TimeBaseInit)
    i.Task_Init                              0x080086e0   Section        0  task_init.o(i.Task_Init)
    i.USART1_IRQHandler                      0x080086e8   Section        0  nuc.o(i.USART1_IRQHandler)
    i.USART3_IRQHandler                      0x08008770   Section        0  dr16.o(i.USART3_IRQHandler)
    i.USART6_IRQHandler                      0x080087f8   Section        0  referee.o(i.USART6_IRQHandler)
    i.USART_ClearFlag                        0x08008950   Section        0  stm32f4xx_usart.o(i.USART_ClearFlag)
    i.USART_Cmd                              0x08008962   Section        0  stm32f4xx_usart.o(i.USART_Cmd)
    i.USART_DMACmd                           0x0800897a   Section        0  stm32f4xx_usart.o(i.USART_DMACmd)
    i.USART_GetFlagStatus                    0x0800898c   Section        0  stm32f4xx_usart.o(i.USART_GetFlagStatus)
    i.USART_GetITStatus                      0x080089a6   Section        0  stm32f4xx_usart.o(i.USART_GetITStatus)
    i.USART_ITConfig                         0x080089fa   Section        0  stm32f4xx_usart.o(i.USART_ITConfig)
    i.USART_Init                             0x08008a44   Section        0  stm32f4xx_usart.o(i.USART_Init)
    i.USART_ReceiveData                      0x08008b18   Section        0  stm32f4xx_usart.o(i.USART_ReceiveData)
    i.USART_SendData                         0x08008b22   Section        0  stm32f4xx_usart.o(i.USART_SendData)
    i.UsageFault_Handler                     0x08008b2a   Section        0  stm32f4xx_it.o(i.UsageFault_Handler)
    i.Verify_CRC16_Check_Sum                 0x08008b30   Section        0  crc.o(i.Verify_CRC16_Check_Sum)
    i.Verify_CRC8_Check_Sum                  0x08008b70   Section        0  crc.o(i.Verify_CRC8_Check_Sum)
    i.__ARM_fpclassify                       0x08008ba0   Section        0  fpclassify.o(i.__ARM_fpclassify)
    i.__hardfp_asin                          0x08008bd0   Section        0  asin.o(i.__hardfp_asin)
    i.__hardfp_atan                          0x08008f30   Section        0  atan.o(i.__hardfp_atan)
    i.__hardfp_atan2                         0x08009208   Section        0  atan2.o(i.__hardfp_atan2)
    i.__hardfp_cos                           0x080093f8   Section        0  cos.o(i.__hardfp_cos)
    i.__hardfp_fabs                          0x080094c0   Section        0  fabs.o(i.__hardfp_fabs)
    i.__hardfp_sin                           0x080094d8   Section        0  sin.o(i.__hardfp_sin)
    i.__hardfp_sqrt                          0x080095a0   Section        0  sqrt.o(i.__hardfp_sqrt)
    i.__ieee754_rem_pio2                     0x08009620   Section        0  rred.o(i.__ieee754_rem_pio2)
    i.__kernel_cos                           0x08009a58   Section        0  cos_i.o(i.__kernel_cos)
    i.__kernel_poly                          0x08009bc8   Section        0  poly.o(i.__kernel_poly)
    i.__kernel_sin                           0x08009cc0   Section        0  sin_i.o(i.__kernel_sin)
    i.__mathlib_dbl_infnan                   0x08009df0   Section        0  dunder.o(i.__mathlib_dbl_infnan)
    i.__mathlib_dbl_infnan2                  0x08009e04   Section        0  dunder.o(i.__mathlib_dbl_infnan2)
    i.__mathlib_dbl_invalid                  0x08009e18   Section        0  dunder.o(i.__mathlib_dbl_invalid)
    i.__mathlib_dbl_underflow                0x08009e38   Section        0  dunder.o(i.__mathlib_dbl_underflow)
    i._is_digit                              0x08009e58   Section        0  __printf_wp.o(i._is_digit)
    i._sys_exit                              0x08009e66   Section        0  usart.o(i._sys_exit)
    i.atan                                   0x08009e6a   Section        0  atan.o(i.atan)
    i.bit8TObit16                            0x08009e7a   Section        0  referee_info.o(i.bit8TObit16)
    i.bit8TObit32                            0x08009e90   Section        0  referee_info.o(i.bit8TObit32)
    i.bmi088_accel_init                      0x08009eb0   Section        0  bmi088driver.o(i.bmi088_accel_init)
    i.bmi088_gyro_init                       0x08009fd8   Section        0  bmi088driver.o(i.bmi088_gyro_init)
    i.can_send_task                          0x0800a0cc   Section        0  can_send_task.o(i.can_send_task)
    i.can_send_task_create                   0x0800a118   Section        0  can_send_task.o(i.can_send_task_create)
    i.chassis_task                           0x0800a14c   Section        0  chassis_task.o(i.chassis_task)
    i.chassis_task_create                    0x0800a21c   Section        0  chassis_task.o(i.chassis_task_create)
    i.delay_init                             0x0800a250   Section        0  delay.o(i.delay_init)
    i.delay_ms                               0x0800a294   Section        0  delay.o(i.delay_ms)
    i.delay_us                               0x0800a2d8   Section        0  delay.o(i.delay_us)
    i.delay_xms                              0x0800a320   Section        0  delay.o(i.delay_xms)
    i.fabs                                   0x0800a338   Section        0  fabs.o(i.fabs)
    i.gimbal_task                            0x0800a350   Section        0  gimbal_task.o(i.gimbal_task)
    i.gimbal_task_create                     0x0800a3a8   Section        0  gimbal_task.o(i.gimbal_task_create)
    i.imu_task                               0x0800a3d8   Section        0  imu_task.o(i.imu_task)
    i.imu_task_create                        0x0800a3fc   Section        0  imu_task.o(i.imu_task_create)
    i.inv_sqrt                               0x0800a42c   Section        0  imu.o(i.inv_sqrt)
    i.led_task                               0x0800a460   Section        0  led_task.o(i.led_task)
    i.led_task_create                        0x0800a490   Section        0  led_task.o(i.led_task_create)
    i.limit_Init                             0x0800a4c0   Section        0  limit.o(i.limit_Init)
    i.main                                   0x0800a4f4   Section        0  main.o(i.main)
    i.mode_task                              0x0800a510   Section        0  mode_task.o(i.mode_task)
    i.mode_task_create                       0x0800a5c8   Section        0  mode_task.o(i.mode_task_create)
    i.nuc_task                               0x0800a5f8   Section        0  nuc_task.o(i.nuc_task)
    i.nuc_task_create                        0x0800a620   Section        0  nuc_task.o(i.nuc_task_create)
    i.prvAddCurrentTaskToDelayedList         0x0800a650   Section        0  tasks.o(i.prvAddCurrentTaskToDelayedList)
    prvAddCurrentTaskToDelayedList           0x0800a651   Thumb Code   124  tasks.o(i.prvAddCurrentTaskToDelayedList)
    i.prvAddNewTaskToReadyList               0x0800a6e8   Section        0  tasks.o(i.prvAddNewTaskToReadyList)
    prvAddNewTaskToReadyList                 0x0800a6e9   Thumb Code   156  tasks.o(i.prvAddNewTaskToReadyList)
    i.prvCheckForValidListAndQueue           0x0800a7a0   Section        0  timers.o(i.prvCheckForValidListAndQueue)
    prvCheckForValidListAndQueue             0x0800a7a1   Thumb Code    72  timers.o(i.prvCheckForValidListAndQueue)
    i.prvCheckTasksWaitingTermination        0x0800a804   Section        0  tasks.o(i.prvCheckTasksWaitingTermination)
    prvCheckTasksWaitingTermination          0x0800a805   Thumb Code    86  tasks.o(i.prvCheckTasksWaitingTermination)
    i.prvCopyDataFromQueue                   0x0800a868   Section        0  queue.o(i.prvCopyDataFromQueue)
    prvCopyDataFromQueue                     0x0800a869   Thumb Code    42  queue.o(i.prvCopyDataFromQueue)
    i.prvCopyDataToQueue                     0x0800a892   Section        0  queue.o(i.prvCopyDataToQueue)
    prvCopyDataToQueue                       0x0800a893   Thumb Code   124  queue.o(i.prvCopyDataToQueue)
    i.prvDeleteTCB                           0x0800a90e   Section        0  tasks.o(i.prvDeleteTCB)
    prvDeleteTCB                             0x0800a90f   Thumb Code    18  tasks.o(i.prvDeleteTCB)
    i.prvGetNextExpireTime                   0x0800a920   Section        0  timers.o(i.prvGetNextExpireTime)
    prvGetNextExpireTime                     0x0800a921   Thumb Code    36  timers.o(i.prvGetNextExpireTime)
    i.prvHeapInit                            0x0800a948   Section        0  heap_4.o(i.prvHeapInit)
    prvHeapInit                              0x0800a949   Thumb Code    98  heap_4.o(i.prvHeapInit)
    i.prvIdleTask                            0x0800a9c4   Section        0  tasks.o(i.prvIdleTask)
    prvIdleTask                              0x0800a9c5   Thumb Code    32  tasks.o(i.prvIdleTask)
    i.prvInitialiseNewQueue                  0x0800a9ec   Section        0  queue.o(i.prvInitialiseNewQueue)
    prvInitialiseNewQueue                    0x0800a9ed   Thumb Code    42  queue.o(i.prvInitialiseNewQueue)
    i.prvInitialiseNewTask                   0x0800aa16   Section        0  tasks.o(i.prvInitialiseNewTask)
    prvInitialiseNewTask                     0x0800aa17   Thumb Code   180  tasks.o(i.prvInitialiseNewTask)
    i.prvInitialiseTaskLists                 0x0800aacc   Section        0  tasks.o(i.prvInitialiseTaskLists)
    prvInitialiseTaskLists                   0x0800aacd   Thumb Code    70  tasks.o(i.prvInitialiseTaskLists)
    i.prvInsertBlockIntoFreeList             0x0800ab34   Section        0  heap_4.o(i.prvInsertBlockIntoFreeList)
    prvInsertBlockIntoFreeList               0x0800ab35   Thumb Code    96  heap_4.o(i.prvInsertBlockIntoFreeList)
    i.prvInsertTimerInActiveList             0x0800ab9c   Section        0  timers.o(i.prvInsertTimerInActiveList)
    prvInsertTimerInActiveList               0x0800ab9d   Thumb Code    80  timers.o(i.prvInsertTimerInActiveList)
    i.prvIsQueueEmpty                        0x0800abf4   Section        0  queue.o(i.prvIsQueueEmpty)
    prvIsQueueEmpty                          0x0800abf5   Thumb Code    26  queue.o(i.prvIsQueueEmpty)
    i.prvIsQueueFull                         0x0800ac0e   Section        0  queue.o(i.prvIsQueueFull)
    prvIsQueueFull                           0x0800ac0f   Thumb Code    30  queue.o(i.prvIsQueueFull)
    i.prvProcessExpiredTimer                 0x0800ac2c   Section        0  timers.o(i.prvProcessExpiredTimer)
    prvProcessExpiredTimer                   0x0800ac2d   Thumb Code    94  timers.o(i.prvProcessExpiredTimer)
    i.prvProcessReceivedCommands             0x0800ac90   Section        0  timers.o(i.prvProcessReceivedCommands)
    prvProcessReceivedCommands               0x0800ac91   Thumb Code   242  timers.o(i.prvProcessReceivedCommands)
    i.prvProcessTimerOrBlockTask             0x0800ad88   Section        0  timers.o(i.prvProcessTimerOrBlockTask)
    prvProcessTimerOrBlockTask               0x0800ad89   Thumb Code   102  timers.o(i.prvProcessTimerOrBlockTask)
    i.prvResetNextTaskUnblockTime            0x0800adfc   Section        0  tasks.o(i.prvResetNextTaskUnblockTime)
    prvResetNextTaskUnblockTime              0x0800adfd   Thumb Code    42  tasks.o(i.prvResetNextTaskUnblockTime)
    i.prvSampleTimeNow                       0x0800ae30   Section        0  timers.o(i.prvSampleTimeNow)
    prvSampleTimeNow                         0x0800ae31   Thumb Code    40  timers.o(i.prvSampleTimeNow)
    i.prvSwitchTimerLists                    0x0800ae5c   Section        0  timers.o(i.prvSwitchTimerLists)
    prvSwitchTimerLists                      0x0800ae5d   Thumb Code   150  timers.o(i.prvSwitchTimerLists)
    i.prvTaskExitError                       0x0800aefc   Section        0  port.o(i.prvTaskExitError)
    prvTaskExitError                         0x0800aefd   Thumb Code    60  port.o(i.prvTaskExitError)
    i.prvTestWaitCondition                   0x0800af3c   Section        0  event_groups.o(i.prvTestWaitCondition)
    prvTestWaitCondition                     0x0800af3d   Thumb Code    30  event_groups.o(i.prvTestWaitCondition)
    i.prvTimerTask                           0x0800af5a   Section        0  timers.o(i.prvTimerTask)
    prvTimerTask                             0x0800af5b   Thumb Code    26  timers.o(i.prvTimerTask)
    i.prvUnlockQueue                         0x0800af74   Section        0  queue.o(i.prvUnlockQueue)
    prvUnlockQueue                           0x0800af75   Thumb Code   126  queue.o(i.prvUnlockQueue)
    i.pvPortMalloc                           0x0800aff4   Section        0  heap_4.o(i.pvPortMalloc)
    i.pvTaskIncrementMutexHeldCount          0x0800b130   Section        0  tasks.o(i.pvTaskIncrementMutexHeldCount)
    i.pxPortInitialiseStack                  0x0800b150   Section        0  port.o(i.pxPortInitialiseStack)
    i.ramp_calc                              0x0800b17c   Section        0  ramp.o(i.ramp_calc)
    i.ramp_init                              0x0800b1bc   Section        0  ramp.o(i.ramp_init)
    i.referee_data_pack_handle               0x0800b1c4   Section        0  referee.o(i.referee_data_pack_handle)
    i.shoot_task                             0x0800b26c   Section        0  shoot_task.o(i.shoot_task)
    i.shoot_task_create                      0x0800b2b4   Section        0  shoot_task.o(i.shoot_task_create)
    i.sqrt                                   0x0800b2e0   Section        0  sqrt.o(i.sqrt)
    i.start_task                             0x0800b350   Section        0  task_init.o(i.start_task)
    i.start_task_create                      0x0800b39c   Section        0  task_init.o(i.start_task_create)
    i.supercap_task                          0x0800b3cc   Section        0  supercap_task.o(i.supercap_task)
    i.supercap_task_create                   0x0800b3f0   Section        0  supercap_task.o(i.supercap_task_create)
    i.ui_task                                0x0800b420   Section        0  ui_task.o(i.ui_task)
    i.ui_task_create                         0x0800b430   Section        0  ui_task.o(i.ui_task_create)
    i.uxListRemove                           0x0800b45c   Section        0  list.o(i.uxListRemove)
    i.uxTaskResetEventItemValue              0x0800b484   Section        0  tasks.o(i.uxTaskResetEventItemValue)
    i.vListInitialise                        0x0800b4a0   Section        0  list.o(i.vListInitialise)
    i.vListInitialiseItem                    0x0800b4ba   Section        0  list.o(i.vListInitialiseItem)
    i.vListInsert                            0x0800b4c0   Section        0  list.o(i.vListInsert)
    i.vListInsertEnd                         0x0800b4f4   Section        0  list.o(i.vListInsertEnd)
    i.vPortEnterCritical                     0x0800b50c   Section        0  port.o(i.vPortEnterCritical)
    i.vPortExitCritical                      0x0800b560   Section        0  port.o(i.vPortExitCritical)
    i.vPortFree                              0x0800b59c   Section        0  heap_4.o(i.vPortFree)
    i.vPortSetupTimerInterrupt               0x0800b630   Section        0  port.o(i.vPortSetupTimerInterrupt)
    i.vPortValidateInterruptPriority         0x0800b650   Section        0  port.o(i.vPortValidateInterruptPriority)
    i.vQueueAddToRegistry                    0x0800b6c8   Section        0  queue.o(i.vQueueAddToRegistry)
    i.vQueueWaitForMessageRestricted         0x0800b6f4   Section        0  queue.o(i.vQueueWaitForMessageRestricted)
    i.vTaskDelay                             0x0800b740   Section        0  tasks.o(i.vTaskDelay)
    i.vTaskDelayUntil                        0x0800b79c   Section        0  tasks.o(i.vTaskDelayUntil)
    i.vTaskDelete                            0x0800b870   Section        0  tasks.o(i.vTaskDelete)
    i.vTaskMissedYield                       0x0800b964   Section        0  tasks.o(i.vTaskMissedYield)
    i.vTaskPlaceOnEventList                  0x0800b970   Section        0  tasks.o(i.vTaskPlaceOnEventList)
    i.vTaskPlaceOnEventListRestricted        0x0800b9a8   Section        0  tasks.o(i.vTaskPlaceOnEventListRestricted)
    i.vTaskPlaceOnUnorderedEventList         0x0800b9e8   Section        0  tasks.o(i.vTaskPlaceOnUnorderedEventList)
    i.vTaskPriorityInherit                   0x0800ba54   Section        0  tasks.o(i.vTaskPriorityInherit)
    i.vTaskSetTimeOutState                   0x0800bb04   Section        0  tasks.o(i.vTaskSetTimeOutState)
    i.vTaskStartScheduler                    0x0800bb34   Section        0  tasks.o(i.vTaskStartScheduler)
    i.vTaskSuspendAll                        0x0800bbc8   Section        0  tasks.o(i.vTaskSuspendAll)
    i.vTaskSwitchContext                     0x0800bbd8   Section        0  tasks.o(i.vTaskSwitchContext)
    i.xEventGroupCreate                      0x0800bc64   Section        0  event_groups.o(i.xEventGroupCreate)
    i.xEventGroupSetBits                     0x0800bc7e   Section        0  event_groups.o(i.xEventGroupSetBits)
    i.xEventGroupWaitBits                    0x0800bd4c   Section        0  event_groups.o(i.xEventGroupWaitBits)
    i.xPortStartScheduler                    0x0800bea0   Section        0  port.o(i.xPortStartScheduler)
    i.xPortSysTickHandler                    0x0800bfdc   Section        0  port.o(i.xPortSysTickHandler)
    i.xQueueGenericCreate                    0x0800c010   Section        0  queue.o(i.xQueueGenericCreate)
    i.xQueueGenericReceive                   0x0800c068   Section        0  queue.o(i.xQueueGenericReceive)
    i.xQueueGenericReset                     0x0800c22c   Section        0  queue.o(i.xQueueGenericReset)
    i.xQueueGenericSend                      0x0800c2c4   Section        0  queue.o(i.xQueueGenericSend)
    i.xQueueGenericSendFromISR               0x0800c46c   Section        0  queue.o(i.xQueueGenericSendFromISR)
    i.xTaskCheckForTimeOut                   0x0800c564   Section        0  tasks.o(i.xTaskCheckForTimeOut)
    i.xTaskCreate                            0x0800c5f0   Section        0  tasks.o(i.xTaskCreate)
    i.xTaskGetSchedulerState                 0x0800c650   Section        0  tasks.o(i.xTaskGetSchedulerState)
    i.xTaskGetTickCount                      0x0800c670   Section        0  tasks.o(i.xTaskGetTickCount)
    i.xTaskIncrementTick                     0x0800c67c   Section        0  tasks.o(i.xTaskIncrementTick)
    i.xTaskPriorityDisinherit                0x0800c7c4   Section        0  tasks.o(i.xTaskPriorityDisinherit)
    i.xTaskRemoveFromEventList               0x0800c88c   Section        0  tasks.o(i.xTaskRemoveFromEventList)
    i.xTaskRemoveFromUnorderedEventList      0x0800c924   Section        0  tasks.o(i.xTaskRemoveFromUnorderedEventList)
    i.xTaskResumeAll                         0x0800c9d4   Section        0  tasks.o(i.xTaskResumeAll)
    i.xTimerCreateTimerTask                  0x0800cad8   Section        0  timers.o(i.xTimerCreateTimerTask)
    i.xTimerGenericCommand                   0x0800cb30   Section        0  timers.o(i.xTimerGenericCommand)
    locale$$code                             0x0800cbb4   Section       44  lc_numeric_c.o(locale$$code)
    x$fpl$basic                              0x0800cbe0   Section       24  basic.o(x$fpl$basic)
    $v0                                      0x0800cbe0   Number         0  basic.o(x$fpl$basic)
    x$fpl$d2f                                0x0800cbf8   Section       98  d2f.o(x$fpl$d2f)
    $v0                                      0x0800cbf8   Number         0  d2f.o(x$fpl$d2f)
    x$fpl$dadd                               0x0800cc5c   Section      336  daddsub_clz.o(x$fpl$dadd)
    $v0                                      0x0800cc5c   Number         0  daddsub_clz.o(x$fpl$dadd)
    _dadd1                                   0x0800cc6d   Thumb Code     0  daddsub_clz.o(x$fpl$dadd)
    x$fpl$dcmpinf                            0x0800cdac   Section       24  dcmpi.o(x$fpl$dcmpinf)
    $v0                                      0x0800cdac   Number         0  dcmpi.o(x$fpl$dcmpinf)
    x$fpl$ddiv                               0x0800cdc4   Section      688  ddiv.o(x$fpl$ddiv)
    $v0                                      0x0800cdc4   Number         0  ddiv.o(x$fpl$ddiv)
    ddiv_entry                               0x0800cdcb   Thumb Code     0  ddiv.o(x$fpl$ddiv)
    x$fpl$dfix                               0x0800d074   Section       94  dfix.o(x$fpl$dfix)
    $v0                                      0x0800d074   Number         0  dfix.o(x$fpl$dfix)
    x$fpl$dflt                               0x0800d0d2   Section       46  dflt_clz.o(x$fpl$dflt)
    $v0                                      0x0800d0d2   Number         0  dflt_clz.o(x$fpl$dflt)
    x$fpl$dfltu                              0x0800d100   Section       38  dflt_clz.o(x$fpl$dfltu)
    $v0                                      0x0800d100   Number         0  dflt_clz.o(x$fpl$dfltu)
    x$fpl$dleqf                              0x0800d128   Section      120  dleqf.o(x$fpl$dleqf)
    $v0                                      0x0800d128   Number         0  dleqf.o(x$fpl$dleqf)
    x$fpl$dmul                               0x0800d1a0   Section      340  dmul.o(x$fpl$dmul)
    $v0                                      0x0800d1a0   Number         0  dmul.o(x$fpl$dmul)
    x$fpl$dnaninf                            0x0800d2f4   Section      156  dnaninf.o(x$fpl$dnaninf)
    $v0                                      0x0800d2f4   Number         0  dnaninf.o(x$fpl$dnaninf)
    x$fpl$dretinf                            0x0800d390   Section       12  dretinf.o(x$fpl$dretinf)
    $v0                                      0x0800d390   Number         0  dretinf.o(x$fpl$dretinf)
    x$fpl$drleqf                             0x0800d39c   Section      108  drleqf.o(x$fpl$drleqf)
    $v0                                      0x0800d39c   Number         0  drleqf.o(x$fpl$drleqf)
    x$fpl$drsb                               0x0800d408   Section       22  daddsub_clz.o(x$fpl$drsb)
    $v0                                      0x0800d408   Number         0  daddsub_clz.o(x$fpl$drsb)
    x$fpl$dsqrt                              0x0800d420   Section      408  dsqrt_umaal.o(x$fpl$dsqrt)
    $v0                                      0x0800d420   Number         0  dsqrt_umaal.o(x$fpl$dsqrt)
    x$fpl$dsub                               0x0800d5b8   Section      468  daddsub_clz.o(x$fpl$dsub)
    $v0                                      0x0800d5b8   Number         0  daddsub_clz.o(x$fpl$dsub)
    _dsub1                                   0x0800d5c9   Thumb Code     0  daddsub_clz.o(x$fpl$dsub)
    x$fpl$f2d                                0x0800d78c   Section       86  f2d.o(x$fpl$f2d)
    $v0                                      0x0800d78c   Number         0  f2d.o(x$fpl$f2d)
    x$fpl$fnaninf                            0x0800d7e2   Section      140  fnaninf.o(x$fpl$fnaninf)
    $v0                                      0x0800d7e2   Number         0  fnaninf.o(x$fpl$fnaninf)
    x$fpl$fpinit                             0x0800d86e   Section       10  fpinit.o(x$fpl$fpinit)
    $v0                                      0x0800d86e   Number         0  fpinit.o(x$fpl$fpinit)
    x$fpl$fretinf                            0x0800d878   Section       10  fretinf.o(x$fpl$fretinf)
    $v0                                      0x0800d878   Number         0  fretinf.o(x$fpl$fretinf)
    x$fpl$printf1                            0x0800d882   Section        4  printf1.o(x$fpl$printf1)
    $v0                                      0x0800d882   Number         0  printf1.o(x$fpl$printf1)
    .constdata                               0x0800d886   Section      770  crc.o(.constdata)
    x$fpl$usenofp                            0x0800d886   Section        0  usenofp.o(x$fpl$usenofp)
    .constdata                               0x0800db88   Section       80  asin.o(.constdata)
    pS                                       0x0800db88   Data          48  asin.o(.constdata)
    qS                                       0x0800dbb8   Data          32  asin.o(.constdata)
    .constdata                               0x0800dbd8   Section      152  atan.o(.constdata)
    atanhi                                   0x0800dbd8   Data          32  atan.o(.constdata)
    atanlo                                   0x0800dbf8   Data          32  atan.o(.constdata)
    aTodd                                    0x0800dc18   Data          40  atan.o(.constdata)
    aTeven                                   0x0800dc40   Data          48  atan.o(.constdata)
    .constdata                               0x0800dc70   Section       48  cos_i.o(.constdata)
    C                                        0x0800dc70   Data          48  cos_i.o(.constdata)
    .constdata                               0x0800dca0   Section        8  qnan.o(.constdata)
    .constdata                               0x0800dca8   Section      200  rred.o(.constdata)
    pio2s                                    0x0800dca8   Data          48  rred.o(.constdata)
    twooverpi                                0x0800dcd8   Data         152  rred.o(.constdata)
    .constdata                               0x0800dd70   Section       40  sin_i.o(.constdata)
    S                                        0x0800dd70   Data          40  sin_i.o(.constdata)
    .constdata                               0x0800dd98   Section      148  bigflt0.o(.constdata)
    tenpwrs_x                                0x0800dd98   Data          60  bigflt0.o(.constdata)
    tenpwrs_i                                0x0800ddd4   Data          64  bigflt0.o(.constdata)
    locale$$data                             0x0800de4c   Section       28  lc_numeric_c.o(locale$$data)
    __lcnum_c_name                           0x0800de50   Data           2  lc_numeric_c.o(locale$$data)
    __lcnum_c_start                          0x0800de58   Data           0  lc_numeric_c.o(locale$$data)
    __lcnum_c_point                          0x0800de64   Data           0  lc_numeric_c.o(locale$$data)
    __lcnum_c_thousands                      0x0800de66   Data           0  lc_numeric_c.o(locale$$data)
    __lcnum_c_grouping                       0x0800de67   Data           0  lc_numeric_c.o(locale$$data)
    __lcnum_c_end                            0x0800de68   Data           0  lc_numeric_c.o(locale$$data)
    .data                                    0x20000000   Section       20  system_stm32f4xx.o(.data)
    .data                                    0x20000014   Section       44  bmi088driver.o(.data)
    write_BMI088_accel_reg_data_error        0x2000001c   Data          18  bmi088driver.o(.data)
    write_BMI088_gyro_reg_data_error         0x2000002e   Data          18  bmi088driver.o(.data)
    .data                                    0x20000040   Section       28  can_handle.o(.data)
    .data                                    0x2000005c   Section        4  dr16.o(.data)
    .data                                    0x20000060   Section        2  crc.o(.data)
    .data                                    0x20000064   Section        9  custom_ui.o(.data)
    .data                                    0x2000006e   Section        8  gimbal.o(.data)
    .data                                    0x20000078   Section       94  imu.o(.data)
    gx                                       0x20000094   Data           4  imu.o(.data)
    gy                                       0x20000098   Data           4  imu.o(.data)
    gz                                       0x2000009c   Data           4  imu.o(.data)
    ax                                       0x200000a0   Data           4  imu.o(.data)
    ay                                       0x200000a4   Data           4  imu.o(.data)
    az                                       0x200000a8   Data           4  imu.o(.data)
    mx                                       0x200000ac   Data           4  imu.o(.data)
    my                                       0x200000b0   Data           4  imu.o(.data)
    mz                                       0x200000b4   Data           4  imu.o(.data)
    tx                                       0x200000c0   Data           1  imu.o(.data)
    rx                                       0x200000c1   Data           1  imu.o(.data)
    tx_buff                                  0x200000c2   Data          14  imu.o(.data)
    .data                                    0x200000d8   Section       24  nuc.o(.data)
    .data                                    0x200000f0   Section        2  referee.o(.data)
    seq                                      0x200000f0   Data           1  referee.o(.data)
    seq                                      0x200000f1   Data           1  referee.o(.data)
    .data                                    0x200000f2   Section       14  referee_info.o(.data)
    .data                                    0x20000100   Section       16  tim6.o(.data)
    .data                                    0x20000110   Section        4  delay.o(.data)
    fac_us                                   0x20000110   Data           1  delay.o(.data)
    fac_ms                                   0x20000112   Data           2  delay.o(.data)
    .data                                    0x20000114   Section       16  stm32f4xx_rcc.o(.data)
    APBAHBPrescTable                         0x20000114   Data          16  stm32f4xx_rcc.o(.data)
    .data                                    0x20000124   Section       60  tasks.o(.data)
    pxDelayedTaskList                        0x20000128   Data           4  tasks.o(.data)
    pxOverflowDelayedTaskList                0x2000012c   Data           4  tasks.o(.data)
    uxDeletedTasksWaitingCleanUp             0x20000130   Data           4  tasks.o(.data)
    uxCurrentNumberOfTasks                   0x20000134   Data           4  tasks.o(.data)
    xTickCount                               0x20000138   Data           4  tasks.o(.data)
    uxTopReadyPriority                       0x2000013c   Data           4  tasks.o(.data)
    xSchedulerRunning                        0x20000140   Data           4  tasks.o(.data)
    uxPendedTicks                            0x20000144   Data           4  tasks.o(.data)
    xYieldPending                            0x20000148   Data           4  tasks.o(.data)
    xNumOfOverflows                          0x2000014c   Data           4  tasks.o(.data)
    uxTaskNumber                             0x20000150   Data           4  tasks.o(.data)
    xNextTaskUnblockTime                     0x20000154   Data           4  tasks.o(.data)
    xIdleTaskHandle                          0x20000158   Data           4  tasks.o(.data)
    uxSchedulerSuspended                     0x2000015c   Data           4  tasks.o(.data)
    .data                                    0x20000160   Section       20  timers.o(.data)
    pxCurrentTimerList                       0x20000160   Data           4  timers.o(.data)
    pxOverflowTimerList                      0x20000164   Data           4  timers.o(.data)
    xTimerQueue                              0x20000168   Data           4  timers.o(.data)
    xTimerTaskHandle                         0x2000016c   Data           4  timers.o(.data)
    xLastTime                                0x20000170   Data           4  timers.o(.data)
    .data                                    0x20000174   Section       12  port.o(.data)
    uxCriticalNesting                        0x20000174   Data           4  port.o(.data)
    ucMaxSysCallPriority                     0x20000178   Data           1  port.o(.data)
    ulMaxPRIGROUPValue                       0x2000017c   Data           4  port.o(.data)
    .data                                    0x20000180   Section       24  heap_4.o(.data)
    xStart                                   0x20000180   Data           8  heap_4.o(.data)
    pxEnd                                    0x20000188   Data           4  heap_4.o(.data)
    xFreeBytesRemaining                      0x2000018c   Data           4  heap_4.o(.data)
    xMinimumEverFreeBytesRemaining           0x20000190   Data           4  heap_4.o(.data)
    xBlockAllocatedBit                       0x20000194   Data           4  heap_4.o(.data)
    .data                                    0x20000198   Section        8  task_init.o(.data)
    .data                                    0x200001a0   Section        4  can_send_task.o(.data)
    .data                                    0x200001a8   Section       64  chassis_task.o(.data)
    power_limit_value                        0x200001d0   Data           4  chassis_task.o(.data)
    power_flag                               0x200001d4   Data           1  chassis_task.o(.data)
    Follow_Angle                             0x200001d8   Data           8  chassis_task.o(.data)
    Rotate_Angle                             0x200001e0   Data           8  chassis_task.o(.data)
    .data                                    0x200001e8   Section       32  gimbal_task.o(.data)
    .data                                    0x20000208   Section        4  imu_task.o(.data)
    .data                                    0x2000020c   Section        4  led_task.o(.data)
    .data                                    0x20000210   Section      192  mode_task.o(.data)
    current_speed_x                          0x200002c8   Data           4  mode_task.o(.data)
    current_speed_y                          0x200002cc   Data           4  mode_task.o(.data)
    .data                                    0x200002d0   Section        4  nuc_task.o(.data)
    .data                                    0x200002d4   Section       28  shoot_task.o(.data)
    Block_Time                               0x200002e8   Data           4  shoot_task.o(.data)
    Block_Reverse_Time                       0x200002ec   Data           4  shoot_task.o(.data)
    .data                                    0x200002f0   Section        4  supercap_task.o(.data)
    .data                                    0x200002f4   Section        4  ui_task.o(.data)
    .bss                                     0x200002f8   Section      168  can_handle.o(.bss)
    .bss                                     0x200003a0   Section      108  dr16.o(.bss)
    DBUS_rx_buff                             0x200003a0   Data          36  dr16.o(.bss)
    .bss                                     0x2000040c   Section     1692  custom_ui.o(.bss)
    .bss                                     0x20000aa8   Section       16  gimbal.o(.bss)
    .bss                                     0x20000ab8   Section      100  imu.o(.bss)
    .bss                                     0x20000b1c   Section       40  nuc.o(.bss)
    .bss                                     0x20000b44   Section     1760  pid.o(.bss)
    .bss                                     0x20001224   Section     2048  referee.o(.bss)
    .bss                                     0x20001a24   Section       43  referee_info.o(.bss)
    .bss                                     0x20001a50   Section       64  queue.o(.bss)
    .bss                                     0x20001a90   Section      200  tasks.o(.bss)
    pxReadyTasksLists                        0x20001a90   Data         100  tasks.o(.bss)
    xDelayedTaskList1                        0x20001af4   Data          20  tasks.o(.bss)
    xDelayedTaskList2                        0x20001b08   Data          20  tasks.o(.bss)
    xPendingReadyList                        0x20001b1c   Data          20  tasks.o(.bss)
    xTasksWaitingTermination                 0x20001b30   Data          20  tasks.o(.bss)
    xSuspendedTaskList                       0x20001b44   Data          20  tasks.o(.bss)
    .bss                                     0x20001b58   Section       40  timers.o(.bss)
    xActiveTimerList1                        0x20001b58   Data          20  timers.o(.bss)
    xActiveTimerList2                        0x20001b6c   Data          20  timers.o(.bss)
    .bss                                     0x20001b80   Section    76800  heap_4.o(.bss)
    ucHeap                                   0x20001b80   Data       76800  heap_4.o(.bss)
    .bss                                     0x20014780   Section       44  chassis_task.o(.bss)
    .bss                                     0x200147ac   Section       96  libspace.o(.bss)
    HEAP                                     0x20014810   Section      512  startup_stm32f40_41xxx.o(HEAP)
    Heap_Mem                                 0x20014810   Data         512  startup_stm32f40_41xxx.o(HEAP)
    STACK                                    0x20014a10   Section     1024  startup_stm32f40_41xxx.o(STACK)
    Stack_Mem                                0x20014a10   Data        1024  startup_stm32f40_41xxx.o(STACK)
    __initial_sp                             0x20014e10   Data           0  startup_stm32f40_41xxx.o(STACK)

    Global Symbols

    Symbol Name                              Value     Ov Type        Size  Object(Section)

    BuildAttributes$$THM_ISAv4$E$P$D$K$B$S$7EM$VFPi3$EXTD16$VFPS$VFMA$PE$A:L22UL41UL21$X:L11$S22US41US21$IEEE1$IW$USESV6$~STKCKD$USESV7$~SHL$OTIME$ROPI$IEEEX$EBA8$UX$STANDARDLIB$REQ8$PRES8$EABIv2 0x00000000   Number         0  anon$$obj.o ABSOLUTE
    __ARM_use_no_argv                        0x00000000   Number         0  main.o ABSOLUTE
    _printf_flags                            0x00000000   Number         0  printf_stubs.o ABSOLUTE
    _printf_return_value                     0x00000000   Number         0  printf_stubs.o ABSOLUTE
    _printf_sizespec                         0x00000000   Number         0  printf_stubs.o ABSOLUTE
    _printf_widthprec                        0x00000000   Number         0  printf_stubs.o ABSOLUTE
    __ARM_exceptions_init                     - Undefined Weak Reference
    __alloca_initialize                       - Undefined Weak Reference
    __arm_preinit_                            - Undefined Weak Reference
    __cpp_initialize__aeabi_                  - Undefined Weak Reference
    __cxa_finalize                            - Undefined Weak Reference
    __sigvec_lookup                           - Undefined Weak Reference
    _atexit_init                              - Undefined Weak Reference
    _call_atexit_fns                          - Undefined Weak Reference
    _clock_init                               - Undefined Weak Reference
    _fp_trap_init                             - Undefined Weak Reference
    _fp_trap_shutdown                         - Undefined Weak Reference
    _get_lc_collate                           - Undefined Weak Reference
    _get_lc_ctype                             - Undefined Weak Reference
    _get_lc_monetary                          - Undefined Weak Reference
    _get_lc_time                              - Undefined Weak Reference
    _getenv_init                              - Undefined Weak Reference
    _handle_redirection                       - Undefined Weak Reference
    _init_alloc                               - Undefined Weak Reference
    _init_user_alloc                          - Undefined Weak Reference
    _initio                                   - Undefined Weak Reference
    _printf_post_padding                      - Undefined Weak Reference
    _printf_pre_padding                       - Undefined Weak Reference
    _printf_truncate_signed                   - Undefined Weak Reference
    _printf_truncate_unsigned                 - Undefined Weak Reference
    _rand_init                                - Undefined Weak Reference
    _signal_finish                            - Undefined Weak Reference
    _signal_init                              - Undefined Weak Reference
    _terminate_alloc                          - Undefined Weak Reference
    _terminate_user_alloc                     - Undefined Weak Reference
    _terminateio                              - Undefined Weak Reference
    __Vectors_Size                           0x00000188   Number         0  startup_stm32f40_41xxx.o ABSOLUTE
    __Vectors                                0x08000000   Data           4  startup_stm32f40_41xxx.o(RESET)
    __Vectors_End                            0x08000188   Data           0  startup_stm32f40_41xxx.o(RESET)
    __main                                   0x08000189   Thumb Code     8  __main.o(!!!main)
    __scatterload                            0x08000191   Thumb Code     0  __scatter.o(!!!scatter)
    __scatterload_rt2                        0x08000191   Thumb Code    44  __scatter.o(!!!scatter)
    __scatterload_rt2_thumb_only             0x08000191   Thumb Code     0  __scatter.o(!!!scatter)
    __scatterload_null                       0x0800019f   Thumb Code     0  __scatter.o(!!!scatter)
    __decompress                             0x080001c5   Thumb Code    90  __dczerorl2.o(!!dczerorl2)
    __decompress1                            0x080001c5   Thumb Code     0  __dczerorl2.o(!!dczerorl2)
    __scatterload_zeroinit                   0x08000221   Thumb Code    28  __scatter_zi.o(!!handler_zi)
    _printf_f                                0x0800023d   Thumb Code     0  _printf_f.o(.ARM.Collect$$_printf_percent$$00000003)
    _printf_percent                          0x0800023d   Thumb Code     0  _printf_percent.o(.ARM.Collect$$_printf_percent$$00000000)
    _printf_d                                0x08000243   Thumb Code     0  _printf_d.o(.ARM.Collect$$_printf_percent$$00000009)
    _printf_percent_end                      0x08000249   Thumb Code     0  _printf_percent_end.o(.ARM.Collect$$_printf_percent$$00000017)
    __rt_lib_init                            0x0800024d   Thumb Code     0  libinit.o(.ARM.Collect$$libinit$$00000000)
    __rt_lib_init_fp_1                       0x0800024f   Thumb Code     0  libinit2.o(.ARM.Collect$$libinit$$00000001)
    __rt_lib_init_heap_1                     0x08000253   Thumb Code     0  libinit2.o(.ARM.Collect$$libinit$$0000000A)
    __rt_lib_init_lc_common                  0x08000253   Thumb Code     0  libinit2.o(.ARM.Collect$$libinit$$0000000F)
    __rt_lib_init_preinit_1                  0x08000253   Thumb Code     0  libinit2.o(.ARM.Collect$$libinit$$00000004)
    __rt_lib_init_rand_1                     0x08000253   Thumb Code     0  libinit2.o(.ARM.Collect$$libinit$$0000000E)
    __rt_lib_init_user_alloc_1               0x08000253   Thumb Code     0  libinit2.o(.ARM.Collect$$libinit$$0000000C)
    __rt_lib_init_lc_collate_1               0x08000259   Thumb Code     0  libinit2.o(.ARM.Collect$$libinit$$00000011)
    __rt_lib_init_lc_ctype_1                 0x08000259   Thumb Code     0  libinit2.o(.ARM.Collect$$libinit$$00000013)
    __rt_lib_init_lc_monetary_1              0x08000259   Thumb Code     0  libinit2.o(.ARM.Collect$$libinit$$00000015)
    __rt_lib_init_lc_numeric_2               0x08000259   Thumb Code     0  libinit2.o(.ARM.Collect$$libinit$$00000016)
    __rt_lib_init_alloca_1                   0x08000263   Thumb Code     0  libinit2.o(.ARM.Collect$$libinit$$0000002E)
    __rt_lib_init_argv_1                     0x08000263   Thumb Code     0  libinit2.o(.ARM.Collect$$libinit$$0000002C)
    __rt_lib_init_atexit_1                   0x08000263   Thumb Code     0  libinit2.o(.ARM.Collect$$libinit$$0000001B)
    __rt_lib_init_clock_1                    0x08000263   Thumb Code     0  libinit2.o(.ARM.Collect$$libinit$$00000021)
    __rt_lib_init_cpp_1                      0x08000263   Thumb Code     0  libinit2.o(.ARM.Collect$$libinit$$00000032)
    __rt_lib_init_exceptions_1               0x08000263   Thumb Code     0  libinit2.o(.ARM.Collect$$libinit$$00000030)
    __rt_lib_init_fp_trap_1                  0x08000263   Thumb Code     0  libinit2.o(.ARM.Collect$$libinit$$0000001F)
    __rt_lib_init_getenv_1                   0x08000263   Thumb Code     0  libinit2.o(.ARM.Collect$$libinit$$00000023)
    __rt_lib_init_lc_numeric_1               0x08000263   Thumb Code     0  libinit2.o(.ARM.Collect$$libinit$$00000017)
    __rt_lib_init_lc_time_1                  0x08000263   Thumb Code     0  libinit2.o(.ARM.Collect$$libinit$$00000019)
    __rt_lib_init_return                     0x08000263   Thumb Code     0  libinit2.o(.ARM.Collect$$libinit$$00000033)
    __rt_lib_init_signal_1                   0x08000263   Thumb Code     0  libinit2.o(.ARM.Collect$$libinit$$0000001D)
    __rt_lib_init_stdio_1                    0x08000263   Thumb Code     0  libinit2.o(.ARM.Collect$$libinit$$00000025)
    __rt_lib_shutdown                        0x08000265   Thumb Code     0  libshutdown.o(.ARM.Collect$$libshutdown$$00000000)
    __rt_lib_shutdown_cpp_1                  0x08000267   Thumb Code     0  libshutdown2.o(.ARM.Collect$$libshutdown$$00000002)
    __rt_lib_shutdown_fp_trap_1              0x08000267   Thumb Code     0  libshutdown2.o(.ARM.Collect$$libshutdown$$00000007)
    __rt_lib_shutdown_heap_1                 0x08000267   Thumb Code     0  libshutdown2.o(.ARM.Collect$$libshutdown$$0000000F)
    __rt_lib_shutdown_return                 0x08000267   Thumb Code     0  libshutdown2.o(.ARM.Collect$$libshutdown$$00000010)
    __rt_lib_shutdown_signal_1               0x08000267   Thumb Code     0  libshutdown2.o(.ARM.Collect$$libshutdown$$0000000A)
    __rt_lib_shutdown_stdio_1                0x08000267   Thumb Code     0  libshutdown2.o(.ARM.Collect$$libshutdown$$00000004)
    __rt_lib_shutdown_user_alloc_1           0x08000267   Thumb Code     0  libshutdown2.o(.ARM.Collect$$libshutdown$$0000000C)
    __rt_entry                               0x08000269   Thumb Code     0  __rtentry.o(.ARM.Collect$$rtentry$$00000000)
    __rt_entry_presh_1                       0x08000269   Thumb Code     0  __rtentry2.o(.ARM.Collect$$rtentry$$00000002)
    __rt_entry_sh                            0x08000269   Thumb Code     0  __rtentry4.o(.ARM.Collect$$rtentry$$00000004)
    __rt_entry_li                            0x0800026f   Thumb Code     0  __rtentry2.o(.ARM.Collect$$rtentry$$0000000A)
    __rt_entry_postsh_1                      0x0800026f   Thumb Code     0  __rtentry2.o(.ARM.Collect$$rtentry$$00000009)
    __rt_entry_main                          0x08000273   Thumb Code     0  __rtentry2.o(.ARM.Collect$$rtentry$$0000000D)
    __rt_entry_postli_1                      0x08000273   Thumb Code     0  __rtentry2.o(.ARM.Collect$$rtentry$$0000000C)
    __rt_exit                                0x0800027b   Thumb Code     0  rtexit.o(.ARM.Collect$$rtexit$$00000000)
    __rt_exit_ls                             0x0800027d   Thumb Code     0  rtexit2.o(.ARM.Collect$$rtexit$$00000003)
    __rt_exit_prels_1                        0x0800027d   Thumb Code     0  rtexit2.o(.ARM.Collect$$rtexit$$00000002)
    __rt_exit_exit                           0x08000281   Thumb Code     0  rtexit2.o(.ARM.Collect$$rtexit$$00000004)
    SVC_Handler                              0x08000289   Thumb Code    28  port.o(.emb_text)
    __asm___6_port_c_39a90d8d__prvStartFirstTask 0x080002a9   Thumb Code    28  port.o(.emb_text)
    __asm___6_port_c_39a90d8d__prvEnableVFP  0x080002c9   Thumb Code    16  port.o(.emb_text)
    PendSV_Handler                           0x080002dd   Thumb Code    88  port.o(.emb_text)
    vPortGetIPSR                             0x08000339   Thumb Code     6  port.o(.emb_text)
    Reset_Handler                            0x08000341   Thumb Code     8  startup_stm32f40_41xxx.o(.text)
    ADC_IRQHandler                           0x0800035b   Thumb Code     0  startup_stm32f40_41xxx.o(.text)
    CAN1_RX1_IRQHandler                      0x0800035b   Thumb Code     0  startup_stm32f40_41xxx.o(.text)
    CAN1_SCE_IRQHandler                      0x0800035b   Thumb Code     0  startup_stm32f40_41xxx.o(.text)
    CAN2_RX1_IRQHandler                      0x0800035b   Thumb Code     0  startup_stm32f40_41xxx.o(.text)
    CAN2_SCE_IRQHandler                      0x0800035b   Thumb Code     0  startup_stm32f40_41xxx.o(.text)
    CRYP_IRQHandler                          0x0800035b   Thumb Code     0  startup_stm32f40_41xxx.o(.text)
    DCMI_IRQHandler                          0x0800035b   Thumb Code     0  startup_stm32f40_41xxx.o(.text)
    DMA1_Stream0_IRQHandler                  0x0800035b   Thumb Code     0  startup_stm32f40_41xxx.o(.text)
    DMA1_Stream1_IRQHandler                  0x0800035b   Thumb Code     0  startup_stm32f40_41xxx.o(.text)
    DMA1_Stream2_IRQHandler                  0x0800035b   Thumb Code     0  startup_stm32f40_41xxx.o(.text)
    DMA1_Stream3_IRQHandler                  0x0800035b   Thumb Code     0  startup_stm32f40_41xxx.o(.text)
    DMA1_Stream4_IRQHandler                  0x0800035b   Thumb Code     0  startup_stm32f40_41xxx.o(.text)
    DMA1_Stream5_IRQHandler                  0x0800035b   Thumb Code     0  startup_stm32f40_41xxx.o(.text)
    DMA1_Stream6_IRQHandler                  0x0800035b   Thumb Code     0  startup_stm32f40_41xxx.o(.text)
    DMA1_Stream7_IRQHandler                  0x0800035b   Thumb Code     0  startup_stm32f40_41xxx.o(.text)
    DMA2_Stream0_IRQHandler                  0x0800035b   Thumb Code     0  startup_stm32f40_41xxx.o(.text)
    DMA2_Stream1_IRQHandler                  0x0800035b   Thumb Code     0  startup_stm32f40_41xxx.o(.text)
    DMA2_Stream2_IRQHandler                  0x0800035b   Thumb Code     0  startup_stm32f40_41xxx.o(.text)
    DMA2_Stream3_IRQHandler                  0x0800035b   Thumb Code     0  startup_stm32f40_41xxx.o(.text)
    DMA2_Stream4_IRQHandler                  0x0800035b   Thumb Code     0  startup_stm32f40_41xxx.o(.text)
    DMA2_Stream5_IRQHandler                  0x0800035b   Thumb Code     0  startup_stm32f40_41xxx.o(.text)
    DMA2_Stream6_IRQHandler                  0x0800035b   Thumb Code     0  startup_stm32f40_41xxx.o(.text)
    ETH_IRQHandler                           0x0800035b   Thumb Code     0  startup_stm32f40_41xxx.o(.text)
    ETH_WKUP_IRQHandler                      0x0800035b   Thumb Code     0  startup_stm32f40_41xxx.o(.text)
    EXTI0_IRQHandler                         0x0800035b   Thumb Code     0  startup_stm32f40_41xxx.o(.text)
    EXTI15_10_IRQHandler                     0x0800035b   Thumb Code     0  startup_stm32f40_41xxx.o(.text)
    EXTI1_IRQHandler                         0x0800035b   Thumb Code     0  startup_stm32f40_41xxx.o(.text)
    EXTI2_IRQHandler                         0x0800035b   Thumb Code     0  startup_stm32f40_41xxx.o(.text)
    EXTI3_IRQHandler                         0x0800035b   Thumb Code     0  startup_stm32f40_41xxx.o(.text)
    EXTI4_IRQHandler                         0x0800035b   Thumb Code     0  startup_stm32f40_41xxx.o(.text)
    FLASH_IRQHandler                         0x0800035b   Thumb Code     0  startup_stm32f40_41xxx.o(.text)
    FPU_IRQHandler                           0x0800035b   Thumb Code     0  startup_stm32f40_41xxx.o(.text)
    FSMC_IRQHandler                          0x0800035b   Thumb Code     0  startup_stm32f40_41xxx.o(.text)
    HASH_RNG_IRQHandler                      0x0800035b   Thumb Code     0  startup_stm32f40_41xxx.o(.text)
    I2C1_ER_IRQHandler                       0x0800035b   Thumb Code     0  startup_stm32f40_41xxx.o(.text)
    I2C1_EV_IRQHandler                       0x0800035b   Thumb Code     0  startup_stm32f40_41xxx.o(.text)
    I2C2_ER_IRQHandler                       0x0800035b   Thumb Code     0  startup_stm32f40_41xxx.o(.text)
    I2C2_EV_IRQHandler                       0x0800035b   Thumb Code     0  startup_stm32f40_41xxx.o(.text)
    I2C3_ER_IRQHandler                       0x0800035b   Thumb Code     0  startup_stm32f40_41xxx.o(.text)
    I2C3_EV_IRQHandler                       0x0800035b   Thumb Code     0  startup_stm32f40_41xxx.o(.text)
    OTG_FS_IRQHandler                        0x0800035b   Thumb Code     0  startup_stm32f40_41xxx.o(.text)
    OTG_FS_WKUP_IRQHandler                   0x0800035b   Thumb Code     0  startup_stm32f40_41xxx.o(.text)
    OTG_HS_EP1_IN_IRQHandler                 0x0800035b   Thumb Code     0  startup_stm32f40_41xxx.o(.text)
    OTG_HS_EP1_OUT_IRQHandler                0x0800035b   Thumb Code     0  startup_stm32f40_41xxx.o(.text)
    OTG_HS_IRQHandler                        0x0800035b   Thumb Code     0  startup_stm32f40_41xxx.o(.text)
    OTG_HS_WKUP_IRQHandler                   0x0800035b   Thumb Code     0  startup_stm32f40_41xxx.o(.text)
    PVD_IRQHandler                           0x0800035b   Thumb Code     0  startup_stm32f40_41xxx.o(.text)
    RCC_IRQHandler                           0x0800035b   Thumb Code     0  startup_stm32f40_41xxx.o(.text)
    RTC_Alarm_IRQHandler                     0x0800035b   Thumb Code     0  startup_stm32f40_41xxx.o(.text)
    RTC_WKUP_IRQHandler                      0x0800035b   Thumb Code     0  startup_stm32f40_41xxx.o(.text)
    SDIO_IRQHandler                          0x0800035b   Thumb Code     0  startup_stm32f40_41xxx.o(.text)
    SPI1_IRQHandler                          0x0800035b   Thumb Code     0  startup_stm32f40_41xxx.o(.text)
    SPI2_IRQHandler                          0x0800035b   Thumb Code     0  startup_stm32f40_41xxx.o(.text)
    SPI3_IRQHandler                          0x0800035b   Thumb Code     0  startup_stm32f40_41xxx.o(.text)
    TAMP_STAMP_IRQHandler                    0x0800035b   Thumb Code     0  startup_stm32f40_41xxx.o(.text)
    TIM1_BRK_TIM9_IRQHandler                 0x0800035b   Thumb Code     0  startup_stm32f40_41xxx.o(.text)
    TIM1_CC_IRQHandler                       0x0800035b   Thumb Code     0  startup_stm32f40_41xxx.o(.text)
    TIM1_TRG_COM_TIM11_IRQHandler            0x0800035b   Thumb Code     0  startup_stm32f40_41xxx.o(.text)
    TIM1_UP_TIM10_IRQHandler                 0x0800035b   Thumb Code     0  startup_stm32f40_41xxx.o(.text)
    TIM2_IRQHandler                          0x0800035b   Thumb Code     0  startup_stm32f40_41xxx.o(.text)
    TIM3_IRQHandler                          0x0800035b   Thumb Code     0  startup_stm32f40_41xxx.o(.text)
    TIM4_IRQHandler                          0x0800035b   Thumb Code     0  startup_stm32f40_41xxx.o(.text)
    TIM5_IRQHandler                          0x0800035b   Thumb Code     0  startup_stm32f40_41xxx.o(.text)
    TIM7_IRQHandler                          0x0800035b   Thumb Code     0  startup_stm32f40_41xxx.o(.text)
    TIM8_BRK_TIM12_IRQHandler                0x0800035b   Thumb Code     0  startup_stm32f40_41xxx.o(.text)
    TIM8_CC_IRQHandler                       0x0800035b   Thumb Code     0  startup_stm32f40_41xxx.o(.text)
    TIM8_TRG_COM_TIM14_IRQHandler            0x0800035b   Thumb Code     0  startup_stm32f40_41xxx.o(.text)
    TIM8_UP_TIM13_IRQHandler                 0x0800035b   Thumb Code     0  startup_stm32f40_41xxx.o(.text)
    UART4_IRQHandler                         0x0800035b   Thumb Code     0  startup_stm32f40_41xxx.o(.text)
    UART5_IRQHandler                         0x0800035b   Thumb Code     0  startup_stm32f40_41xxx.o(.text)
    USART2_IRQHandler                        0x0800035b   Thumb Code     0  startup_stm32f40_41xxx.o(.text)
    WWDG_IRQHandler                          0x0800035b   Thumb Code     0  startup_stm32f40_41xxx.o(.text)
    __user_initial_stackheap                 0x0800035d   Thumb Code     0  startup_stm32f40_41xxx.o(.text)
    __use_no_semihosting                     0x08000381   Thumb Code     2  use_no_semi_2.o(.text)
    __2sprintf                               0x08000385   Thumb Code    34  noretval__2sprintf.o(.text)
    _printf_int_dec                          0x080003ad   Thumb Code   104  _printf_dec.o(.text)
    __printf                                 0x08000425   Thumb Code   270  __printf_wp.o(.text)
    __aeabi_memcpy                           0x08000533   Thumb Code     0  rt_memcpy_v6.o(.text)
    __rt_memcpy                              0x08000533   Thumb Code   138  rt_memcpy_v6.o(.text)
    _memcpy_lastbytes                        0x08000599   Thumb Code     0  rt_memcpy_v6.o(.text)
    __aeabi_memset                           0x080005bd   Thumb Code    16  aeabi_memset.o(.text)
    __aeabi_memclr                           0x080005cd   Thumb Code     0  rt_memclr.o(.text)
    __rt_memclr                              0x080005cd   Thumb Code    68  rt_memclr.o(.text)
    _memset                                  0x080005d1   Thumb Code     0  rt_memclr.o(.text)
    __aeabi_memclr4                          0x08000611   Thumb Code     0  rt_memclr_w.o(.text)
    __aeabi_memclr8                          0x08000611   Thumb Code     0  rt_memclr_w.o(.text)
    __rt_memclr_w                            0x08000611   Thumb Code    78  rt_memclr_w.o(.text)
    _memset_w                                0x08000615   Thumb Code     0  rt_memclr_w.o(.text)
    __use_two_region_memory                  0x0800065f   Thumb Code     2  heapauxi.o(.text)
    __rt_heap_escrow$2region                 0x08000661   Thumb Code     2  heapauxi.o(.text)
    __rt_heap_expand$2region                 0x08000663   Thumb Code     2  heapauxi.o(.text)
    __I$use$semihosting                      0x08000665   Thumb Code     0  use_no_semi.o(.text)
    __use_no_semihosting_swi                 0x08000665   Thumb Code     2  use_no_semi.o(.text)
    __read_errno                             0x08000667   Thumb Code    10  _rserrno.o(.text)
    __set_errno                              0x08000671   Thumb Code    12  _rserrno.o(.text)
    _printf_int_common                       0x0800067d   Thumb Code   178  _printf_intcommon.o(.text)
    __lib_sel_fp_printf                      0x0800072f   Thumb Code     2  _printf_fp_dec.o(.text)
    _printf_fp_dec_real                      0x080008e1   Thumb Code   620  _printf_fp_dec.o(.text)
    _printf_char_common                      0x08000b57   Thumb Code    32  _printf_char_common.o(.text)
    _sputc                                   0x08000b7d   Thumb Code    10  _sputc.o(.text)
    __aeabi_memcpy4                          0x08000b87   Thumb Code     0  rt_memcpy_w.o(.text)
    __aeabi_memcpy8                          0x08000b87   Thumb Code     0  rt_memcpy_w.o(.text)
    __rt_memcpy_w                            0x08000b87   Thumb Code   100  rt_memcpy_w.o(.text)
    _memcpy_lastbytes_aligned                0x08000bcf   Thumb Code     0  rt_memcpy_w.o(.text)
    __rt_locale                              0x08000bed   Thumb Code     8  rt_locale_intlibspace.o(.text)
    __aeabi_errno_addr                       0x08000bf5   Thumb Code     8  rt_errno_addr_intlibspace.o(.text)
    __errno$intlibspace                      0x08000bf5   Thumb Code     0  rt_errno_addr_intlibspace.o(.text)
    __rt_errno_addr$intlibspace              0x08000bf5   Thumb Code     0  rt_errno_addr_intlibspace.o(.text)
    _ll_udiv10                               0x08000bfd   Thumb Code   138  lludiv10.o(.text)
    _printf_fp_infnan                        0x08000c89   Thumb Code   112  _printf_fp_infnan.o(.text)
    _btod_etento                             0x08000d09   Thumb Code   224  bigflt0.o(.text)
    __user_libspace                          0x08000ded   Thumb Code     8  libspace.o(.text)
    __user_perproc_libspace                  0x08000ded   Thumb Code     0  libspace.o(.text)
    __user_perthread_libspace                0x08000ded   Thumb Code     0  libspace.o(.text)
    __user_setup_stackheap                   0x08000df5   Thumb Code    74  sys_stackheap_outer.o(.text)
    exit                                     0x08000e3f   Thumb Code    18  exit.o(.text)
    strcmp                                   0x08000e51   Thumb Code   128  strcmpv7m.o(.text)
    _btod_d2e                                0x08000ed1   Thumb Code    62  btod.o(CL$$btod_d2e)
    _d2e_denorm_low                          0x08000f0f   Thumb Code    70  btod.o(CL$$btod_d2e_denorm_low)
    _d2e_norm_op1                            0x08000f55   Thumb Code    96  btod.o(CL$$btod_d2e_norm_op1)
    __btod_div_common                        0x08000fb5   Thumb Code   696  btod.o(CL$$btod_div_common)
    _e2e                                     0x080012ed   Thumb Code   220  btod.o(CL$$btod_e2e)
    _btod_ediv                               0x080013c9   Thumb Code    42  btod.o(CL$$btod_ediv)
    _btod_emul                               0x080013f3   Thumb Code    42  btod.o(CL$$btod_emul)
    __btod_mult_common                       0x0800141d   Thumb Code   580  btod.o(CL$$btod_mult_common)
    Append_CRC16_Check_Sum                   0x08001671   Thumb Code    44  crc.o(i.Append_CRC16_Check_Sum)
    Append_CRC8_Check_Sum                    0x080016a1   Thumb Code    38  crc.o(i.Append_CRC8_Check_Sum)
    BMI088_ACCEL_NS_H                        0x080016c9   Thumb Code    12  bmi088driver.o(i.BMI088_ACCEL_NS_H)
    BMI088_ACCEL_NS_L                        0x080016d9   Thumb Code    12  bmi088driver.o(i.BMI088_ACCEL_NS_L)
    BMI088_GYRO_NS_H                         0x080016e9   Thumb Code    12  bmi088driver.o(i.BMI088_GYRO_NS_H)
    BMI088_GYRO_NS_L                         0x080016f9   Thumb Code    12  bmi088driver.o(i.BMI088_GYRO_NS_L)
    BMI088_Get_Data                          0x08001709   Thumb Code   422  bmi088driver.o(i.BMI088_Get_Data)
    BMI088_Offset_Cali                       0x080018bd   Thumb Code   334  bmi088driver.o(i.BMI088_Offset_Cali)
    BMI088_SPI_Init                          0x08001a11   Thumb Code   308  bmi088.o(i.BMI088_SPI_Init)
    BMI088_init                              0x08001b51   Thumb Code    34  bmi088driver.o(i.BMI088_init)
    BMI088_read_write_byte                   0x08001bb1   Thumb Code    50  bmi088driver.o(i.BMI088_read_write_byte)
    BSP_Init                                 0x08001bfd   Thumb Code    60  main.o(i.BSP_Init)
    Beep_Ctrl                                0x08001c39   Thumb Code    12  beep.o(i.Beep_Ctrl)
    Beep_Init                                0x08001c49   Thumb Code   152  beep.o(i.Beep_Init)
    Bullet_Block_Control                     0x08001ce9   Thumb Code   132  shoot_task.o(i.Bullet_Block_Control)
    BusFault_Handler                         0x08001d81   Thumb Code     4  stm32f4xx_it.o(i.BusFault_Handler)
    CAN12_Init                               0x08001d85   Thumb Code    12  can.o(i.CAN12_Init)
    CAN1_Init                                0x08001d91   Thumb Code   276  can.o(i.CAN1_Init)
    CAN1_RX0_IRQHandler                      0x08001ead   Thumb Code   438  can_handle.o(i.CAN1_RX0_IRQHandler)
    CAN1_TX_Chassis                          0x08002095   Thumb Code   142  can_handle.o(i.CAN1_TX_Chassis)
    CAN1_TX_Gimbal_Pitch                     0x08002135   Thumb Code   118  can_handle.o(i.CAN1_TX_Gimbal_Pitch)
    CAN1_TX_Gimbal_Yaw                       0x080021bd   Thumb Code   128  can_handle.o(i.CAN1_TX_Gimbal_Yaw)
    CAN1_TX_IRQHandler                       0x08002251   Thumb Code    28  can_handle.o(i.CAN1_TX_IRQHandler)
    CAN1_TX_SuperCap                         0x08002275   Thumb Code   328  can_handle.o(i.CAN1_TX_SuperCap)
    CAN2_Init                                0x080023dd   Thumb Code   288  can.o(i.CAN2_Init)
    CAN2_RX0_IRQHandler                      0x08002505   Thumb Code   102  can_handle.o(i.CAN2_RX0_IRQHandler)
    CAN2_TX_IRQHandler                       0x08002579   Thumb Code    28  can_handle.o(i.CAN2_TX_IRQHandler)
    CAN2_TX_Shoot                            0x0800259d   Thumb Code   128  can_handle.o(i.CAN2_TX_Shoot)
    CAN_ClearITPendingBit                    0x0800262d   Thumb Code   162  stm32f4xx_can.o(i.CAN_ClearITPendingBit)
    CAN_Data_Decode                          0x080026d5   Thumb Code    80  can_handle.o(i.CAN_Data_Decode)
    CAN_DeInit                               0x08002725   Thumb Code    50  stm32f4xx_can.o(i.CAN_DeInit)
    CAN_FilterInit                           0x0800275d   Thumb Code   258  stm32f4xx_can.o(i.CAN_FilterInit)
    CAN_GetITStatus                          0x08002865   Thumb Code   284  stm32f4xx_can.o(i.CAN_GetITStatus)
    CAN_ITConfig                             0x08002985   Thumb Code    18  stm32f4xx_can.o(i.CAN_ITConfig)
    CAN_Init                                 0x08002997   Thumb Code   276  stm32f4xx_can.o(i.CAN_Init)
    CAN_Receive                              0x08002aab   Thumb Code   240  stm32f4xx_can.o(i.CAN_Receive)
    CAN_StructInit                           0x08002b9b   Thumb Code    32  stm32f4xx_can.o(i.CAN_StructInit)
    CAN_Transmit                             0x08002bbb   Thumb Code   294  stm32f4xx_can.o(i.CAN_Transmit)
    Chassis_Follow_Control                   0x08002ce1   Thumb Code   720  chassis_task.o(i.Chassis_Follow_Control)
    Chassis_Init                             0x08002ff1   Thumb Code   138  chassis.o(i.Chassis_Init)
    Chassis_Power_Limit                      0x080030a5   Thumb Code   132  chassis_task.o(i.Chassis_Power_Limit)
    Chassis_Rotate_Control                   0x08003139   Thumb Code   524  chassis_task.o(i.Chassis_Rotate_Control)
    Chassis_Speed_Calc                       0x08003381   Thumb Code   252  chassis_task.o(i.Chassis_Speed_Calc)
    Chassis_Stop_Control                     0x08003489   Thumb Code    28  chassis_task.o(i.Chassis_Stop_Control)
    Chassis_SuperCap_Control                 0x080034ad   Thumb Code    90  chassis_task.o(i.Chassis_SuperCap_Control)
    Chassis_SuperCap_HomeMade_Control        0x08003515   Thumb Code   148  chassis_task.o(i.Chassis_SuperCap_HomeMade_Control)
    Chassis_SuperCap_Wulie_Control           0x080035c5   Thumb Code   382  chassis_task.o(i.Chassis_SuperCap_Wulie_Control)
    DMA2_Stream7_IRQHandler                  0x0800378d   Thumb Code    40  nuc.o(i.DMA2_Stream7_IRQHandler)
    DMA_ClearITPendingBit                    0x080037bd   Thumb Code    38  stm32f4xx_dma.o(i.DMA_ClearITPendingBit)
    DMA_Cmd                                  0x080037f1   Thumb Code    22  stm32f4xx_dma.o(i.DMA_Cmd)
    DMA_DeInit                               0x08003809   Thumb Code   324  stm32f4xx_dma.o(i.DMA_DeInit)
    DMA_DoubleBufferModeCmd                  0x08003961   Thumb Code    22  stm32f4xx_dma.o(i.DMA_DoubleBufferModeCmd)
    DMA_DoubleBufferModeConfig               0x08003977   Thumb Code    24  stm32f4xx_dma.o(i.DMA_DoubleBufferModeConfig)
    DMA_GetCurrDataCounter                   0x0800398f   Thumb Code     8  stm32f4xx_dma.o(i.DMA_GetCurrDataCounter)
    DMA_GetCurrentMemoryTarget               0x08003997   Thumb Code    20  stm32f4xx_dma.o(i.DMA_GetCurrentMemoryTarget)
    DMA_GetITStatus                          0x080039ad   Thumb Code    82  stm32f4xx_dma.o(i.DMA_GetITStatus)
    DMA_ITConfig                             0x08003a11   Thumb Code    58  stm32f4xx_dma.o(i.DMA_ITConfig)
    DMA_Init                                 0x08003a4d   Thumb Code    82  stm32f4xx_dma.o(i.DMA_Init)
    DMA_SetCurrDataCounter                   0x08003aa5   Thumb Code     4  stm32f4xx_dma.o(i.DMA_SetCurrDataCounter)
    DR16_DataDecode                          0x08003aa9   Thumb Code   202  dr16.o(i.DR16_DataDecode)
    DR16_Init                                0x08003b7d   Thumb Code    16  dr16.o(i.DR16_Init)
    DR16_USART_DMA_Init                      0x08003b8d   Thumb Code   130  dr16.o(i.DR16_USART_DMA_Init)
    DR16_USART_Init                          0x08003c1d   Thumb Code   142  dr16.o(i.DR16_USART_Init)
    DR16_USART_NVIC_Init                     0x08003cb9   Thumb Code    34  dr16.o(i.DR16_USART_NVIC_Init)
    DebugMon_Handler                         0x08003cdb   Thumb Code     2  stm32f4xx_it.o(i.DebugMon_Handler)
    Draw_Char                                0x08003cdd   Thumb Code   238  custom_ui.o(i.Draw_Char)
    Draw_Circle                              0x08003dd5   Thumb Code   188  custom_ui.o(i.Draw_Circle)
    Draw_Float                               0x08003e99   Thumb Code   208  custom_ui.o(i.Draw_Float)
    Draw_Int                                 0x08003f71   Thumb Code   194  custom_ui.o(i.Draw_Int)
    Draw_Line                                0x0800403d   Thumb Code   196  custom_ui.o(i.Draw_Line)
    EXTI9_5_IRQHandler                       0x08004109   Thumb Code    20  imu.o(i.EXTI9_5_IRQHandler)
    EXTI_ClearITPendingBit                   0x0800411d   Thumb Code     6  stm32f4xx_exti.o(i.EXTI_ClearITPendingBit)
    EXTI_GetITStatus                         0x08004129   Thumb Code    20  stm32f4xx_exti.o(i.EXTI_GetITStatus)
    Encoder_Data_Process                     0x08004141   Thumb Code    30  gimbal.o(i.Encoder_Data_Process)
    FLASH_DataCacheCmd                       0x08004161   Thumb Code    30  stm32f4xx_flash.o(i.FLASH_DataCacheCmd)
    FLASH_EraseSector                        0x08004185   Thumb Code   130  stm32f4xx_flash.o(i.FLASH_EraseSector)
    FLASH_GetStatus                          0x0800420d   Thumb Code    80  stm32f4xx_flash.o(i.FLASH_GetStatus)
    FLASH_Lock                               0x08004261   Thumb Code    14  stm32f4xx_flash.o(i.FLASH_Lock)
    FLASH_ProgramWord                        0x08004275   Thumb Code    74  stm32f4xx_flash.o(i.FLASH_ProgramWord)
    FLASH_Unlock                             0x080042c5   Thumb Code    24  stm32f4xx_flash.o(i.FLASH_Unlock)
    FLASH_WaitForLastOperation               0x080042e9   Thumb Code    34  stm32f4xx_flash.o(i.FLASH_WaitForLastOperation)
    GPIO_Init                                0x0800430b   Thumb Code   144  stm32f4xx_gpio.o(i.GPIO_Init)
    GPIO_PinAFConfig                         0x0800439b   Thumb Code    70  stm32f4xx_gpio.o(i.GPIO_PinAFConfig)
    GPIO_ReadInputDataBit                    0x080043e1   Thumb Code    18  stm32f4xx_gpio.o(i.GPIO_ReadInputDataBit)
    GPIO_ResetBits                           0x080043f3   Thumb Code     4  stm32f4xx_gpio.o(i.GPIO_ResetBits)
    GPIO_SetBits                             0x080043f7   Thumb Code     4  stm32f4xx_gpio.o(i.GPIO_SetBits)
    GPIO_ToggleBits                          0x080043fb   Thumb Code     8  stm32f4xx_gpio.o(i.GPIO_ToggleBits)
    Get_CRC16_Check_Sum                      0x08004405   Thumb Code    46  crc.o(i.Get_CRC16_Check_Sum)
    Get_CRC8_Check_Sum                       0x08004439   Thumb Code    32  crc.o(i.Get_CRC8_Check_Sum)
    Get_Chassis_Keyboard                     0x0800445d   Thumb Code   320  mode_task.o(i.Get_Chassis_Keyboard)
    Get_Chassis_Mode                         0x080045cd   Thumb Code   128  mode_task.o(i.Get_Chassis_Mode)
    Get_Chassis_RC                           0x0800465d   Thumb Code   112  mode_task.o(i.Get_Chassis_RC)
    Get_Gimbal_Mode                          0x080046e1   Thumb Code    76  mode_task.o(i.Get_Gimbal_Mode)
    Get_Keyboard_Mode                        0x08004735   Thumb Code   182  mode_task.o(i.Get_Keyboard_Mode)
    Get_Shoot_Mode                           0x08004801   Thumb Code   350  mode_task.o(i.Get_Shoot_Mode)
    Gimbal_Angle_Calibrate                   0x08004981   Thumb Code   376  gimbal.o(i.Gimbal_Angle_Calibrate)
    Gimbal_Angle_Read                        0x08004b09   Thumb Code   116  gimbal.o(i.Gimbal_Angle_Read)
    Gimbal_AutoAim_Control                   0x08004b85   Thumb Code   636  gimbal_task.o(i.Gimbal_AutoAim_Control)
    Gimbal_Follow_Control                    0x08004e5d   Thumb Code   668  gimbal_task.o(i.Gimbal_Follow_Control)
    Gimbal_Init                              0x08005141   Thumb Code  1152  gimbal.o(i.Gimbal_Init)
    Gimbal_Stop_Control                      0x080055c1   Thumb Code    14  gimbal_task.o(i.Gimbal_Stop_Control)
    HardFault_Handler                        0x080055d5   Thumb Code     4  stm32f4xx_it.o(i.HardFault_Handler)
    IMU_Ahrs_Update                          0x080055d9   Thumb Code  1834  imu.o(i.IMU_Ahrs_Update)
    IMU_Attitude_Update                      0x08005d49   Thumb Code   490  imu.o(i.IMU_Attitude_Update)
    LED_Init                                 0x08005f51   Thumb Code    54  led.o(i.LED_Init)
    LED_Run                                  0x08005f8d   Thumb Code    14  led.o(i.LED_Run)
    Laser_Init                               0x08005fa1   Thumb Code    54  laser.o(i.Laser_Init)
    MemManage_Handler                        0x08005fdd   Thumb Code     4  stm32f4xx_it.o(i.MemManage_Handler)
    NMI_Handler                              0x08005fe1   Thumb Code     2  stm32f4xx_it.o(i.NMI_Handler)
    NUC_Data_Decode                          0x08005fe5   Thumb Code   108  nuc.o(i.NUC_Data_Decode)
    NUC_Init                                 0x0800605d   Thumb Code    16  nuc.o(i.NUC_Init)
    NUC_Send_Data                            0x0800606d   Thumb Code   416  nuc.o(i.NUC_Send_Data)
    NUC_USART_DMA_Init                       0x0800624d   Thumb Code   224  nuc.o(i.NUC_USART_DMA_Init)
    NUC_USART_Init                           0x0800633d   Thumb Code   174  nuc.o(i.NUC_USART_Init)
    NUC_USART_NVIC_Init                      0x080063f9   Thumb Code    64  nuc.o(i.NUC_USART_NVIC_Init)
    NVIC_Init                                0x08006439   Thumb Code   106  misc.o(i.NVIC_Init)
    NVIC_PriorityGroupConfig                 0x080064b1   Thumb Code    10  misc.o(i.NVIC_PriorityGroupConfig)
    Pid_Calc                                 0x080064c5   Thumb Code   540  pid.o(i.Pid_Calc)
    Pid_Reset                                0x080066e5   Thumb Code   154  pid.o(i.Pid_Reset)
    Pid_Set                                  0x08006785   Thumb Code    46  pid.o(i.Pid_Set)
    RCC_AHB1PeriphClockCmd                   0x080067b5   Thumb Code    26  stm32f4xx_rcc.o(i.RCC_AHB1PeriphClockCmd)
    RCC_APB1PeriphClockCmd                   0x080067d5   Thumb Code    26  stm32f4xx_rcc.o(i.RCC_APB1PeriphClockCmd)
    RCC_APB1PeriphResetCmd                   0x080067f5   Thumb Code    26  stm32f4xx_rcc.o(i.RCC_APB1PeriphResetCmd)
    RCC_APB2PeriphClockCmd                   0x08006815   Thumb Code    26  stm32f4xx_rcc.o(i.RCC_APB2PeriphClockCmd)
    RCC_APB2PeriphResetCmd                   0x08006835   Thumb Code    26  stm32f4xx_rcc.o(i.RCC_APB2PeriphResetCmd)
    RCC_GetClocksFreq                        0x08006855   Thumb Code   214  stm32f4xx_rcc.o(i.RCC_GetClocksFreq)
    RefereeInfo_Decode                       0x0800693d   Thumb Code   326  referee_info.o(i.RefereeInfo_Decode)
    Referee_Init                             0x08006a99   Thumb Code    16  referee.o(i.Referee_Init)
    Referee_USART_DMA_Init                   0x08006aa9   Thumb Code   128  referee.o(i.Referee_USART_DMA_Init)
    Referee_USART_Init                       0x08006b39   Thumb Code   148  referee.o(i.Referee_USART_Init)
    Referee_USART_NVIC_Init                  0x08006bd5   Thumb Code    32  referee.o(i.Referee_USART_NVIC_Init)
    SPI_Cmd                                  0x08006bf5   Thumb Code    24  stm32f4xx_spi.o(i.SPI_Cmd)
    SPI_I2S_GetFlagStatus                    0x08006c0d   Thumb Code    18  stm32f4xx_spi.o(i.SPI_I2S_GetFlagStatus)
    SPI_I2S_ReceiveData                      0x08006c1f   Thumb Code     6  stm32f4xx_spi.o(i.SPI_I2S_ReceiveData)
    SPI_I2S_SendData                         0x08006c25   Thumb Code     4  stm32f4xx_spi.o(i.SPI_I2S_SendData)
    SPI_Init                                 0x08006c29   Thumb Code    60  stm32f4xx_spi.o(i.SPI_Init)
    STMFLASH_GetFlashSector                  0x08006c65   Thumb Code   116  flash.o(i.STMFLASH_GetFlashSector)
    STMFLASH_Read                            0x08006d05   Thumb Code    32  flash.o(i.STMFLASH_Read)
    STMFLASH_ReadWord                        0x08006d25   Thumb Code     6  flash.o(i.STMFLASH_ReadWord)
    STMFLASH_Write                           0x08006d2d   Thumb Code   146  flash.o(i.STMFLASH_Write)
    Shoot_Init                               0x08006eb1   Thumb Code   170  shoot.o(i.Shoot_Init)
    Shoot_Run_Control                        0x08006f89   Thumb Code   620  shoot_task.o(i.Shoot_Run_Control)
    Shoot_Stop_Control                       0x0800724d   Thumb Code   138  shoot_task.o(i.Shoot_Stop_Control)
    Show_UI                                  0x080072f1   Thumb Code  4160  custom_ui.o(i.Show_UI)
    SysTick_CLKSourceConfig                  0x08008331   Thumb Code    40  misc.o(i.SysTick_CLKSourceConfig)
    SysTick_Handler                          0x08008359   Thumb Code    16  delay.o(i.SysTick_Handler)
    SystemInit                               0x08008369   Thumb Code    88  system_stm32f4xx.o(i.SystemInit)
    TIM6_DAC_IRQHandler                      0x080083d1   Thumb Code   228  tim6.o(i.TIM6_DAC_IRQHandler)
    TIM6_Init                                0x080084e1   Thumb Code    86  tim6.o(i.TIM6_Init)
    TIM_ARRPreloadConfig                     0x0800853d   Thumb Code    24  stm32f4xx_tim.o(i.TIM_ARRPreloadConfig)
    TIM_ClearITPendingBit                    0x08008555   Thumb Code     6  stm32f4xx_tim.o(i.TIM_ClearITPendingBit)
    TIM_Cmd                                  0x0800855b   Thumb Code    24  stm32f4xx_tim.o(i.TIM_Cmd)
    TIM_GetITStatus                          0x08008573   Thumb Code    34  stm32f4xx_tim.o(i.TIM_GetITStatus)
    TIM_ITConfig                             0x08008595   Thumb Code    18  stm32f4xx_tim.o(i.TIM_ITConfig)
    TIM_OC3Init                              0x080085a9   Thumb Code   150  stm32f4xx_tim.o(i.TIM_OC3Init)
    TIM_OC3PreloadConfig                     0x08008649   Thumb Code    18  stm32f4xx_tim.o(i.TIM_OC3PreloadConfig)
    TIM_TimeBaseInit                         0x0800865d   Thumb Code   104  stm32f4xx_tim.o(i.TIM_TimeBaseInit)
    Task_Init                                0x080086e1   Thumb Code     8  task_init.o(i.Task_Init)
    USART1_IRQHandler                        0x080086e9   Thumb Code   124  nuc.o(i.USART1_IRQHandler)
    USART3_IRQHandler                        0x08008771   Thumb Code   124  dr16.o(i.USART3_IRQHandler)
    USART6_IRQHandler                        0x080087f9   Thumb Code   330  referee.o(i.USART6_IRQHandler)
    USART_ClearFlag                          0x08008951   Thumb Code    18  stm32f4xx_usart.o(i.USART_ClearFlag)
    USART_Cmd                                0x08008963   Thumb Code    24  stm32f4xx_usart.o(i.USART_Cmd)
    USART_DMACmd                             0x0800897b   Thumb Code    18  stm32f4xx_usart.o(i.USART_DMACmd)
    USART_GetFlagStatus                      0x0800898d   Thumb Code    26  stm32f4xx_usart.o(i.USART_GetFlagStatus)
    USART_GetITStatus                        0x080089a7   Thumb Code    84  stm32f4xx_usart.o(i.USART_GetITStatus)
    USART_ITConfig                           0x080089fb   Thumb Code    74  stm32f4xx_usart.o(i.USART_ITConfig)
    USART_Init                               0x08008a45   Thumb Code   204  stm32f4xx_usart.o(i.USART_Init)
    USART_ReceiveData                        0x08008b19   Thumb Code    10  stm32f4xx_usart.o(i.USART_ReceiveData)
    USART_SendData                           0x08008b23   Thumb Code     8  stm32f4xx_usart.o(i.USART_SendData)
    UsageFault_Handler                       0x08008b2b   Thumb Code     4  stm32f4xx_it.o(i.UsageFault_Handler)
    Verify_CRC16_Check_Sum                   0x08008b31   Thumb Code    60  crc.o(i.Verify_CRC16_Check_Sum)
    Verify_CRC8_Check_Sum                    0x08008b71   Thumb Code    48  crc.o(i.Verify_CRC8_Check_Sum)
    __ARM_fpclassify                         0x08008ba1   Thumb Code    48  fpclassify.o(i.__ARM_fpclassify)
    __hardfp_asin                            0x08008bd1   Thumb Code   770  asin.o(i.__hardfp_asin)
    __hardfp_atan                            0x08008f31   Thumb Code   622  atan.o(i.__hardfp_atan)
    __hardfp_atan2                           0x08009209   Thumb Code   432  atan2.o(i.__hardfp_atan2)
    __hardfp_cos                             0x080093f9   Thumb Code   180  cos.o(i.__hardfp_cos)
    __hardfp_fabs                            0x080094c1   Thumb Code    20  fabs.o(i.__hardfp_fabs)
    __hardfp_sin                             0x080094d9   Thumb Code   180  sin.o(i.__hardfp_sin)
    __hardfp_sqrt                            0x080095a1   Thumb Code   122  sqrt.o(i.__hardfp_sqrt)
    __ieee754_rem_pio2                       0x08009621   Thumb Code   938  rred.o(i.__ieee754_rem_pio2)
    __kernel_cos                             0x08009a59   Thumb Code   322  cos_i.o(i.__kernel_cos)
    __kernel_poly                            0x08009bc9   Thumb Code   248  poly.o(i.__kernel_poly)
    __kernel_sin                             0x08009cc1   Thumb Code   280  sin_i.o(i.__kernel_sin)
    __mathlib_dbl_infnan                     0x08009df1   Thumb Code    20  dunder.o(i.__mathlib_dbl_infnan)
    __mathlib_dbl_infnan2                    0x08009e05   Thumb Code    20  dunder.o(i.__mathlib_dbl_infnan2)
    __mathlib_dbl_invalid                    0x08009e19   Thumb Code    24  dunder.o(i.__mathlib_dbl_invalid)
    __mathlib_dbl_underflow                  0x08009e39   Thumb Code    24  dunder.o(i.__mathlib_dbl_underflow)
    _is_digit                                0x08009e59   Thumb Code    14  __printf_wp.o(i._is_digit)
    _sys_exit                                0x08009e67   Thumb Code     4  usart.o(i._sys_exit)
    atan                                     0x08009e6b   Thumb Code    16  atan.o(i.atan)
    bit8TObit16                              0x08009e7b   Thumb Code    22  referee_info.o(i.bit8TObit16)
    bit8TObit32                              0x08009e91   Thumb Code    32  referee_info.o(i.bit8TObit32)
    bmi088_accel_init                        0x08009eb1   Thumb Code   290  bmi088driver.o(i.bmi088_accel_init)
    bmi088_gyro_init                         0x08009fd9   Thumb Code   238  bmi088driver.o(i.bmi088_gyro_init)
    can_send_task                            0x0800a0cd   Thumb Code    70  can_send_task.o(i.can_send_task)
    can_send_task_create                     0x0800a119   Thumb Code    26  can_send_task.o(i.can_send_task_create)
    chassis_task                             0x0800a14d   Thumb Code   186  chassis_task.o(i.chassis_task)
    chassis_task_create                      0x0800a21d   Thumb Code    26  chassis_task.o(i.chassis_task_create)
    delay_init                               0x0800a251   Thumb Code    58  delay.o(i.delay_init)
    delay_ms                                 0x0800a295   Thumb Code    62  delay.o(i.delay_ms)
    delay_us                                 0x0800a2d9   Thumb Code    68  delay.o(i.delay_us)
    delay_xms                                0x0800a321   Thumb Code    24  delay.o(i.delay_xms)
    fabs                                     0x0800a339   Thumb Code    24  fabs.o(i.fabs)
    gimbal_task                              0x0800a351   Thumb Code    80  gimbal_task.o(i.gimbal_task)
    gimbal_task_create                       0x0800a3a9   Thumb Code    26  gimbal_task.o(i.gimbal_task_create)
    imu_task                                 0x0800a3d9   Thumb Code    34  imu_task.o(i.imu_task)
    imu_task_create                          0x0800a3fd   Thumb Code    26  imu_task.o(i.imu_task_create)
    inv_sqrt                                 0x0800a42d   Thumb Code    48  imu.o(i.inv_sqrt)
    led_task                                 0x0800a461   Thumb Code    48  led_task.o(i.led_task)
    led_task_create                          0x0800a491   Thumb Code    26  led_task.o(i.led_task_create)
    limit_Init                               0x0800a4c1   Thumb Code    48  limit.o(i.limit_Init)
    main                                     0x0800a4f5   Thumb Code    28  main.o(i.main)
    mode_task                                0x0800a511   Thumb Code   146  mode_task.o(i.mode_task)
    mode_task_create                         0x0800a5c9   Thumb Code    26  mode_task.o(i.mode_task_create)
    nuc_task                                 0x0800a5f9   Thumb Code    36  nuc_task.o(i.nuc_task)
    nuc_task_create                          0x0800a621   Thumb Code    26  nuc_task.o(i.nuc_task_create)
    pvPortMalloc                             0x0800aff5   Thumb Code   296  heap_4.o(i.pvPortMalloc)
    pvTaskIncrementMutexHeldCount            0x0800b131   Thumb Code    26  tasks.o(i.pvTaskIncrementMutexHeldCount)
    pxPortInitialiseStack                    0x0800b151   Thumb Code    38  port.o(i.pxPortInitialiseStack)
    ramp_calc                                0x0800b17d   Thumb Code    58  ramp.o(i.ramp_calc)
    ramp_init                                0x0800b1bd   Thumb Code     8  ramp.o(i.ramp_init)
    referee_data_pack_handle                 0x0800b1c5   Thumb Code   158  referee.o(i.referee_data_pack_handle)
    shoot_task                               0x0800b26d   Thumb Code    64  shoot_task.o(i.shoot_task)
    shoot_task_create                        0x0800b2b5   Thumb Code    24  shoot_task.o(i.shoot_task_create)
    sqrt                                     0x0800b2e1   Thumb Code   110  sqrt.o(i.sqrt)
    start_task                               0x0800b351   Thumb Code    68  task_init.o(i.start_task)
    start_task_create                        0x0800b39d   Thumb Code    28  task_init.o(i.start_task_create)
    supercap_task                            0x0800b3cd   Thumb Code    32  supercap_task.o(i.supercap_task)
    supercap_task_create                     0x0800b3f1   Thumb Code    24  supercap_task.o(i.supercap_task_create)
    ui_task                                  0x0800b421   Thumb Code    14  ui_task.o(i.ui_task)
    ui_task_create                           0x0800b431   Thumb Code    26  ui_task.o(i.ui_task_create)
    uxListRemove                             0x0800b45d   Thumb Code    40  list.o(i.uxListRemove)
    uxTaskResetEventItemValue                0x0800b485   Thumb Code    24  tasks.o(i.uxTaskResetEventItemValue)
    vListInitialise                          0x0800b4a1   Thumb Code    26  list.o(i.vListInitialise)
    vListInitialiseItem                      0x0800b4bb   Thumb Code     6  list.o(i.vListInitialiseItem)
    vListInsert                              0x0800b4c1   Thumb Code    52  list.o(i.vListInsert)
    vListInsertEnd                           0x0800b4f5   Thumb Code    24  list.o(i.vListInsertEnd)
    vPortEnterCritical                       0x0800b50d   Thumb Code    76  port.o(i.vPortEnterCritical)
    vPortExitCritical                        0x0800b561   Thumb Code    56  port.o(i.vPortExitCritical)
    vPortFree                                0x0800b59d   Thumb Code   140  heap_4.o(i.vPortFree)
    vPortSetupTimerInterrupt                 0x0800b631   Thumb Code    26  port.o(i.vPortSetupTimerInterrupt)
    vPortValidateInterruptPriority           0x0800b651   Thumb Code   106  port.o(i.vPortValidateInterruptPriority)
    vQueueAddToRegistry                      0x0800b6c9   Thumb Code    38  queue.o(i.vQueueAddToRegistry)
    vQueueWaitForMessageRestricted           0x0800b6f5   Thumb Code    74  queue.o(i.vQueueWaitForMessageRestricted)
    vTaskDelay                               0x0800b741   Thumb Code    82  tasks.o(i.vTaskDelay)
    vTaskDelayUntil                          0x0800b79d   Thumb Code   200  tasks.o(i.vTaskDelayUntil)
    vTaskDelete                              0x0800b871   Thumb Code   202  tasks.o(i.vTaskDelete)
    vTaskMissedYield                         0x0800b965   Thumb Code     8  tasks.o(i.vTaskMissedYield)
    vTaskPlaceOnEventList                    0x0800b971   Thumb Code    52  tasks.o(i.vTaskPlaceOnEventList)
    vTaskPlaceOnEventListRestricted          0x0800b9a9   Thumb Code    60  tasks.o(i.vTaskPlaceOnEventListRestricted)
    vTaskPlaceOnUnorderedEventList           0x0800b9e9   Thumb Code   100  tasks.o(i.vTaskPlaceOnUnorderedEventList)
    vTaskPriorityInherit                     0x0800ba55   Thumb Code   164  tasks.o(i.vTaskPriorityInherit)
    vTaskSetTimeOutState                     0x0800bb05   Thumb Code    38  tasks.o(i.vTaskSetTimeOutState)
    vTaskStartScheduler                      0x0800bb35   Thumb Code   118  tasks.o(i.vTaskStartScheduler)
    vTaskSuspendAll                          0x0800bbc9   Thumb Code    12  tasks.o(i.vTaskSuspendAll)
    vTaskSwitchContext                       0x0800bbd9   Thumb Code   118  tasks.o(i.vTaskSwitchContext)
    xEventGroupCreate                        0x0800bc65   Thumb Code    26  event_groups.o(i.xEventGroupCreate)
    xEventGroupSetBits                       0x0800bc7f   Thumb Code   206  event_groups.o(i.xEventGroupSetBits)
    xEventGroupWaitBits                      0x0800bd4d   Thumb Code   334  event_groups.o(i.xEventGroupWaitBits)
    xPortStartScheduler                      0x0800bea1   Thumb Code   288  port.o(i.xPortStartScheduler)
    xPortSysTickHandler                      0x0800bfdd   Thumb Code    46  port.o(i.xPortSysTickHandler)
    xQueueGenericCreate                      0x0800c011   Thumb Code    88  queue.o(i.xQueueGenericCreate)
    xQueueGenericReceive                     0x0800c069   Thumb Code   446  queue.o(i.xQueueGenericReceive)
    xQueueGenericReset                       0x0800c22d   Thumb Code   146  queue.o(i.xQueueGenericReset)
    xQueueGenericSend                        0x0800c2c5   Thumb Code   420  queue.o(i.xQueueGenericSend)
    xQueueGenericSendFromISR                 0x0800c46d   Thumb Code   248  queue.o(i.xQueueGenericSendFromISR)
    xTaskCheckForTimeOut                     0x0800c565   Thumb Code   132  tasks.o(i.xTaskCheckForTimeOut)
    xTaskCreate                              0x0800c5f1   Thumb Code    96  tasks.o(i.xTaskCreate)
    xTaskGetSchedulerState                   0x0800c651   Thumb Code    24  tasks.o(i.xTaskGetSchedulerState)
    xTaskGetTickCount                        0x0800c671   Thumb Code     6  tasks.o(i.xTaskGetTickCount)
    xTaskIncrementTick                       0x0800c67d   Thumb Code   282  tasks.o(i.xTaskIncrementTick)
    xTaskPriorityDisinherit                  0x0800c7c5   Thumb Code   188  tasks.o(i.xTaskPriorityDisinherit)
    xTaskRemoveFromEventList                 0x0800c88d   Thumb Code   128  tasks.o(i.xTaskRemoveFromEventList)
    xTaskRemoveFromUnorderedEventList        0x0800c925   Thumb Code   154  tasks.o(i.xTaskRemoveFromUnorderedEventList)
    xTaskResumeAll                           0x0800c9d5   Thumb Code   224  tasks.o(i.xTaskResumeAll)
    xTimerCreateTimerTask                    0x0800cad9   Thumb Code    66  timers.o(i.xTimerCreateTimerTask)
    xTimerGenericCommand                     0x0800cb31   Thumb Code   126  timers.o(i.xTimerGenericCommand)
    _get_lc_numeric                          0x0800cbb5   Thumb Code    44  lc_numeric_c.o(locale$$code)
    __aeabi_dneg                             0x0800cbe1   Thumb Code     0  basic.o(x$fpl$basic)
    _dneg                                    0x0800cbe1   Thumb Code     6  basic.o(x$fpl$basic)
    __aeabi_fneg                             0x0800cbe7   Thumb Code     0  basic.o(x$fpl$basic)
    _fneg                                    0x0800cbe7   Thumb Code     6  basic.o(x$fpl$basic)
    _dabs                                    0x0800cbed   Thumb Code     6  basic.o(x$fpl$basic)
    _fabs                                    0x0800cbf3   Thumb Code     6  basic.o(x$fpl$basic)
    __aeabi_d2f                              0x0800cbf9   Thumb Code     0  d2f.o(x$fpl$d2f)
    _d2f                                     0x0800cbf9   Thumb Code    98  d2f.o(x$fpl$d2f)
    __aeabi_dadd                             0x0800cc5d   Thumb Code     0  daddsub_clz.o(x$fpl$dadd)
    _dadd                                    0x0800cc5d   Thumb Code   332  daddsub_clz.o(x$fpl$dadd)
    __fpl_dcmp_Inf                           0x0800cdad   Thumb Code    24  dcmpi.o(x$fpl$dcmpinf)
    __aeabi_ddiv                             0x0800cdc5   Thumb Code     0  ddiv.o(x$fpl$ddiv)
    _ddiv                                    0x0800cdc5   Thumb Code   552  ddiv.o(x$fpl$ddiv)
    __aeabi_d2iz                             0x0800d075   Thumb Code     0  dfix.o(x$fpl$dfix)
    _dfix                                    0x0800d075   Thumb Code    94  dfix.o(x$fpl$dfix)
    __aeabi_i2d                              0x0800d0d3   Thumb Code     0  dflt_clz.o(x$fpl$dflt)
    _dflt                                    0x0800d0d3   Thumb Code    46  dflt_clz.o(x$fpl$dflt)
    __aeabi_ui2d                             0x0800d101   Thumb Code     0  dflt_clz.o(x$fpl$dfltu)
    _dfltu                                   0x0800d101   Thumb Code    38  dflt_clz.o(x$fpl$dfltu)
    __aeabi_cdcmple                          0x0800d129   Thumb Code     0  dleqf.o(x$fpl$dleqf)
    _dcmple                                  0x0800d129   Thumb Code   120  dleqf.o(x$fpl$dleqf)
    __fpl_dcmple_InfNaN                      0x0800d18b   Thumb Code     0  dleqf.o(x$fpl$dleqf)
    __aeabi_dmul                             0x0800d1a1   Thumb Code     0  dmul.o(x$fpl$dmul)
    _dmul                                    0x0800d1a1   Thumb Code   332  dmul.o(x$fpl$dmul)
    __fpl_dnaninf                            0x0800d2f5   Thumb Code   156  dnaninf.o(x$fpl$dnaninf)
    __fpl_dretinf                            0x0800d391   Thumb Code    12  dretinf.o(x$fpl$dretinf)
    __aeabi_cdrcmple                         0x0800d39d   Thumb Code     0  drleqf.o(x$fpl$drleqf)
    _drcmple                                 0x0800d39d   Thumb Code   108  drleqf.o(x$fpl$drleqf)
    __aeabi_drsub                            0x0800d409   Thumb Code     0  daddsub_clz.o(x$fpl$drsb)
    _drsb                                    0x0800d409   Thumb Code    22  daddsub_clz.o(x$fpl$drsb)
    _dsqrt                                   0x0800d421   Thumb Code   404  dsqrt_umaal.o(x$fpl$dsqrt)
    __aeabi_dsub                             0x0800d5b9   Thumb Code     0  daddsub_clz.o(x$fpl$dsub)
    _dsub                                    0x0800d5b9   Thumb Code   464  daddsub_clz.o(x$fpl$dsub)
    __aeabi_f2d                              0x0800d78d   Thumb Code     0  f2d.o(x$fpl$f2d)
    _f2d                                     0x0800d78d   Thumb Code    86  f2d.o(x$fpl$f2d)
    __fpl_fnaninf                            0x0800d7e3   Thumb Code   140  fnaninf.o(x$fpl$fnaninf)
    _fp_init                                 0x0800d86f   Thumb Code    10  fpinit.o(x$fpl$fpinit)
    __fplib_config_fpu_vfp                   0x0800d877   Thumb Code     0  fpinit.o(x$fpl$fpinit)
    __fplib_config_pureend_doubles           0x0800d877   Thumb Code     0  fpinit.o(x$fpl$fpinit)
    __fpl_fretinf                            0x0800d879   Thumb Code    10  fretinf.o(x$fpl$fretinf)
    _printf_fp_dec                           0x0800d883   Thumb Code     4  printf1.o(x$fpl$printf1)
    CRC8_INIT                                0x0800d886   Data           1  crc.o(.constdata)
    __I$use$fp                               0x0800d886   Number         0  usenofp.o(x$fpl$usenofp)
    CRC8_TAB                                 0x0800d887   Data         256  crc.o(.constdata)
    wCRC_Table                               0x0800d988   Data         512  crc.o(.constdata)
    __mathlib_zero                           0x0800dca0   Data           8  qnan.o(.constdata)
    Region$$Table$$Base                      0x0800de2c   Number         0  anon$$obj.o(Region$$Table)
    Region$$Table$$Limit                     0x0800de4c   Number         0  anon$$obj.o(Region$$Table)
    SystemCoreClock                          0x20000000   Data           4  system_stm32f4xx.o(.data)
    AHBPrescTable                            0x20000004   Data          16  system_stm32f4xx.o(.data)
    BMI088_ACCEL_SEN                         0x20000014   Data           4  bmi088driver.o(.data)
    BMI088_GYRO_SEN                          0x20000018   Data           4  bmi088driver.o(.data)
    SuperCap_Signal                          0x20000040   Data           4  can_handle.o(.data)
    Rudder_Signal                            0x20000044   Data           4  can_handle.o(.data)
    CAN1_Tx_Message_Flag                     0x20000048   Data           1  can_handle.o(.data)
    CAN2_Tx_Message_Flag                     0x20000049   Data           1  can_handle.o(.data)
    CAN1_Signal                              0x2000004c   Data           4  can_handle.o(.data)
    CAN2_Signal                              0x20000050   Data           4  can_handle.o(.data)
    power_relay                              0x20000054   Data           4  can_handle.o(.data)
    power_flag                               0x20000058   Data           4  can_handle.o(.data)
    DR16_Signal                              0x2000005c   Data           4  dr16.o(.data)
    CRC_INIT                                 0x20000060   Data           2  crc.o(.data)
    Sendor_ID                                0x20000064   Data           4  custom_ui.o(.data)
    Receiver_ID                              0x20000068   Data           4  custom_ui.o(.data)
    Send_Once_Flag                           0x2000006c   Data           1  custom_ui.o(.data)
    Angle_Last                               0x2000006e   Data           2  gimbal.o(.data)
    Init_Angle                               0x20000070   Data           2  gimbal.o(.data)
    Origin_Init_Yaw_Angle                    0x20000072   Data           2  gimbal.o(.data)
    Origin_Init_Pitch_Angle                  0x20000074   Data           2  gimbal.o(.data)
    q0                                       0x20000078   Data           4  imu.o(.data)
    q1                                       0x2000007c   Data           4  imu.o(.data)
    q2                                       0x20000080   Data           4  imu.o(.data)
    q3                                       0x20000084   Data           4  imu.o(.data)
    exInt                                    0x20000088   Data           4  imu.o(.data)
    eyInt                                    0x2000008c   Data           4  imu.o(.data)
    ezInt                                    0x20000090   Data           4  imu.o(.data)
    last_update                              0x200000b8   Data           4  imu.o(.data)
    now_update                               0x200000bc   Data           4  imu.o(.data)
    ist_buff                                 0x200000d0   Data           6  imu.o(.data)
    Pitch_Angle_NUC                          0x200000d8   Data           4  nuc.o(.data)
    Yaw_Angle_NUC                            0x200000dc   Data           4  nuc.o(.data)
    Roll_Angle_NUC                           0x200000e0   Data           4  nuc.o(.data)
    Robot_Color                              0x200000e4   Data           4  nuc.o(.data)
    Aim_Mode                                 0x200000e8   Data           4  nuc.o(.data)
    NUC_Flag                                 0x200000ec   Data           4  nuc.o(.data)
    buff_data                                0x200000f2   Data           1  referee_info.o(.data)
    real_shoot_data                          0x200000f3   Data           7  referee_info.o(.data)
    bullet_remaining                         0x200000fa   Data           6  referee_info.o(.data)
    imu_tick_counts                          0x20000100   Data           4  tim6.o(.data)
    Yaw_Angle                                0x20000104   Data           4  tim6.o(.data)
    g_z                                      0x20000108   Data           4  tim6.o(.data)
    yaw_angle                                0x2000010c   Data           4  tim6.o(.data)
    pxCurrentTCB                             0x20000124   Data           4  tasks.o(.data)
    StartTask_Handler                        0x20000198   Data           4  task_init.o(.data)
    EventGroupHandler                        0x2000019c   Data           4  task_init.o(.data)
    CAN_SEND_Task_Handler                    0x200001a0   Data           4  can_send_task.o(.data)
    CHASSIS_Task_Handler                     0x200001a8   Data           4  chassis_task.o(.data)
    Chassis_Mode                             0x200001ac   Data           1  chassis_task.o(.data)
    Super_Allow_Flag                         0x200001b0   Data           4  chassis_task.o(.data)
    time_delay                               0x200001b4   Data           4  chassis_task.o(.data)
    Power_Max                                0x200001b8   Data           4  chassis_task.o(.data)
    Power_Chassis_Max                        0x200001bc   Data           4  chassis_task.o(.data)
    xishu                                    0x200001c0   Data           4  chassis_task.o(.data)
    power_limit                              0x200001c4   Data           4  chassis_task.o(.data)
    Init_Dir                                 0x200001c8   Data           4  chassis_task.o(.data)
    Chassis_Rotate_Base_Speed                0x200001cc   Data           4  chassis_task.o(.data)
    GIMBAL_Task_Handler                      0x200001e8   Data           4  gimbal_task.o(.data)
    Gimbal_Mode                              0x200001ec   Data           1  gimbal_task.o(.data)
    Yaw_Aim_Angle                            0x200001f0   Data           4  gimbal_task.o(.data)
    Pitch_Aim_Angle                          0x200001f4   Data           4  gimbal_task.o(.data)
    Pitch_Angle_Max                          0x200001f8   Data           4  gimbal_task.o(.data)
    Pitch_Angle_Min                          0x200001fc   Data           4  gimbal_task.o(.data)
    Pitch_Flag                               0x20000200   Data           4  gimbal_task.o(.data)
    Yaw_Flag                                 0x20000204   Data           4  gimbal_task.o(.data)
    IMU_Task_Handler                         0x20000208   Data           4  imu_task.o(.data)
    LED_Task_Handler                         0x2000020c   Data           4  led_task.o(.data)
    MODE_Task_Handler                        0x20000210   Data           4  mode_task.o(.data)
    xianwei1                                 0x20000214   Data           4  mode_task.o(.data)
    xianwei2                                 0x20000218   Data           4  mode_task.o(.data)
    fb_ramp                                  0x2000021c   Data          20  mode_task.o(.data)
    lr_ramp                                  0x20000230   Data          20  mode_task.o(.data)
    rotate_ramp                              0x20000244   Data          20  mode_task.o(.data)
    slow_ramp                                0x20000258   Data          20  mode_task.o(.data)
    close_ramp                               0x2000026c   Data          20  mode_task.o(.data)
    slow_fb_ramp                             0x20000280   Data          20  mode_task.o(.data)
    slow_rl_ramp                             0x20000294   Data          20  mode_task.o(.data)
    Shoot_Run_Flag                           0x200002a8   Data           4  mode_task.o(.data)
    Chassis_Rotate_Flag                      0x200002ac   Data           4  mode_task.o(.data)
    Friction_Wheel_Flag                      0x200002b0   Data           4  mode_task.o(.data)
    Friction_Wheel_Time                      0x200002b4   Data           4  mode_task.o(.data)
    Friction_Up_Flag                         0x200002b8   Data           4  mode_task.o(.data)
    Chassis_Status                           0x200002bc   Data           1  mode_task.o(.data)
    Switch_Left_Last                         0x200002c0   Data           4  mode_task.o(.data)
    Trig_Time                                0x200002c4   Data           4  mode_task.o(.data)
    NUC_Task_Handler                         0x200002d0   Data           4  nuc_task.o(.data)
    Shoot_Mode                               0x200002d4   Data           1  shoot_task.o(.data)
    Shoot_Cmd                                0x200002d5   Data           1  shoot_task.o(.data)
    SHOOT_Task_Handler                       0x200002d8   Data           4  shoot_task.o(.data)
    friction_wheel                           0x200002dc   Data           4  shoot_task.o(.data)
    shoot_speed_get                          0x200002e0   Data           4  shoot_task.o(.data)
    Shoot_Speed                              0x200002e4   Data           4  shoot_task.o(.data)
    SUPERCAP_Task_Handler                    0x200002f0   Data           4  supercap_task.o(.data)
    UI_Task_Handler                          0x200002f4   Data           4  ui_task.o(.data)
    CAN_Chassis                              0x200002f8   Data          64  can_handle.o(.bss)
    CAN_Gimbal                               0x20000338   Data          32  can_handle.o(.bss)
    CAN_Shoot                                0x20000358   Data          32  can_handle.o(.bss)
    CAN_Trigger                              0x20000378   Data          16  can_handle.o(.bss)
    SuperCap_Info                            0x20000388   Data          24  can_handle.o(.bss)
    DBUS                                     0x200003c4   Data          72  dr16.o(.bss)
    interger_one                             0x2000040c   Data          21  custom_ui.o(.bss)
    float_one                                0x20000421   Data          21  custom_ui.o(.bss)
    character_one                            0x20000436   Data          51  custom_ui.o(.bss)
    character_two                            0x20000469   Data          51  custom_ui.o(.bss)
    character_three                          0x2000049c   Data          51  custom_ui.o(.bss)
    character_four                           0x200004cf   Data          51  custom_ui.o(.bss)
    character_five                           0x20000502   Data          51  custom_ui.o(.bss)
    character_six                            0x20000535   Data          51  custom_ui.o(.bss)
    character_seven                          0x20000568   Data          51  custom_ui.o(.bss)
    character_eight                          0x2000059b   Data          51  custom_ui.o(.bss)
    character_nine                           0x200005ce   Data          51  custom_ui.o(.bss)
    character_ten                            0x20000601   Data          51  custom_ui.o(.bss)
    character_eleven                         0x20000634   Data          51  custom_ui.o(.bss)
    character_twelve                         0x20000667   Data          51  custom_ui.o(.bss)
    character_thirteen                       0x2000069a   Data          51  custom_ui.o(.bss)
    character_fourteen                       0x200006cd   Data          51  custom_ui.o(.bss)
    line_one                                 0x20000700   Data          21  custom_ui.o(.bss)
    line_two                                 0x20000715   Data          21  custom_ui.o(.bss)
    line_three                               0x2000072a   Data          21  custom_ui.o(.bss)
    line_four                                0x2000073f   Data          21  custom_ui.o(.bss)
    line_five                                0x20000754   Data          21  custom_ui.o(.bss)
    line_six                                 0x20000769   Data          21  custom_ui.o(.bss)
    line_seven                               0x2000077e   Data          21  custom_ui.o(.bss)
    line_eight                               0x20000793   Data          21  custom_ui.o(.bss)
    line_nine                                0x200007a8   Data          21  custom_ui.o(.bss)
    line_ten                                 0x200007bd   Data          21  custom_ui.o(.bss)
    line_eleven                              0x200007d2   Data          21  custom_ui.o(.bss)
    line_twelve                              0x200007e7   Data          21  custom_ui.o(.bss)
    line_thirteen                            0x200007fc   Data          21  custom_ui.o(.bss)
    line_fourteen                            0x20000811   Data          21  custom_ui.o(.bss)
    line_fifteen                             0x20000826   Data          21  custom_ui.o(.bss)
    line_sixteen                             0x2000083b   Data          21  custom_ui.o(.bss)
    line_seventeen                           0x20000850   Data          21  custom_ui.o(.bss)
    line_eighteen                            0x20000865   Data          21  custom_ui.o(.bss)
    line_nineteen                            0x2000087a   Data          21  custom_ui.o(.bss)
    line_twenty                              0x2000088f   Data          21  custom_ui.o(.bss)
    circle_one                               0x200008a4   Data          21  custom_ui.o(.bss)
    circle_two                               0x200008b9   Data          21  custom_ui.o(.bss)
    circle_three                             0x200008ce   Data          21  custom_ui.o(.bss)
    circle_four                              0x200008e3   Data          21  custom_ui.o(.bss)
    circle_five                              0x200008f8   Data          21  custom_ui.o(.bss)
    circle_six                               0x2000090d   Data          21  custom_ui.o(.bss)
    char_one                                 0x20000922   Data          30  custom_ui.o(.bss)
    char_two                                 0x20000940   Data          30  custom_ui.o(.bss)
    char_three                               0x2000095e   Data          30  custom_ui.o(.bss)
    char_four                                0x2000097c   Data          30  custom_ui.o(.bss)
    char_five                                0x2000099a   Data          30  custom_ui.o(.bss)
    char_six                                 0x200009b8   Data          30  custom_ui.o(.bss)
    char_seven                               0x200009d6   Data          30  custom_ui.o(.bss)
    char_eight                               0x200009f4   Data          30  custom_ui.o(.bss)
    char_nine                                0x20000a12   Data          30  custom_ui.o(.bss)
    char_ten                                 0x20000a30   Data          30  custom_ui.o(.bss)
    char_eleven                              0x20000a4e   Data          30  custom_ui.o(.bss)
    char_twelve                              0x20000a6c   Data          30  custom_ui.o(.bss)
    char_thirteen                            0x20000a8a   Data          30  custom_ui.o(.bss)
    Angle_Init                               0x20000aa8   Data          16  gimbal.o(.bss)
    mpu_buff                                 0x20000ab8   Data          14  imu.o(.bss)
    mpu_data                                 0x20000ac6   Data          32  imu.o(.bss)
    imu                                      0x20000ae8   Data          52  imu.o(.bss)
    NUC_rx_buff                              0x20000b1c   Data          14  nuc.o(.bss)
    NUC_tx_buff                              0x20000b2a   Data          10  nuc.o(.bss)
    NUC_Data                                 0x20000b34   Data          16  nuc.o(.bss)
    PID_Chassis                              0x20000b44   Data         320  pid.o(.bss)
    PID_Gimbal_Angle                         0x20000c84   Data         160  pid.o(.bss)
    PID_Gimbal_Speed                         0x20000d24   Data         160  pid.o(.bss)
    PID_Chassis_Omega                        0x20000dc4   Data          80  pid.o(.bss)
    PID_Gimbal_Angle_Stop                    0x20000e14   Data         160  pid.o(.bss)
    PID_Gimbal_Speed_Stop                    0x20000eb4   Data         160  pid.o(.bss)
    PID_Yaw_Angle_Left                       0x20000f54   Data          80  pid.o(.bss)
    PID_Yaw_Angle_Right                      0x20000fa4   Data          80  pid.o(.bss)
    PID_Yaw_Speed_Left                       0x20000ff4   Data          80  pid.o(.bss)
    PID_Yaw_Speed_Right                      0x20001044   Data          80  pid.o(.bss)
    PID_Pitch_Angle                          0x20001094   Data          80  pid.o(.bss)
    PID_Pitch_Speed                          0x200010e4   Data          80  pid.o(.bss)
    PID_Shoot                                0x20001134   Data         160  pid.o(.bss)
    PID_Trigger                              0x200011d4   Data          80  pid.o(.bss)
    Usart_Referee_Rx_Buf                     0x20001224   Data        2048  referee.o(.bss)
    game_robot_state                         0x20001a24   Data          27  referee_info.o(.bss)
    power_heat_data                          0x20001a3f   Data          16  referee_info.o(.bss)
    xQueueRegistry                           0x20001a50   Data          64  queue.o(.bss)
    Chassis_Speed                            0x20014780   Data          20  chassis_task.o(.bss)
    rc                                       0x20014794   Data          12  chassis_task.o(.bss)
    keyboard                                 0x200147a0   Data          12  chassis_task.o(.bss)
    __libspace_start                         0x200147ac   Data          96  libspace.o(.bss)
    __temporary_stack_top$libspace           0x2001480c   Data           0  libspace.o(.bss)



==============================================================================

Memory Map of the image

  Image Entry point : 0x08000189

  Load Region LR_IROM1 (Base: 0x08000000, Size: 0x0000e160, Max: 0x00100000, ABSOLUTE, COMPRESSED[0x0000def0])

    Execution Region ER_IROM1 (Exec base: 0x08000000, Load base: 0x08000000, Size: 0x0000de68, Max: 0x00100000, ABSOLUTE)

    Exec Addr    Load Addr    Size         Type   Attr      Idx    E Section Name        Object

    0x08000000   0x08000000   0x00000188   Data   RO         4944    RESET               startup_stm32f40_41xxx.o
    0x08000188   0x08000188   0x00000008   Code   RO         5804  * !!!main             c_w.l(__main.o)
    0x08000190   0x08000190   0x00000034   Code   RO         6184    !!!scatter          c_w.l(__scatter.o)
    0x080001c4   0x080001c4   0x0000005a   Code   RO         6182    !!dczerorl2         c_w.l(__dczerorl2.o)
    0x0800021e   0x0800021e   0x00000002   PAD
    0x08000220   0x08000220   0x0000001c   Code   RO         6186    !!handler_zi        c_w.l(__scatter_zi.o)
    0x0800023c   0x0800023c   0x00000000   Code   RO         5793    .ARM.Collect$$_printf_percent$$00000000  c_w.l(_printf_percent.o)
    0x0800023c   0x0800023c   0x00000006   Code   RO         5792    .ARM.Collect$$_printf_percent$$00000003  c_w.l(_printf_f.o)
    0x08000242   0x08000242   0x00000006   Code   RO         5791    .ARM.Collect$$_printf_percent$$00000009  c_w.l(_printf_d.o)
    0x08000248   0x08000248   0x00000004   Code   RO         5915    .ARM.Collect$$_printf_percent$$00000017  c_w.l(_printf_percent_end.o)
    0x0800024c   0x0800024c   0x00000002   Code   RO         6059    .ARM.Collect$$libinit$$00000000  c_w.l(libinit.o)
    0x0800024e   0x0800024e   0x00000004   Code   RO         6060    .ARM.Collect$$libinit$$00000001  c_w.l(libinit2.o)
    0x08000252   0x08000252   0x00000000   Code   RO         6063    .ARM.Collect$$libinit$$00000004  c_w.l(libinit2.o)
    0x08000252   0x08000252   0x00000000   Code   RO         6066    .ARM.Collect$$libinit$$0000000A  c_w.l(libinit2.o)
    0x08000252   0x08000252   0x00000000   Code   RO         6068    .ARM.Collect$$libinit$$0000000C  c_w.l(libinit2.o)
    0x08000252   0x08000252   0x00000000   Code   RO         6070    .ARM.Collect$$libinit$$0000000E  c_w.l(libinit2.o)
    0x08000252   0x08000252   0x00000006   Code   RO         6071    .ARM.Collect$$libinit$$0000000F  c_w.l(libinit2.o)
    0x08000258   0x08000258   0x00000000   Code   RO         6073    .ARM.Collect$$libinit$$00000011  c_w.l(libinit2.o)
    0x08000258   0x08000258   0x00000000   Code   RO         6075    .ARM.Collect$$libinit$$00000013  c_w.l(libinit2.o)
    0x08000258   0x08000258   0x00000000   Code   RO         6077    .ARM.Collect$$libinit$$00000015  c_w.l(libinit2.o)
    0x08000258   0x08000258   0x0000000a   Code   RO         6078    .ARM.Collect$$libinit$$00000016  c_w.l(libinit2.o)
    0x08000262   0x08000262   0x00000000   Code   RO         6079    .ARM.Collect$$libinit$$00000017  c_w.l(libinit2.o)
    0x08000262   0x08000262   0x00000000   Code   RO         6081    .ARM.Collect$$libinit$$00000019  c_w.l(libinit2.o)
    0x08000262   0x08000262   0x00000000   Code   RO         6083    .ARM.Collect$$libinit$$0000001B  c_w.l(libinit2.o)
    0x08000262   0x08000262   0x00000000   Code   RO         6085    .ARM.Collect$$libinit$$0000001D  c_w.l(libinit2.o)
    0x08000262   0x08000262   0x00000000   Code   RO         6087    .ARM.Collect$$libinit$$0000001F  c_w.l(libinit2.o)
    0x08000262   0x08000262   0x00000000   Code   RO         6089    .ARM.Collect$$libinit$$00000021  c_w.l(libinit2.o)
    0x08000262   0x08000262   0x00000000   Code   RO         6091    .ARM.Collect$$libinit$$00000023  c_w.l(libinit2.o)
    0x08000262   0x08000262   0x00000000   Code   RO         6093    .ARM.Collect$$libinit$$00000025  c_w.l(libinit2.o)
    0x08000262   0x08000262   0x00000000   Code   RO         6097    .ARM.Collect$$libinit$$0000002C  c_w.l(libinit2.o)
    0x08000262   0x08000262   0x00000000   Code   RO         6099    .ARM.Collect$$libinit$$0000002E  c_w.l(libinit2.o)
    0x08000262   0x08000262   0x00000000   Code   RO         6101    .ARM.Collect$$libinit$$00000030  c_w.l(libinit2.o)
    0x08000262   0x08000262   0x00000000   Code   RO         6103    .ARM.Collect$$libinit$$00000032  c_w.l(libinit2.o)
    0x08000262   0x08000262   0x00000002   Code   RO         6104    .ARM.Collect$$libinit$$00000033  c_w.l(libinit2.o)
    0x08000264   0x08000264   0x00000002   Code   RO         6132    .ARM.Collect$$libshutdown$$00000000  c_w.l(libshutdown.o)
    0x08000266   0x08000266   0x00000000   Code   RO         6141    .ARM.Collect$$libshutdown$$00000002  c_w.l(libshutdown2.o)
    0x08000266   0x08000266   0x00000000   Code   RO         6143    .ARM.Collect$$libshutdown$$00000004  c_w.l(libshutdown2.o)
    0x08000266   0x08000266   0x00000000   Code   RO         6146    .ARM.Collect$$libshutdown$$00000007  c_w.l(libshutdown2.o)
    0x08000266   0x08000266   0x00000000   Code   RO         6149    .ARM.Collect$$libshutdown$$0000000A  c_w.l(libshutdown2.o)
    0x08000266   0x08000266   0x00000000   Code   RO         6151    .ARM.Collect$$libshutdown$$0000000C  c_w.l(libshutdown2.o)
    0x08000266   0x08000266   0x00000000   Code   RO         6154    .ARM.Collect$$libshutdown$$0000000F  c_w.l(libshutdown2.o)
    0x08000266   0x08000266   0x00000002   Code   RO         6155    .ARM.Collect$$libshutdown$$00000010  c_w.l(libshutdown2.o)
    0x08000268   0x08000268   0x00000000   Code   RO         5904    .ARM.Collect$$rtentry$$00000000  c_w.l(__rtentry.o)
    0x08000268   0x08000268   0x00000000   Code   RO         5981    .ARM.Collect$$rtentry$$00000002  c_w.l(__rtentry2.o)
    0x08000268   0x08000268   0x00000006   Code   RO         5993    .ARM.Collect$$rtentry$$00000004  c_w.l(__rtentry4.o)
    0x0800026e   0x0800026e   0x00000000   Code   RO         5983    .ARM.Collect$$rtentry$$00000009  c_w.l(__rtentry2.o)
    0x0800026e   0x0800026e   0x00000004   Code   RO         5984    .ARM.Collect$$rtentry$$0000000A  c_w.l(__rtentry2.o)
    0x08000272   0x08000272   0x00000000   Code   RO         5986    .ARM.Collect$$rtentry$$0000000C  c_w.l(__rtentry2.o)
    0x08000272   0x08000272   0x00000008   Code   RO         5987    .ARM.Collect$$rtentry$$0000000D  c_w.l(__rtentry2.o)
    0x0800027a   0x0800027a   0x00000002   Code   RO         6105    .ARM.Collect$$rtexit$$00000000  c_w.l(rtexit.o)
    0x0800027c   0x0800027c   0x00000000   Code   RO         6112    .ARM.Collect$$rtexit$$00000002  c_w.l(rtexit2.o)
    0x0800027c   0x0800027c   0x00000004   Code   RO         6113    .ARM.Collect$$rtexit$$00000003  c_w.l(rtexit2.o)
    0x08000280   0x08000280   0x00000006   Code   RO         6114    .ARM.Collect$$rtexit$$00000004  c_w.l(rtexit2.o)
    0x08000286   0x08000286   0x00000002   PAD
    0x08000288   0x08000288   0x000000b6   Code   RO         4816    .emb_text           port.o
    0x0800033e   0x0800033e   0x00000002   PAD
    0x08000340   0x08000340   0x00000040   Code   RO         4945    .text               startup_stm32f40_41xxx.o
    0x08000380   0x08000380   0x00000002   Code   RO         5761    .text               c_w.l(use_no_semi_2.o)
    0x08000382   0x08000382   0x00000002   PAD
    0x08000384   0x08000384   0x00000028   Code   RO         5765    .text               c_w.l(noretval__2sprintf.o)
    0x080003ac   0x080003ac   0x00000078   Code   RO         5769    .text               c_w.l(_printf_dec.o)
    0x08000424   0x08000424   0x0000010e   Code   RO         5779    .text               c_w.l(__printf_wp.o)
    0x08000532   0x08000532   0x0000008a   Code   RO         5794    .text               c_w.l(rt_memcpy_v6.o)
    0x080005bc   0x080005bc   0x00000010   Code   RO         5796    .text               c_w.l(aeabi_memset.o)
    0x080005cc   0x080005cc   0x00000044   Code   RO         5798    .text               c_w.l(rt_memclr.o)
    0x08000610   0x08000610   0x0000004e   Code   RO         5800    .text               c_w.l(rt_memclr_w.o)
    0x0800065e   0x0800065e   0x00000006   Code   RO         5802    .text               c_w.l(heapauxi.o)
    0x08000664   0x08000664   0x00000002   Code   RO         5902    .text               c_w.l(use_no_semi.o)
    0x08000666   0x08000666   0x00000016   Code   RO         5905    .text               c_w.l(_rserrno.o)
    0x0800067c   0x0800067c   0x000000b2   Code   RO         5907    .text               c_w.l(_printf_intcommon.o)
    0x0800072e   0x0800072e   0x0000041e   Code   RO         5909    .text               c_w.l(_printf_fp_dec.o)
    0x08000b4c   0x08000b4c   0x00000030   Code   RO         5911    .text               c_w.l(_printf_char_common.o)
    0x08000b7c   0x08000b7c   0x0000000a   Code   RO         5913    .text               c_w.l(_sputc.o)
    0x08000b86   0x08000b86   0x00000064   Code   RO         5916    .text               c_w.l(rt_memcpy_w.o)
    0x08000bea   0x08000bea   0x00000002   PAD
    0x08000bec   0x08000bec   0x00000008   Code   RO         5998    .text               c_w.l(rt_locale_intlibspace.o)
    0x08000bf4   0x08000bf4   0x00000008   Code   RO         6003    .text               c_w.l(rt_errno_addr_intlibspace.o)
    0x08000bfc   0x08000bfc   0x0000008a   Code   RO         6005    .text               c_w.l(lludiv10.o)
    0x08000c86   0x08000c86   0x00000002   PAD
    0x08000c88   0x08000c88   0x00000080   Code   RO         6007    .text               c_w.l(_printf_fp_infnan.o)
    0x08000d08   0x08000d08   0x000000e4   Code   RO         6011    .text               c_w.l(bigflt0.o)
    0x08000dec   0x08000dec   0x00000008   Code   RO         6045    .text               c_w.l(libspace.o)
    0x08000df4   0x08000df4   0x0000004a   Code   RO         6048    .text               c_w.l(sys_stackheap_outer.o)
    0x08000e3e   0x08000e3e   0x00000012   Code   RO         6050    .text               c_w.l(exit.o)
    0x08000e50   0x08000e50   0x00000080   Code   RO         6052    .text               c_w.l(strcmpv7m.o)
    0x08000ed0   0x08000ed0   0x0000003e   Code   RO         6014    CL$$btod_d2e        c_w.l(btod.o)
    0x08000f0e   0x08000f0e   0x00000046   Code   RO         6016    CL$$btod_d2e_denorm_low  c_w.l(btod.o)
    0x08000f54   0x08000f54   0x00000060   Code   RO         6015    CL$$btod_d2e_norm_op1  c_w.l(btod.o)
    0x08000fb4   0x08000fb4   0x00000338   Code   RO         6024    CL$$btod_div_common  c_w.l(btod.o)
    0x080012ec   0x080012ec   0x000000dc   Code   RO         6021    CL$$btod_e2e        c_w.l(btod.o)
    0x080013c8   0x080013c8   0x0000002a   Code   RO         6018    CL$$btod_ediv       c_w.l(btod.o)
    0x080013f2   0x080013f2   0x0000002a   Code   RO         6017    CL$$btod_emul       c_w.l(btod.o)
    0x0800141c   0x0800141c   0x00000244   Code   RO         6023    CL$$btod_mult_common  c_w.l(btod.o)
    0x08001660   0x08001660   0x00000010   Code   RO         1225    i.Angle_Correct_Get  gimbal.o
    0x08001670   0x08001670   0x00000030   Code   RO          833    i.Append_CRC16_Check_Sum  crc.o
    0x080016a0   0x080016a0   0x00000026   Code   RO          834    i.Append_CRC8_Check_Sum  crc.o
    0x080016c6   0x080016c6   0x00000002   PAD
    0x080016c8   0x080016c8   0x00000010   Code   RO          508    i.BMI088_ACCEL_NS_H  bmi088driver.o
    0x080016d8   0x080016d8   0x00000010   Code   RO          509    i.BMI088_ACCEL_NS_L  bmi088driver.o
    0x080016e8   0x080016e8   0x00000010   Code   RO          510    i.BMI088_GYRO_NS_H  bmi088driver.o
    0x080016f8   0x080016f8   0x00000010   Code   RO          511    i.BMI088_GYRO_NS_L  bmi088driver.o
    0x08001708   0x08001708   0x000001b4   Code   RO          512    i.BMI088_Get_Data   bmi088driver.o
    0x080018bc   0x080018bc   0x00000154   Code   RO          513    i.BMI088_Offset_Cali  bmi088driver.o
    0x08001a10   0x08001a10   0x00000140   Code   RO          488    i.BMI088_SPI_Init   bmi088.o
    0x08001b50   0x08001b50   0x00000022   Code   RO          514    i.BMI088_init       bmi088driver.o
    0x08001b72   0x08001b72   0x00000026   Code   RO          516    i.BMI088_read_muli_reg  bmi088driver.o
    0x08001b98   0x08001b98   0x00000018   Code   RO          517    i.BMI088_read_single_reg  bmi088driver.o
    0x08001bb0   0x08001bb0   0x00000038   Code   RO          518    i.BMI088_read_write_byte  bmi088driver.o
    0x08001be8   0x08001be8   0x00000014   Code   RO          520    i.BMI088_write_single_reg  bmi088driver.o
    0x08001bfc   0x08001bfc   0x0000003c   Code   RO            3    i.BSP_Init          main.o
    0x08001c38   0x08001c38   0x00000010   Code   RO          453    i.Beep_Ctrl         beep.o
    0x08001c48   0x08001c48   0x000000a0   Code   RO          454    i.Beep_Init         beep.o
    0x08001ce8   0x08001ce8   0x00000098   Code   RO         5321    i.Bullet_Block_Control  shoot_task.o
    0x08001d80   0x08001d80   0x00000004   Code   RO          337    i.BusFault_Handler  stm32f4xx_it.o
    0x08001d84   0x08001d84   0x0000000c   Code   RO          617    i.CAN12_Init        can.o
    0x08001d90   0x08001d90   0x0000011c   Code   RO          618    i.CAN1_Init         can.o
    0x08001eac   0x08001eac   0x000001e8   Code   RO          649    i.CAN1_RX0_IRQHandler  can_handle.o
    0x08002094   0x08002094   0x000000a0   Code   RO          650    i.CAN1_TX_Chassis   can_handle.o
    0x08002134   0x08002134   0x00000088   Code   RO          651    i.CAN1_TX_Gimbal_Pitch  can_handle.o
    0x080021bc   0x080021bc   0x00000094   Code   RO          652    i.CAN1_TX_Gimbal_Yaw  can_handle.o
    0x08002250   0x08002250   0x00000024   Code   RO          653    i.CAN1_TX_IRQHandler  can_handle.o
    0x08002274   0x08002274   0x00000168   Code   RO          654    i.CAN1_TX_SuperCap  can_handle.o
    0x080023dc   0x080023dc   0x00000128   Code   RO          619    i.CAN2_Init         can.o
    0x08002504   0x08002504   0x00000074   Code   RO          655    i.CAN2_RX0_IRQHandler  can_handle.o
    0x08002578   0x08002578   0x00000024   Code   RO          656    i.CAN2_TX_IRQHandler  can_handle.o
    0x0800259c   0x0800259c   0x00000090   Code   RO          657    i.CAN2_TX_Shoot     can_handle.o
    0x0800262c   0x0800262c   0x000000a8   Code   RO         1998    i.CAN_ClearITPendingBit  stm32f4xx_can.o
    0x080026d4   0x080026d4   0x00000050   Code   RO          658    i.CAN_Data_Decode   can_handle.o
    0x08002724   0x08002724   0x00000038   Code   RO         2000    i.CAN_DeInit        stm32f4xx_can.o
    0x0800275c   0x0800275c   0x00000108   Code   RO         2002    i.CAN_FilterInit    stm32f4xx_can.o
    0x08002864   0x08002864   0x00000120   Code   RO         2004    i.CAN_GetITStatus   stm32f4xx_can.o
    0x08002984   0x08002984   0x00000012   Code   RO         2008    i.CAN_ITConfig      stm32f4xx_can.o
    0x08002996   0x08002996   0x00000114   Code   RO         2009    i.CAN_Init          stm32f4xx_can.o
    0x08002aaa   0x08002aaa   0x000000f0   Code   RO         2012    i.CAN_Receive       stm32f4xx_can.o
    0x08002b9a   0x08002b9a   0x00000020   Code   RO         2015    i.CAN_StructInit    stm32f4xx_can.o
    0x08002bba   0x08002bba   0x00000126   Code   RO         2017    i.CAN_Transmit      stm32f4xx_can.o
    0x08002ce0   0x08002ce0   0x00000310   Code   RO         5020    i.Chassis_Follow_Control  chassis_task.o
    0x08002ff0   0x08002ff0   0x000000b4   Code   RO          730    i.Chassis_Init      chassis.o
    0x080030a4   0x080030a4   0x00000094   Code   RO         5021    i.Chassis_Power_Limit  chassis_task.o
    0x08003138   0x08003138   0x00000248   Code   RO         5022    i.Chassis_Rotate_Control  chassis_task.o
    0x08003380   0x08003380   0x00000108   Code   RO         5023    i.Chassis_Speed_Calc  chassis_task.o
    0x08003488   0x08003488   0x00000024   Code   RO         5024    i.Chassis_Stop_Control  chassis_task.o
    0x080034ac   0x080034ac   0x00000068   Code   RO         5025    i.Chassis_SuperCap_Control  chassis_task.o
    0x08003514   0x08003514   0x000000b0   Code   RO         5026    i.Chassis_SuperCap_HomeMade_Control  chassis_task.o
    0x080035c4   0x080035c4   0x000001b4   Code   RO         5027    i.Chassis_SuperCap_Wulie_Control  chassis_task.o
    0x08003778   0x08003778   0x00000012   Code   RO         2020    i.CheckITStatus     stm32f4xx_can.o
    0x0800378a   0x0800378a   0x00000002   PAD
    0x0800378c   0x0800378c   0x00000030   Code   RO         1489    i.DMA2_Stream7_IRQHandler  nuc.o
    0x080037bc   0x080037bc   0x00000034   Code   RO         2160    i.DMA_ClearITPendingBit  stm32f4xx_dma.o
    0x080037f0   0x080037f0   0x00000016   Code   RO         2161    i.DMA_Cmd           stm32f4xx_dma.o
    0x08003806   0x08003806   0x00000002   PAD
    0x08003808   0x08003808   0x00000158   Code   RO         2162    i.DMA_DeInit        stm32f4xx_dma.o
    0x08003960   0x08003960   0x00000016   Code   RO         2163    i.DMA_DoubleBufferModeCmd  stm32f4xx_dma.o
    0x08003976   0x08003976   0x00000018   Code   RO         2164    i.DMA_DoubleBufferModeConfig  stm32f4xx_dma.o
    0x0800398e   0x0800398e   0x00000008   Code   RO         2167    i.DMA_GetCurrDataCounter  stm32f4xx_dma.o
    0x08003996   0x08003996   0x00000014   Code   RO         2168    i.DMA_GetCurrentMemoryTarget  stm32f4xx_dma.o
    0x080039aa   0x080039aa   0x00000002   PAD
    0x080039ac   0x080039ac   0x00000064   Code   RO         2171    i.DMA_GetITStatus   stm32f4xx_dma.o
    0x08003a10   0x08003a10   0x0000003a   Code   RO         2172    i.DMA_ITConfig      stm32f4xx_dma.o
    0x08003a4a   0x08003a4a   0x00000002   PAD
    0x08003a4c   0x08003a4c   0x00000058   Code   RO         2173    i.DMA_Init          stm32f4xx_dma.o
    0x08003aa4   0x08003aa4   0x00000004   Code   RO         2176    i.DMA_SetCurrDataCounter  stm32f4xx_dma.o
    0x08003aa8   0x08003aa8   0x000000d4   Code   RO          750    i.DR16_DataDecode   dr16.o
    0x08003b7c   0x08003b7c   0x00000010   Code   RO          751    i.DR16_Init         dr16.o
    0x08003b8c   0x08003b8c   0x00000090   Code   RO          752    i.DR16_USART_DMA_Init  dr16.o
    0x08003c1c   0x08003c1c   0x0000009c   Code   RO          753    i.DR16_USART_Init   dr16.o
    0x08003cb8   0x08003cb8   0x00000022   Code   RO          754    i.DR16_USART_NVIC_Init  dr16.o
    0x08003cda   0x08003cda   0x00000002   Code   RO          338    i.DebugMon_Handler  stm32f4xx_it.o
    0x08003cdc   0x08003cdc   0x000000f8   Code   RO          887    i.Draw_Char         custom_ui.o
    0x08003dd4   0x08003dd4   0x000000c4   Code   RO          888    i.Draw_Circle       custom_ui.o
    0x08003e98   0x08003e98   0x000000d8   Code   RO          889    i.Draw_Float        custom_ui.o
    0x08003f70   0x08003f70   0x000000cc   Code   RO          890    i.Draw_Int          custom_ui.o
    0x0800403c   0x0800403c   0x000000cc   Code   RO          891    i.Draw_Line         custom_ui.o
    0x08004108   0x08004108   0x00000014   Code   RO         1273    i.EXTI9_5_IRQHandler  imu.o
    0x0800411c   0x0800411c   0x0000000c   Code   RO         2288    i.EXTI_ClearITPendingBit  stm32f4xx_exti.o
    0x08004128   0x08004128   0x00000018   Code   RO         2292    i.EXTI_GetITStatus  stm32f4xx_exti.o
    0x08004140   0x08004140   0x0000001e   Code   RO         1226    i.Encoder_Data_Process  gimbal.o
    0x0800415e   0x0800415e   0x00000002   PAD
    0x08004160   0x08004160   0x00000024   Code   RO         3752    i.FLASH_DataCacheCmd  stm32f4xx_flash.o
    0x08004184   0x08004184   0x00000088   Code   RO         3757    i.FLASH_EraseSector  stm32f4xx_flash.o
    0x0800420c   0x0800420c   0x00000054   Code   RO         3759    i.FLASH_GetStatus   stm32f4xx_flash.o
    0x08004260   0x08004260   0x00000014   Code   RO         3763    i.FLASH_Lock        stm32f4xx_flash.o
    0x08004274   0x08004274   0x00000050   Code   RO         3787    i.FLASH_ProgramWord  stm32f4xx_flash.o
    0x080042c4   0x080042c4   0x00000024   Code   RO         3789    i.FLASH_Unlock      stm32f4xx_flash.o
    0x080042e8   0x080042e8   0x00000022   Code   RO         3790    i.FLASH_WaitForLastOperation  stm32f4xx_flash.o
    0x0800430a   0x0800430a   0x00000090   Code   RO         2350    i.GPIO_Init         stm32f4xx_gpio.o
    0x0800439a   0x0800439a   0x00000046   Code   RO         2351    i.GPIO_PinAFConfig  stm32f4xx_gpio.o
    0x080043e0   0x080043e0   0x00000012   Code   RO         2354    i.GPIO_ReadInputDataBit  stm32f4xx_gpio.o
    0x080043f2   0x080043f2   0x00000004   Code   RO         2357    i.GPIO_ResetBits    stm32f4xx_gpio.o
    0x080043f6   0x080043f6   0x00000004   Code   RO         2358    i.GPIO_SetBits      stm32f4xx_gpio.o
    0x080043fa   0x080043fa   0x00000008   Code   RO         2360    i.GPIO_ToggleBits   stm32f4xx_gpio.o
    0x08004402   0x08004402   0x00000002   PAD
    0x08004404   0x08004404   0x00000034   Code   RO          835    i.Get_CRC16_Check_Sum  crc.o
    0x08004438   0x08004438   0x00000024   Code   RO          836    i.Get_CRC8_Check_Sum  crc.o
    0x0800445c   0x0800445c   0x00000170   Code   RO         5223    i.Get_Chassis_Keyboard  mode_task.o
    0x080045cc   0x080045cc   0x00000090   Code   RO         5224    i.Get_Chassis_Mode  mode_task.o
    0x0800465c   0x0800465c   0x00000084   Code   RO         5225    i.Get_Chassis_RC    mode_task.o
    0x080046e0   0x080046e0   0x00000054   Code   RO         5226    i.Get_Gimbal_Mode   mode_task.o
    0x08004734   0x08004734   0x000000cc   Code   RO         5227    i.Get_Keyboard_Mode  mode_task.o
    0x08004800   0x08004800   0x00000180   Code   RO         5228    i.Get_Shoot_Mode    mode_task.o
    0x08004980   0x08004980   0x00000188   Code   RO         1227    i.Gimbal_Angle_Calibrate  gimbal.o
    0x08004b08   0x08004b08   0x0000007c   Code   RO         1228    i.Gimbal_Angle_Read  gimbal.o
    0x08004b84   0x08004b84   0x000002d8   Code   RO         5115    i.Gimbal_AutoAim_Control  gimbal_task.o
    0x08004e5c   0x08004e5c   0x000002e4   Code   RO         5116    i.Gimbal_Follow_Control  gimbal_task.o
    0x08005140   0x08005140   0x00000480   Code   RO         1229    i.Gimbal_Init       gimbal.o
    0x080055c0   0x080055c0   0x00000014   Code   RO         5117    i.Gimbal_Stop_Control  gimbal_task.o
    0x080055d4   0x080055d4   0x00000004   Code   RO          339    i.HardFault_Handler  stm32f4xx_it.o
    0x080055d8   0x080055d8   0x00000770   Code   RO         1274    i.IMU_Ahrs_Update   imu.o
    0x08005d48   0x08005d48   0x00000208   Code   RO         1275    i.IMU_Attitude_Update  imu.o
    0x08005f50   0x08005f50   0x0000003c   Code   RO         1463    i.LED_Init          led.o
    0x08005f8c   0x08005f8c   0x00000014   Code   RO         1464    i.LED_Run           led.o
    0x08005fa0   0x08005fa0   0x0000003c   Code   RO         1437    i.Laser_Init        laser.o
    0x08005fdc   0x08005fdc   0x00000004   Code   RO          340    i.MemManage_Handler  stm32f4xx_it.o
    0x08005fe0   0x08005fe0   0x00000002   Code   RO          341    i.NMI_Handler       stm32f4xx_it.o
    0x08005fe2   0x08005fe2   0x00000002   PAD
    0x08005fe4   0x08005fe4   0x00000078   Code   RO         1490    i.NUC_Data_Decode   nuc.o
    0x0800605c   0x0800605c   0x00000010   Code   RO         1491    i.NUC_Init          nuc.o
    0x0800606c   0x0800606c   0x000001e0   Code   RO         1492    i.NUC_Send_Data     nuc.o
    0x0800624c   0x0800624c   0x000000f0   Code   RO         1493    i.NUC_USART_DMA_Init  nuc.o
    0x0800633c   0x0800633c   0x000000bc   Code   RO         1494    i.NUC_USART_Init    nuc.o
    0x080063f8   0x080063f8   0x00000040   Code   RO         1495    i.NUC_USART_NVIC_Init  nuc.o
    0x08006438   0x08006438   0x00000078   Code   RO         1952    i.NVIC_Init         misc.o
    0x080064b0   0x080064b0   0x00000014   Code   RO         1953    i.NVIC_PriorityGroupConfig  misc.o
    0x080064c4   0x080064c4   0x00000220   Code   RO         1563    i.Pid_Calc          pid.o
    0x080066e4   0x080066e4   0x000000a0   Code   RO         1564    i.Pid_Reset         pid.o
    0x08006784   0x08006784   0x0000002e   Code   RO         1565    i.Pid_Set           pid.o
    0x080067b2   0x080067b2   0x00000002   PAD
    0x080067b4   0x080067b4   0x00000020   Code   RO         2447    i.RCC_AHB1PeriphClockCmd  stm32f4xx_rcc.o
    0x080067d4   0x080067d4   0x00000020   Code   RO         2456    i.RCC_APB1PeriphClockCmd  stm32f4xx_rcc.o
    0x080067f4   0x080067f4   0x00000020   Code   RO         2458    i.RCC_APB1PeriphResetCmd  stm32f4xx_rcc.o
    0x08006814   0x08006814   0x00000020   Code   RO         2459    i.RCC_APB2PeriphClockCmd  stm32f4xx_rcc.o
    0x08006834   0x08006834   0x00000020   Code   RO         2461    i.RCC_APB2PeriphResetCmd  stm32f4xx_rcc.o
    0x08006854   0x08006854   0x000000e8   Code   RO         2468    i.RCC_GetClocksFreq  stm32f4xx_rcc.o
    0x0800693c   0x0800693c   0x0000015c   Code   RO         1661    i.RefereeInfo_Decode  referee_info.o
    0x08006a98   0x08006a98   0x00000010   Code   RO         1602    i.Referee_Init      referee.o
    0x08006aa8   0x08006aa8   0x00000090   Code   RO         1603    i.Referee_USART_DMA_Init  referee.o
    0x08006b38   0x08006b38   0x0000009c   Code   RO         1604    i.Referee_USART_Init  referee.o
    0x08006bd4   0x08006bd4   0x00000020   Code   RO         1605    i.Referee_USART_NVIC_Init  referee.o
    0x08006bf4   0x08006bf4   0x00000018   Code   RO         2787    i.SPI_Cmd           stm32f4xx_spi.o
    0x08006c0c   0x08006c0c   0x00000012   Code   RO         2795    i.SPI_I2S_GetFlagStatus  stm32f4xx_spi.o
    0x08006c1e   0x08006c1e   0x00000006   Code   RO         2798    i.SPI_I2S_ReceiveData  stm32f4xx_spi.o
    0x08006c24   0x08006c24   0x00000004   Code   RO         2799    i.SPI_I2S_SendData  stm32f4xx_spi.o
    0x08006c28   0x08006c28   0x0000003c   Code   RO         2800    i.SPI_Init          stm32f4xx_spi.o
    0x08006c64   0x08006c64   0x000000a0   Code   RO         1790    i.STMFLASH_GetFlashSector  flash.o
    0x08006d04   0x08006d04   0x00000020   Code   RO         1791    i.STMFLASH_Read     flash.o
    0x08006d24   0x08006d24   0x00000006   Code   RO         1792    i.STMFLASH_ReadWord  flash.o
    0x08006d2a   0x08006d2a   0x00000002   PAD
    0x08006d2c   0x08006d2c   0x00000098   Code   RO         1793    i.STMFLASH_Write    flash.o
    0x08006dc4   0x08006dc4   0x000000ec   Code   RO          416    i.SetSysClock       system_stm32f4xx.o
    0x08006eb0   0x08006eb0   0x000000d8   Code   RO         1712    i.Shoot_Init        shoot.o
    0x08006f88   0x08006f88   0x000002c4   Code   RO         5322    i.Shoot_Run_Control  shoot_task.o
    0x0800724c   0x0800724c   0x000000a4   Code   RO         5323    i.Shoot_Stop_Control  shoot_task.o
    0x080072f0   0x080072f0   0x00001040   Code   RO          893    i.Show_UI           custom_ui.o
    0x08008330   0x08008330   0x00000028   Code   RO         1956    i.SysTick_CLKSourceConfig  misc.o
    0x08008358   0x08008358   0x00000010   Code   RO         1848    i.SysTick_Handler   delay.o
    0x08008368   0x08008368   0x00000068   Code   RO          418    i.SystemInit        system_stm32f4xx.o
    0x080083d0   0x080083d0   0x00000110   Code   RO         1758    i.TIM6_DAC_IRQHandler  tim6.o
    0x080084e0   0x080084e0   0x0000005c   Code   RO         1759    i.TIM6_Init         tim6.o
    0x0800853c   0x0800853c   0x00000018   Code   RO         2949    i.TIM_ARRPreloadConfig  stm32f4xx_tim.o
    0x08008554   0x08008554   0x00000006   Code   RO         2956    i.TIM_ClearITPendingBit  stm32f4xx_tim.o
    0x0800855a   0x0800855a   0x00000018   Code   RO         2961    i.TIM_Cmd           stm32f4xx_tim.o
    0x08008572   0x08008572   0x00000022   Code   RO         2982    i.TIM_GetITStatus   stm32f4xx_tim.o
    0x08008594   0x08008594   0x00000012   Code   RO         2986    i.TIM_ITConfig      stm32f4xx_tim.o
    0x080085a6   0x080085a6   0x00000002   PAD
    0x080085a8   0x080085a8   0x000000a0   Code   RO         3000    i.TIM_OC3Init       stm32f4xx_tim.o
    0x08008648   0x08008648   0x00000012   Code   RO         3003    i.TIM_OC3PreloadConfig  stm32f4xx_tim.o
    0x0800865a   0x0800865a   0x00000002   PAD
    0x0800865c   0x0800865c   0x00000084   Code   RO         3033    i.TIM_TimeBaseInit  stm32f4xx_tim.o
    0x080086e0   0x080086e0   0x00000008   Code   RO         4951    i.Task_Init         task_init.o
    0x080086e8   0x080086e8   0x00000088   Code   RO         1496    i.USART1_IRQHandler  nuc.o
    0x08008770   0x08008770   0x00000088   Code   RO          755    i.USART3_IRQHandler  dr16.o
    0x080087f8   0x080087f8   0x00000158   Code   RO         1606    i.USART6_IRQHandler  referee.o
    0x08008950   0x08008950   0x00000012   Code   RO         3507    i.USART_ClearFlag   stm32f4xx_usart.o
    0x08008962   0x08008962   0x00000018   Code   RO         3511    i.USART_Cmd         stm32f4xx_usart.o
    0x0800897a   0x0800897a   0x00000012   Code   RO         3512    i.USART_DMACmd      stm32f4xx_usart.o
    0x0800898c   0x0800898c   0x0000001a   Code   RO         3514    i.USART_GetFlagStatus  stm32f4xx_usart.o
    0x080089a6   0x080089a6   0x00000054   Code   RO         3515    i.USART_GetITStatus  stm32f4xx_usart.o
    0x080089fa   0x080089fa   0x0000004a   Code   RO         3517    i.USART_ITConfig    stm32f4xx_usart.o
    0x08008a44   0x08008a44   0x000000d4   Code   RO         3518    i.USART_Init        stm32f4xx_usart.o
    0x08008b18   0x08008b18   0x0000000a   Code   RO         3525    i.USART_ReceiveData  stm32f4xx_usart.o
    0x08008b22   0x08008b22   0x00000008   Code   RO         3528    i.USART_SendData    stm32f4xx_usart.o
    0x08008b2a   0x08008b2a   0x00000004   Code   RO          342    i.UsageFault_Handler  stm32f4xx_it.o
    0x08008b2e   0x08008b2e   0x00000002   PAD
    0x08008b30   0x08008b30   0x00000040   Code   RO          837    i.Verify_CRC16_Check_Sum  crc.o
    0x08008b70   0x08008b70   0x00000030   Code   RO          838    i.Verify_CRC8_Check_Sum  crc.o
    0x08008ba0   0x08008ba0   0x00000030   Code   RO         5964    i.__ARM_fpclassify  m_wm.l(fpclassify.o)
    0x08008bd0   0x08008bd0   0x00000360   Code   RO         5834    i.__hardfp_asin     m_wm.l(asin.o)
    0x08008f30   0x08008f30   0x000002d8   Code   RO         5933    i.__hardfp_atan     m_wm.l(atan.o)
    0x08009208   0x08009208   0x000001f0   Code   RO         5848    i.__hardfp_atan2    m_wm.l(atan2.o)
    0x080093f8   0x080093f8   0x000000c8   Code   RO         5860    i.__hardfp_cos      m_wm.l(cos.o)
    0x080094c0   0x080094c0   0x00000014   Code   RO         5872    i.__hardfp_fabs     m_wm.l(fabs.o)
    0x080094d4   0x080094d4   0x00000004   PAD
    0x080094d8   0x080094d8   0x000000c8   Code   RO         5878    i.__hardfp_sin      m_wm.l(sin.o)
    0x080095a0   0x080095a0   0x0000007a   Code   RO         5890    i.__hardfp_sqrt     m_wm.l(sqrt.o)
    0x0800961a   0x0800961a   0x00000006   PAD
    0x08009620   0x08009620   0x00000438   Code   RO         5969    i.__ieee754_rem_pio2  m_wm.l(rred.o)
    0x08009a58   0x08009a58   0x00000170   Code   RO         5947    i.__kernel_cos      m_wm.l(cos_i.o)
    0x08009bc8   0x08009bc8   0x000000f8   Code   RO         5966    i.__kernel_poly     m_wm.l(poly.o)
    0x08009cc0   0x08009cc0   0x00000130   Code   RO         5974    i.__kernel_sin      m_wm.l(sin_i.o)
    0x08009df0   0x08009df0   0x00000014   Code   RO         5951    i.__mathlib_dbl_infnan  m_wm.l(dunder.o)
    0x08009e04   0x08009e04   0x00000014   Code   RO         5952    i.__mathlib_dbl_infnan2  m_wm.l(dunder.o)
    0x08009e18   0x08009e18   0x00000020   Code   RO         5953    i.__mathlib_dbl_invalid  m_wm.l(dunder.o)
    0x08009e38   0x08009e38   0x00000020   Code   RO         5956    i.__mathlib_dbl_underflow  m_wm.l(dunder.o)
    0x08009e58   0x08009e58   0x0000000e   Code   RO         5781    i._is_digit         c_w.l(__printf_wp.o)
    0x08009e66   0x08009e66   0x00000004   Code   RO         1912    i._sys_exit         usart.o
    0x08009e6a   0x08009e6a   0x00000010   Code   RO         5935    i.atan              m_wm.l(atan.o)
    0x08009e7a   0x08009e7a   0x00000016   Code   RO         1664    i.bit8TObit16       referee_info.o
    0x08009e90   0x08009e90   0x00000020   Code   RO         1665    i.bit8TObit32       referee_info.o
    0x08009eb0   0x08009eb0   0x00000128   Code   RO          521    i.bmi088_accel_init  bmi088driver.o
    0x08009fd8   0x08009fd8   0x000000f4   Code   RO          522    i.bmi088_gyro_init  bmi088driver.o
    0x0800a0cc   0x0800a0cc   0x0000004c   Code   RO         4989    i.can_send_task     can_send_task.o
    0x0800a118   0x0800a118   0x00000034   Code   RO         4990    i.can_send_task_create  can_send_task.o
    0x0800a14c   0x0800a14c   0x000000d0   Code   RO         5029    i.chassis_task      chassis_task.o
